{"contracts/L1.sol":{"PenkMarketL1":{"abi":[{"inputs":[{"internalType":"address","name":"_usdcAddress","type":"address"},{"internalType":"address","name":"_pepuAddress","type":"address"},{"internalType":"address","name":"_verifierAddress","type":"address"}],"stateMutability":"nonpayable","type":"constructor"},{"inputs":[],"name":"EnforcedPause","type":"error"},{"inputs":[],"name":"ExpectedPause","type":"error"},{"inputs":[{"internalType":"address","name":"owner","type":"address"}],"name":"OwnableInvalidOwner","type":"error"},{"inputs":[{"internalType":"address","name":"account","type":"address"}],"name":"OwnableUnauthorizedAccount","type":"error"},{"inputs":[],"name":"ReentrancyGuardReentrantCall","type":"error"},{"anonymous":false,"inputs":[{"indexed":true,"internalType":"address","name":"previousOwner","type":"address"},{"indexed":true,"internalType":"address","name":"newOwner","type":"address"}],"name":"OwnershipTransferred","type":"event"},{"anonymous":false,"inputs":[{"indexed":false,"internalType":"address","name":"account","type":"address"}],"name":"Paused","type":"event"},{"anonymous":false,"inputs":[{"indexed":false,"internalType":"uint256","name":"oldBasisPoints","type":"uint256"},{"indexed":false,"internalType":"uint256","name":"newBasisPoints","type":"uint256"}],"name":"PenkBonusUpdated","type":"event"},{"anonymous":false,"inputs":[{"indexed":true,"internalType":"string","name":"txid","type":"string"},{"indexed":true,"internalType":"address","name":"user","type":"address"},{"indexed":false,"internalType":"uint256","name":"amount","type":"uint256"},{"indexed":false,"internalType":"string","name":"tokenType","type":"string"}],"name":"TransactionCompleted","type":"event"},{"anonymous":false,"inputs":[{"indexed":true,"internalType":"string","name":"txid","type":"string"},{"indexed":true,"internalType":"address","name":"user","type":"address"},{"indexed":false,"internalType":"string","name":"providedString","type":"string"},{"indexed":false,"internalType":"uint256","name":"amount","type":"uint256"},{"indexed":false,"internalType":"uint256","name":"penkBonus","type":"uint256"},{"indexed":false,"internalType":"uint256","name":"totalAmount","type":"uint256"},{"indexed":false,"internalType":"string","name":"tokenType","type":"string"},{"indexed":false,"internalType":"uint256","name":"timestamp","type":"uint256"}],"name":"TransactionCreated","type":"event"},{"anonymous":false,"inputs":[{"indexed":true,"internalType":"string","name":"txid","type":"string"},{"indexed":true,"internalType":"address","name":"user","type":"address"},{"indexed":false,"internalType":"uint256","name":"amount","type":"uint256"},{"indexed":false,"internalType":"string","name":"tokenType","type":"string"}],"name":"TransactionRefunded","type":"event"},{"anonymous":false,"inputs":[{"indexed":false,"internalType":"address","name":"account","type":"address"}],"name":"Unpaused","type":"event"},{"inputs":[],"name":"PEPU_ADDRESS","outputs":[{"internalType":"address","name":"","type":"address"}],"stateMutability":"view","type":"function"},{"inputs":[],"name":"USDC_ADDRESS","outputs":[{"internalType":"address","name":"","type":"address"}],"stateMutability":"view","type":"function"},{"inputs":[],"name":"VERIFIER_ADDRESS","outputs":[{"internalType":"address","name":"","type":"address"}],"stateMutability":"view","type":"function"},{"inputs":[{"internalType":"string","name":"providedString","type":"string"}],"name":"buy","outputs":[],"stateMutability":"payable","type":"function"},{"inputs":[{"internalType":"string","name":"providedString","type":"string"},{"internalType":"uint256","name":"amount","type":"uint256"}],"name":"buyWithPEPU","outputs":[],"stateMutability":"nonpayable","type":"function"},{"inputs":[{"internalType":"string","name":"providedString","type":"string"},{"internalType":"uint256","name":"amount","type":"uint256"}],"name":"buyWithUSDC","outputs":[],"stateMutability":"nonpayable","type":"function"},{"inputs":[{"internalType":"string","name":"txid","type":"string"}],"name":"completeTransaction","outputs":[],"stateMutability":"nonpayable","type":"function"},{"inputs":[{"internalType":"string","name":"txid","type":"string"}],"name":"getTransaction","outputs":[{"components":[{"internalType":"address","name":"user","type":"address"},{"internalType":"address","name":"tokenAddress","type":"address"},{"internalType":"uint256","name":"amount","type":"uint256"},{"internalType":"uint256","name":"timestamp","type":"uint256"},{"internalType":"enum PenkMarketL1.TransactionStatus","name":"status","type":"uint8"},{"internalType":"string","name":"tokenType","type":"string"}],"internalType":"struct PenkMarketL1.Transaction","name":"","type":"tuple"}],"stateMutability":"view","type":"function"},{"inputs":[{"internalType":"address","name":"user","type":"address"}],"name":"getUserTransactions","outputs":[{"internalType":"string[]","name":"","type":"string[]"}],"stateMutability":"view","type":"function"},{"inputs":[],"name":"owner","outputs":[{"internalType":"address","name":"","type":"address"}],"stateMutability":"view","type":"function"},{"inputs":[],"name":"pause","outputs":[],"stateMutability":"nonpayable","type":"function"},{"inputs":[],"name":"paused","outputs":[{"internalType":"bool","name":"","type":"bool"}],"stateMutability":"view","type":"function"},{"inputs":[],"name":"penkBonusBasisPoints","outputs":[{"internalType":"uint256","name":"","type":"uint256"}],"stateMutability":"view","type":"function"},{"inputs":[{"internalType":"string","name":"txid","type":"string"}],"name":"refundTransaction","outputs":[],"stateMutability":"nonpayable","type":"function"},{"inputs":[],"name":"renounceOwnership","outputs":[],"stateMutability":"nonpayable","type":"function"},{"inputs":[{"internalType":"uint256","name":"newBasisPoints","type":"uint256"}],"name":"setPenkBonus","outputs":[],"stateMutability":"nonpayable","type":"function"},{"inputs":[],"name":"transactionNonce","outputs":[{"internalType":"uint256","name":"","type":"uint256"}],"stateMutability":"view","type":"function"},{"inputs":[{"internalType":"string","name":"","type":"string"}],"name":"transactions","outputs":[{"internalType":"address","name":"user","type":"address"},{"internalType":"address","name":"tokenAddress","type":"address"},{"internalType":"uint256","name":"amount","type":"uint256"},{"internalType":"uint256","name":"timestamp","type":"uint256"},{"internalType":"enum PenkMarketL1.TransactionStatus","name":"status","type":"uint8"},{"internalType":"string","name":"tokenType","type":"string"}],"stateMutability":"view","type":"function"},{"inputs":[{"internalType":"address","name":"newOwner","type":"address"}],"name":"transferOwnership","outputs":[],"stateMutability":"nonpayable","type":"function"},{"inputs":[{"internalType":"string","name":"","type":"string"}],"name":"txidExists","outputs":[{"internalType":"bool","name":"","type":"bool"}],"stateMutability":"view","type":"function"},{"inputs":[],"name":"unpause","outputs":[],"stateMutability":"nonpayable","type":"function"},{"inputs":[{"internalType":"address","name":"","type":"address"},{"internalType":"uint256","name":"","type":"uint256"}],"name":"userTransactions","outputs":[{"internalType":"string","name":"","type":"string"}],"stateMutability":"view","type":"function"},{"inputs":[],"name":"withdrawETH","outputs":[],"stateMutability":"nonpayable","type":"function"},{"inputs":[{"internalType":"address","name":"tokenAddress","type":"address"}],"name":"withdrawToken","outputs":[],"stateMutability":"nonpayable","type":"function"},{"stateMutability":"payable","type":"receive"}],"evm":{"bytecode":{"linkReferences":{},"object":"60e060405260c86006553480156200001657600080fd5b50604051620048403803806200484083398181016040528101906200003c9190620003ff565b336001600081905550600073ffffffffffffffffffffffffffffffffffffffff168173ffffffffffffffffffffffffffffffffffffffff1603620000ba5760006040517f1e4fbdf7000000000000000000000000000000000000000000000000000000008152600401620000b191906200046c565b60405180910390fd5b620000cb81620002cf60201b60201c565b50600073ffffffffffffffffffffffffffffffffffffffff168373ffffffffffffffffffffffffffffffffffffffff16036200013e576040517f08c379a00000000000000000000000000000000000000000000000000000000081526004016200013590620004ea565b60405180910390fd5b600073ffffffffffffffffffffffffffffffffffffffff168273ffffffffffffffffffffffffffffffffffffffff1603620001b0576040517f08c379a0000000000000000000000000000000000000000000000000000000008152600401620001a7906200055c565b60405180910390fd5b600073ffffffffffffffffffffffffffffffffffffffff168173ffffffffffffffffffffffffffffffffffffffff160362000222576040517f08c379a00000000000000000000000000000000000000000000000000000000081526004016200021990620005ce565b60405180910390fd5b8273ffffffffffffffffffffffffffffffffffffffff1660808173ffffffffffffffffffffffffffffffffffffffff16815250508173ffffffffffffffffffffffffffffffffffffffff1660a08173ffffffffffffffffffffffffffffffffffffffff16815250508073ffffffffffffffffffffffffffffffffffffffff1660c08173ffffffffffffffffffffffffffffffffffffffff16815250506000600281905550505050620005f0565b6000600160009054906101000a900473ffffffffffffffffffffffffffffffffffffffff16905081600160006101000a81548173ffffffffffffffffffffffffffffffffffffffff021916908373ffffffffffffffffffffffffffffffffffffffff1602179055508173ffffffffffffffffffffffffffffffffffffffff168173ffffffffffffffffffffffffffffffffffffffff167f8be0079c531659141344cd1fd0a4f28419497f9722a3daafe3b4186f6b6457e060405160405180910390a35050565b600080fd5b600073ffffffffffffffffffffffffffffffffffffffff82169050919050565b6000620003c7826200039a565b9050919050565b620003d981620003ba565b8114620003e557600080fd5b50565b600081519050620003f981620003ce565b92915050565b6000806000606084860312156200041b576200041a62000395565b5b60006200042b86828701620003e8565b93505060206200043e86828701620003e8565b92505060406200045186828701620003e8565b9150509250925092565b6200046681620003ba565b82525050565b60006020820190506200048360008301846200045b565b92915050565b600082825260208201905092915050565b7f496e76616c696420555344432061646472657373000000000000000000000000600082015250565b6000620004d260148362000489565b9150620004df826200049a565b602082019050919050565b600060208201905081810360008301526200050581620004c3565b9050919050565b7f496e76616c696420504550552061646472657373000000000000000000000000600082015250565b60006200054460148362000489565b915062000551826200050c565b602082019050919050565b60006020820190508181036000830152620005778162000535565b9050919050565b7f496e76616c696420766572696669657220616464726573730000000000000000600082015250565b6000620005b660188362000489565b9150620005c3826200057e565b602082019050919050565b60006020820190508181036000830152620005e981620005a7565b9050919050565b60805160a05160c0516141e86200065860003960008181610bce0152818161149e015261217101526000818161067e0152818161198901528181611a490152611b08015260008181610f2801528181610fe8015281816110a7015261214701526141e86000f3fe60806040526004361061014f5760003560e01c80638d78735a116100b6578063c7944ca11161006f578063c7944ca114610459578063d8a3440514610484578063e086e5ec146104af578063e2596ca3146104c6578063ef925399146104ef578063f2fde38b1461052c57610156565b80638d78735a146103235780638da5cb5b1461034c578063aaf56ca514610377578063ac2ccd07146103b4578063b842ec44146103f1578063bb09d9b71461042e57610156565b8063715018a611610108578063715018a6146102515780637c9d5de91461026857806381abb055146102915780638438e7ea146102ba5780638456cb59146102e357806389476069146102fa57610156565b8063022236f41461015b5780630393ff741461019d5780630b6b7d9b146101c85780633f4ba83a146101f3578063492cc7691461020a5780635c975abb1461022657610156565b3661015657005b600080fd5b34801561016757600080fd5b50610182600480360381019061017d9190612c73565b610555565b60405161019496959493929190612e0c565b60405180910390f35b3480156101a957600080fd5b506101b261067c565b6040516101bf9190612e74565b60405180910390f35b3480156101d457600080fd5b506101dd6106a0565b6040516101ea9190612e8f565b60405180910390f35b3480156101ff57600080fd5b506102086106a6565b005b610224600480360381019061021f9190612c73565b6106b8565b005b34801561023257600080fd5b5061023b610aa0565b6040516102489190612ec5565b60405180910390f35b34801561025d57600080fd5b50610266610ab7565b005b34801561027457600080fd5b5061028f600480360381019061028a9190612c73565b610acb565b005b34801561029d57600080fd5b506102b860048036038101906102b39190612f0c565b610ed3565b005b3480156102c657600080fd5b506102e160048036038101906102dc9190612c73565b61139b565b005b3480156102ef57600080fd5b506102f86117cf565b005b34801561030657600080fd5b50610321600480360381019061031c9190612f94565b6117e1565b005b34801561032f57600080fd5b5061034a60048036038101906103459190612f0c565b611934565b005b34801561035857600080fd5b50610361611dfc565b60405161036e9190612e74565b60405180910390f35b34801561038357600080fd5b5061039e60048036038101906103999190612c73565b611e26565b6040516103ab9190612ec5565b60405180910390f35b3480156103c057600080fd5b506103db60048036038101906103d69190612c73565b611e5c565b6040516103e891906130c1565b60405180910390f35b3480156103fd57600080fd5b50610418600480360381019061041391906130e3565b61208c565b6040516104259190613123565b60405180910390f35b34801561043a57600080fd5b50610443612145565b6040516104509190612e74565b60405180910390f35b34801561046557600080fd5b5061046e612169565b60405161047b9190612e8f565b60405180910390f35b34801561049057600080fd5b5061049961216f565b6040516104a69190612e74565b60405180910390f35b3480156104bb57600080fd5b506104c4612193565b005b3480156104d257600080fd5b506104ed60048036038101906104e89190613145565b612234565b005b3480156104fb57600080fd5b5061051660048036038101906105119190612f94565b6122cc565b6040516105239190613234565b60405180910390f35b34801561053857600080fd5b50610553600480360381019061054e9190612f94565b6123e4565b005b6003818051602081018201805184825260208301602085012081835280955050505050506000915090508060000160009054906101000a900473ffffffffffffffffffffffffffffffffffffffff16908060010160009054906101000a900473ffffffffffffffffffffffffffffffffffffffff16908060020154908060030154908060040160009054906101000a900460ff16908060050180546105f990613285565b80601f016020809104026020016040519081016040528092919081815260200182805461062590613285565b80156106725780601f1061064757610100808354040283529160200191610672565b820191906000526020600020905b81548152906001019060200180831161065557829003601f168201915b5050505050905086565b7f000000000000000000000000000000000000000000000000000000000000000081565b60065481565b6106ae61246a565b6106b66124f1565b565b6106c0612554565b6106c861259a565b6000341161070b576040517f08c379a000000000000000000000000000000000000000000000000000000000815260040161070290613302565b60405180910390fd5b6002600081548092919061071e90613351565b9190505550600061073533346000600254426125db565b905060048160405161074791906133d5565b908152602001604051809103902060009054906101000a900460ff16156107a3576040517f08c379a000000000000000000000000000000000000000000000000000000000815260040161079a90613438565b60405180910390fd5b6040518060c001604052803373ffffffffffffffffffffffffffffffffffffffff168152602001600073ffffffffffffffffffffffffffffffffffffffff1681526020013481526020014281526020016000600281111561080757610806612d16565b5b81526020016040518060400160405280600381526020017f455448000000000000000000000000000000000000000000000000000000000081525081525060038260405161085591906133d5565b908152602001604051809103902060008201518160000160006101000a81548173ffffffffffffffffffffffffffffffffffffffff021916908373ffffffffffffffffffffffffffffffffffffffff16021790555060208201518160010160006101000a81548173ffffffffffffffffffffffffffffffffffffffff021916908373ffffffffffffffffffffffffffffffffffffffff160217905550604082015181600201556060820151816003015560808201518160040160006101000a81548160ff021916908360028111156109305761092f612d16565b5b021790555060a082015181600501908161094a9190613604565b50905050600160048260405161096091906133d5565b908152602001604051809103902060006101000a81548160ff021916908315150217905550600560003373ffffffffffffffffffffffffffffffffffffffff1673ffffffffffffffffffffffffffffffffffffffff168152602001908152602001600020819080600181540180825580915050600190039060005260206000200160009091909190915090816109f69190613604565b50600061271060065434610a0a91906136d6565b610a149190613747565b905060008134610a249190613778565b90503373ffffffffffffffffffffffffffffffffffffffff1683604051610a4b91906133d5565b60405180910390207fbb405e64d023132fdedadd5894071ab0bef2541b2167ae22603e825aea7a95b18634868642604051610a8a9594939291906137f8565b60405180910390a3505050610a9d612637565b50565b6000600160149054906101000a900460ff16905090565b610abf61246a565b610ac96000612641565b565b80600481604051610adc91906133d5565b908152602001604051809103902060009054906101000a900460ff16610b37576040517f08c379a0000000000000000000000000000000000000000000000000000000008152600401610b2e906138b1565b60405180910390fd5b60006002811115610b4b57610b4a612d16565b5b600382604051610b5b91906133d5565b908152602001604051809103902060040160009054906101000a900460ff166002811115610b8c57610b8b612d16565b5b14610bcc576040517f08c379a0000000000000000000000000000000000000000000000000000000008152600401610bc39061391d565b60405180910390fd5b7f000000000000000000000000000000000000000000000000000000000000000073ffffffffffffffffffffffffffffffffffffffff163373ffffffffffffffffffffffffffffffffffffffff1614610c5a576040517f08c379a0000000000000000000000000000000000000000000000000000000008152600401610c51906139af565b60405180910390fd5b6000600383604051610c6c91906133d5565b9081526020016040518091039020905060028160040160006101000a81548160ff02191690836002811115610ca457610ca3612d16565b5b0217905550604051602001610cb8906139f2565b6040516020818303038152906040528051906020012081600501604051602001610ce29190613a8a565b6040516020818303038152906040528051906020012003610d71578060000160009054906101000a900473ffffffffffffffffffffffffffffffffffffffff1673ffffffffffffffffffffffffffffffffffffffff166108fc82600201549081150290604051600060405180830381858888f19350505050158015610d6b573d6000803e3d6000fd5b50610e3d565b8060010160009054906101000a900473ffffffffffffffffffffffffffffffffffffffff1673ffffffffffffffffffffffffffffffffffffffff1663a9059cbb8260000160009054906101000a900473ffffffffffffffffffffffffffffffffffffffff1683600201546040518363ffffffff1660e01b8152600401610df8929190613aa1565b6020604051808303816000875af1158015610e17573d6000803e3d6000fd5b505050506040513d601f19601f82011682018060405250810190610e3b9190613af6565b505b8060000160009054906101000a900473ffffffffffffffffffffffffffffffffffffffff1673ffffffffffffffffffffffffffffffffffffffff1683604051610e8691906133d5565b60405180910390207f75d4445d8d0034d1f0518918f4264c187d618c1c974e9640f50dfb4d7f7a8414836002015484600501604051610ec6929190613ba7565b60405180910390a3505050565b610edb612554565b610ee361259a565b60008111610f26576040517f08c379a0000000000000000000000000000000000000000000000000000000008152600401610f1d90613c23565b60405180910390fd5b7f000000000000000000000000000000000000000000000000000000000000000073ffffffffffffffffffffffffffffffffffffffff166323b872dd3330846040518463ffffffff1660e01b8152600401610f8393929190613c43565b6020604051808303816000875af1158015610fa2573d6000803e3d6000fd5b505050506040513d601f19601f82011682018060405250810190610fc69190613af6565b5060026000815480929190610fda90613351565b9190505550600061101033837f0000000000000000000000000000000000000000000000000000000000000000600254426125db565b905060048160405161102291906133d5565b908152602001604051809103902060009054906101000a900460ff161561107e576040517f08c379a000000000000000000000000000000000000000000000000000000000815260040161107590613438565b60405180910390fd5b6040518060c001604052803373ffffffffffffffffffffffffffffffffffffffff1681526020017f000000000000000000000000000000000000000000000000000000000000000073ffffffffffffffffffffffffffffffffffffffff1681526020018381526020014281526020016000600281111561110157611100612d16565b5b81526020016040518060400160405280600481526020017f555344430000000000000000000000000000000000000000000000000000000081525081525060038260405161114f91906133d5565b908152602001604051809103902060008201518160000160006101000a81548173ffffffffffffffffffffffffffffffffffffffff021916908373ffffffffffffffffffffffffffffffffffffffff16021790555060208201518160010160006101000a81548173ffffffffffffffffffffffffffffffffffffffff021916908373ffffffffffffffffffffffffffffffffffffffff160217905550604082015181600201556060820151816003015560808201518160040160006101000a81548160ff0219169083600281111561122a57611229612d16565b5b021790555060a08201518160050190816112449190613604565b50905050600160048260405161125a91906133d5565b908152602001604051809103902060006101000a81548160ff021916908315150217905550600560003373ffffffffffffffffffffffffffffffffffffffff1673ffffffffffffffffffffffffffffffffffffffff168152602001908152602001600020819080600181540180825580915050600190039060005260206000200160009091909190915090816112f09190613604565b5060006127106006548461130491906136d6565b61130e9190613747565b90506000818461131e9190613778565b90503373ffffffffffffffffffffffffffffffffffffffff168360405161134591906133d5565b60405180910390207fbb405e64d023132fdedadd5894071ab0bef2541b2167ae22603e825aea7a95b18787868642604051611384959493929190613cc6565b60405180910390a3505050611397612637565b5050565b806004816040516113ac91906133d5565b908152602001604051809103902060009054906101000a900460ff16611407576040517f08c379a00000000000000000000000000000000000000000000000000000000081526004016113fe906138b1565b60405180910390fd5b6000600281111561141b5761141a612d16565b5b60038260405161142b91906133d5565b908152602001604051809103902060040160009054906101000a900460ff16600281111561145c5761145b612d16565b5b1461149c576040517f08c379a00000000000000000000000000000000000000000000000000000000081526004016114939061391d565b60405180910390fd5b7f000000000000000000000000000000000000000000000000000000000000000073ffffffffffffffffffffffffffffffffffffffff163373ffffffffffffffffffffffffffffffffffffffff161461152a576040517f08c379a0000000000000000000000000000000000000000000000000000000008152600401611521906139af565b60405180910390fd5b600060038360405161153c91906133d5565b9081526020016040518091039020905060018160040160006101000a81548160ff0219169083600281111561157457611573612d16565b5b0217905550604051602001611588906139f2565b60405160208183030381529060405280519060200120816005016040516020016115b29190613a8a565b604051602081830303815290604052805190602001200361168a5760006115d7611dfc565b73ffffffffffffffffffffffffffffffffffffffff1682600201546040516115fe90613d64565b60006040518083038185875af1925050503d806000811461163b576040519150601f19603f3d011682016040523d82523d6000602084013e611640565b606091505b5050905080611684576040517f08c379a000000000000000000000000000000000000000000000000000000000815260040161167b90613dc5565b60405180910390fd5b50611739565b8060010160009054906101000a900473ffffffffffffffffffffffffffffffffffffffff1673ffffffffffffffffffffffffffffffffffffffff1663a9059cbb6116d2611dfc565b83600201546040518363ffffffff1660e01b81526004016116f4929190613aa1565b6020604051808303816000875af1158015611713573d6000803e3d6000fd5b505050506040513d601f19601f820116820180604052508101906117379190613af6565b505b8060000160009054906101000a900473ffffffffffffffffffffffffffffffffffffffff1673ffffffffffffffffffffffffffffffffffffffff168360405161178291906133d5565b60405180910390207f03c7c8aedd70d2b58f7125cea577394e13ddbd238c5d7847e8d0b6e59dc82f3a8360020154846005016040516117c2929190613ba7565b60405180910390a3505050565b6117d761246a565b6117df612707565b565b6117e961246a565b60008173ffffffffffffffffffffffffffffffffffffffff166370a08231306040518263ffffffff1660e01b81526004016118249190612e74565b602060405180830381865afa158015611841573d6000803e3d6000fd5b505050506040513d601f19601f820116820180604052508101906118659190613dfa565b9050600081116118aa576040517f08c379a00000000000000000000000000000000000000000000000000000000081526004016118a190613e73565b60405180910390fd5b8173ffffffffffffffffffffffffffffffffffffffff1663a9059cbb6118ce611dfc565b836040518363ffffffff1660e01b81526004016118ec929190613aa1565b6020604051808303816000875af115801561190b573d6000803e3d6000fd5b505050506040513d601f19601f8201168201806040525081019061192f9190613af6565b505050565b61193c612554565b61194461259a565b60008111611987576040517f08c379a000000000000000000000000000000000000000000000000000000000815260040161197e90613c23565b60405180910390fd5b7f000000000000000000000000000000000000000000000000000000000000000073ffffffffffffffffffffffffffffffffffffffff166323b872dd3330846040518463ffffffff1660e01b81526004016119e493929190613c43565b6020604051808303816000875af1158015611a03573d6000803e3d6000fd5b505050506040513d601f19601f82011682018060405250810190611a279190613af6565b5060026000815480929190611a3b90613351565b91905055506000611a7133837f0000000000000000000000000000000000000000000000000000000000000000600254426125db565b9050600481604051611a8391906133d5565b908152602001604051809103902060009054906101000a900460ff1615611adf576040517f08c379a0000000000000000000000000000000000000000000000000000000008152600401611ad690613438565b60405180910390fd5b6040518060c001604052803373ffffffffffffffffffffffffffffffffffffffff1681526020017f000000000000000000000000000000000000000000000000000000000000000073ffffffffffffffffffffffffffffffffffffffff16815260200183815260200142815260200160006002811115611b6257611b61612d16565b5b81526020016040518060400160405280600481526020017f5045505500000000000000000000000000000000000000000000000000000000815250815250600382604051611bb091906133d5565b908152602001604051809103902060008201518160000160006101000a81548173ffffffffffffffffffffffffffffffffffffffff021916908373ffffffffffffffffffffffffffffffffffffffff16021790555060208201518160010160006101000a81548173ffffffffffffffffffffffffffffffffffffffff021916908373ffffffffffffffffffffffffffffffffffffffff160217905550604082015181600201556060820151816003015560808201518160040160006101000a81548160ff02191690836002811115611c8b57611c8a612d16565b5b021790555060a0820151816005019081611ca59190613604565b509050506001600482604051611cbb91906133d5565b908152602001604051809103902060006101000a81548160ff021916908315150217905550600560003373ffffffffffffffffffffffffffffffffffffffff1673ffffffffffffffffffffffffffffffffffffffff16815260200190815260200160002081908060018154018082558091505060019003906000526020600020016000909190919091509081611d519190613604565b50600061271060065484611d6591906136d6565b611d6f9190613747565b905060008184611d7f9190613778565b90503373ffffffffffffffffffffffffffffffffffffffff1683604051611da691906133d5565b60405180910390207fbb405e64d023132fdedadd5894071ab0bef2541b2167ae22603e825aea7a95b18787868642604051611de5959493929190613edf565b60405180910390a3505050611df8612637565b5050565b6000600160009054906101000a900473ffffffffffffffffffffffffffffffffffffffff16905090565b6004818051602081018201805184825260208301602085012081835280955050505050506000915054906101000a900460ff1681565b611e64612aa5565b600482604051611e7491906133d5565b908152602001604051809103902060009054906101000a900460ff16611ecf576040517f08c379a0000000000000000000000000000000000000000000000000000000008152600401611ec6906138b1565b60405180910390fd5b600382604051611edf91906133d5565b90815260200160405180910390206040518060c00160405290816000820160009054906101000a900473ffffffffffffffffffffffffffffffffffffffff1673ffffffffffffffffffffffffffffffffffffffff1673ffffffffffffffffffffffffffffffffffffffff1681526020016001820160009054906101000a900473ffffffffffffffffffffffffffffffffffffffff1673ffffffffffffffffffffffffffffffffffffffff1673ffffffffffffffffffffffffffffffffffffffff16815260200160028201548152602001600382015481526020016004820160009054906101000a900460ff166002811115611fdd57611fdc612d16565b5b6002811115611fef57611fee612d16565b5b815260200160058201805461200390613285565b80601f016020809104026020016040519081016040528092919081815260200182805461202f90613285565b801561207c5780601f106120515761010080835404028352916020019161207c565b820191906000526020600020905b81548152906001019060200180831161205f57829003601f168201915b5050505050815250509050919050565b600560205281600052604060002081815481106120a857600080fd5b906000526020600020016000915091505080546120c490613285565b80601f01602080910402602001604051908101604052809291908181526020018280546120f090613285565b801561213d5780601f106121125761010080835404028352916020019161213d565b820191906000526020600020905b81548152906001019060200180831161212057829003601f168201915b505050505081565b7f000000000000000000000000000000000000000000000000000000000000000081565b60025481565b7f000000000000000000000000000000000000000000000000000000000000000081565b61219b61246a565b6000479050600081116121e3576040517f08c379a00000000000000000000000000000000000000000000000000000000081526004016121da90613f98565b60405180910390fd5b6121eb611dfc565b73ffffffffffffffffffffffffffffffffffffffff166108fc829081150290604051600060405180830381858888f19350505050158015612230573d6000803e3d6000fd5b5050565b61223c61246a565b6103e8811115612281576040517f08c379a000000000000000000000000000000000000000000000000000000000815260040161227890614004565b60405180910390fd5b60006006549050816006819055507f1ca55b9b495432f493ed407421d75b86e66ac74606327f97fdd727dd647cc69c81836040516122c0929190614024565b60405180910390a15050565b6060600560008373ffffffffffffffffffffffffffffffffffffffff1673ffffffffffffffffffffffffffffffffffffffff168152602001908152602001600020805480602002602001604051908101604052809291908181526020016000905b828210156123d957838290600052602060002001805461234c90613285565b80601f016020809104026020016040519081016040528092919081815260200182805461237890613285565b80156123c55780601f1061239a576101008083540402835291602001916123c5565b820191906000526020600020905b8154815290600101906020018083116123a857829003601f168201915b50505050508152602001906001019061232d565b505050509050919050565b6123ec61246a565b600073ffffffffffffffffffffffffffffffffffffffff168173ffffffffffffffffffffffffffffffffffffffff160361245e5760006040517f1e4fbdf70000000000000000000000000000000000000000000000000000000081526004016124559190612e74565b60405180910390fd5b61246781612641565b50565b612472612769565b73ffffffffffffffffffffffffffffffffffffffff16612490611dfc565b73ffffffffffffffffffffffffffffffffffffffff16146124ef576124b3612769565b6040517f118cdaa70000000000000000000000000000000000000000000000000000000081526004016124e69190612e74565b60405180910390fd5b565b6124f9612771565b6000600160146101000a81548160ff0219169083151502179055507f5db9ee0a495bf2e6ff9c91a7834c1ba4fdd244a5e8aa4e537bd38aeae4b073aa61253d612769565b60405161254a9190612e74565b60405180910390a1565b600260005403612590576040517f3ee5aeb500000000000000000000000000000000000000000000000000000000815260040160405180910390fd5b6002600081905550565b6125a2610aa0565b156125d9576040517fd93c066500000000000000000000000000000000000000000000000000000000815260040160405180910390fd5b565b606061260d86868686866040516020016125f99594939291906140b6565b6040516020818303038152906040526127b1565b60405160200161261d9190614161565b604051602081830303815290604052905095945050505050565b6001600081905550565b6000600160009054906101000a900473ffffffffffffffffffffffffffffffffffffffff16905081600160006101000a81548173ffffffffffffffffffffffffffffffffffffffff021916908373ffffffffffffffffffffffffffffffffffffffff1602179055508173ffffffffffffffffffffffffffffffffffffffff168173ffffffffffffffffffffffffffffffffffffffff167f8be0079c531659141344cd1fd0a4f28419497f9722a3daafe3b4186f6b6457e060405160405180910390a35050565b61270f61259a565b60018060146101000a81548160ff0219169083151502179055507f62e78cea01bee320cd4e420270b5ea74000d11b0c9f74754ebdbfc544b05a258612752612769565b60405161275f9190612e74565b60405180910390a1565b600033905090565b612779610aa0565b6127af576040517f8dfc202b00000000000000000000000000000000000000000000000000000000815260040160405180910390fd5b565b606060006040518060400160405280601081526020017f303132333435363738396162636465660000000000000000000000000000000081525090506000600284516127fd91906136d6565b60026128099190613778565b67ffffffffffffffff81111561282257612821612b48565b5b6040519080825280601f01601f1916602001820160405280156128545781602001600182028036833780820191505090505b5090507f30000000000000000000000000000000000000000000000000000000000000008160008151811061288c5761288b614183565b5b60200101907effffffffffffffffffffffffffffffffffffffffffffffffffffffffffffff1916908160001a9053507f7800000000000000000000000000000000000000000000000000000000000000816001815181106128f0576128ef614183565b5b60200101907effffffffffffffffffffffffffffffffffffffffffffffffffffffffffffff1916908160001a90535060005b8451811015612a9a5782600486838151811061294157612940614183565b5b602001015160f81c60f81b7effffffffffffffffffffffffffffffffffffffffffffffffffffffffffffff1916901c60f81c60ff168151811061298757612986614183565b5b602001015160f81c60f81b826002836129a091906136d6565b60026129ac9190613778565b815181106129bd576129bc614183565b5b60200101907effffffffffffffffffffffffffffffffffffffffffffffffffffffffffffff1916908160001a90535082600f60f81b868381518110612a0557612a04614183565b5b602001015160f81c60f81b1660f81c60ff1681518110612a2857612a27614183565b5b602001015160f81c60f81b82600283612a4191906136d6565b6001612a4d9190613778565b81518110612a5e57612a5d614183565b5b60200101907effffffffffffffffffffffffffffffffffffffffffffffffffffffffffffff1916908160001a9053508080600101915050612922565b508092505050919050565b6040518060c00160405280600073ffffffffffffffffffffffffffffffffffffffff168152602001600073ffffffffffffffffffffffffffffffffffffffff168152602001600081526020016000815260200160006002811115612b0c57612b0b612d16565b5b8152602001606081525090565b6000604051905090565b600080fd5b600080fd5b600080fd5b600080fd5b6000601f19601f8301169050919050565b7f4e487b7100000000000000000000000000000000000000000000000000000000600052604160045260246000fd5b612b8082612b37565b810181811067ffffffffffffffff82111715612b9f57612b9e612b48565b5b80604052505050565b6000612bb2612b19565b9050612bbe8282612b77565b919050565b600067ffffffffffffffff821115612bde57612bdd612b48565b5b612be782612b37565b9050602081019050919050565b82818337600083830152505050565b6000612c16612c1184612bc3565b612ba8565b905082815260208101848484011115612c3257612c31612b32565b5b612c3d848285612bf4565b509392505050565b600082601f830112612c5a57612c59612b2d565b5b8135612c6a848260208601612c03565b91505092915050565b600060208284031215612c8957612c88612b23565b5b600082013567ffffffffffffffff811115612ca757612ca6612b28565b5b612cb384828501612c45565b91505092915050565b600073ffffffffffffffffffffffffffffffffffffffff82169050919050565b6000612ce782612cbc565b9050919050565b612cf781612cdc565b82525050565b6000819050919050565b612d1081612cfd565b82525050565b7f4e487b7100000000000000000000000000000000000000000000000000000000600052602160045260246000fd5b60038110612d5657612d55612d16565b5b50565b6000819050612d6782612d45565b919050565b6000612d7782612d59565b9050919050565b612d8781612d6c565b82525050565b600081519050919050565b600082825260208201905092915050565b60005b83811015612dc7578082015181840152602081019050612dac565b60008484015250505050565b6000612dde82612d8d565b612de88185612d98565b9350612df8818560208601612da9565b612e0181612b37565b840191505092915050565b600060c082019050612e216000830189612cee565b612e2e6020830188612cee565b612e3b6040830187612d07565b612e486060830186612d07565b612e556080830185612d7e565b81810360a0830152612e678184612dd3565b9050979650505050505050565b6000602082019050612e896000830184612cee565b92915050565b6000602082019050612ea46000830184612d07565b92915050565b60008115159050919050565b612ebf81612eaa565b82525050565b6000602082019050612eda6000830184612eb6565b92915050565b612ee981612cfd565b8114612ef457600080fd5b50565b600081359050612f0681612ee0565b92915050565b60008060408385031215612f2357612f22612b23565b5b600083013567ffffffffffffffff811115612f4157612f40612b28565b5b612f4d85828601612c45565b9250506020612f5e85828601612ef7565b9150509250929050565b612f7181612cdc565b8114612f7c57600080fd5b50565b600081359050612f8e81612f68565b92915050565b600060208284031215612faa57612fa9612b23565b5b6000612fb884828501612f7f565b91505092915050565b612fca81612cdc565b82525050565b612fd981612cfd565b82525050565b612fe881612d6c565b82525050565b600082825260208201905092915050565b600061300a82612d8d565b6130148185612fee565b9350613024818560208601612da9565b61302d81612b37565b840191505092915050565b600060c0830160008301516130506000860182612fc1565b5060208301516130636020860182612fc1565b5060408301516130766040860182612fd0565b5060608301516130896060860182612fd0565b50608083015161309c6080860182612fdf565b5060a083015184820360a08601526130b48282612fff565b9150508091505092915050565b600060208201905081810360008301526130db8184613038565b905092915050565b600080604083850312156130fa576130f9612b23565b5b600061310885828601612f7f565b925050602061311985828601612ef7565b9150509250929050565b6000602082019050818103600083015261313d8184612dd3565b905092915050565b60006020828403121561315b5761315a612b23565b5b600061316984828501612ef7565b91505092915050565b600081519050919050565b600082825260208201905092915050565b6000819050602082019050919050565b60006131aa8383612fff565b905092915050565b6000602082019050919050565b60006131ca82613172565b6131d4818561317d565b9350836020820285016131e68561318e565b8060005b858110156132225784840389528151613203858261319e565b945061320e836131b2565b925060208a019950506001810190506131ea565b50829750879550505050505092915050565b6000602082019050818103600083015261324e81846131bf565b905092915050565b7f4e487b7100000000000000000000000000000000000000000000000000000000600052602260045260246000fd5b6000600282049050600182168061329d57607f821691505b6020821081036132b0576132af613256565b5b50919050565b7f4d7573742073656e642045544800000000000000000000000000000000000000600082015250565b60006132ec600d83612d98565b91506132f7826132b6565b602082019050919050565b6000602082019050818103600083015261331b816132df565b9050919050565b7f4e487b7100000000000000000000000000000000000000000000000000000000600052601160045260246000fd5b600061335c82612cfd565b91507fffffffffffffffffffffffffffffffffffffffffffffffffffffffffffffffff820361338e5761338d613322565b5b600182019050919050565b600081905092915050565b60006133af82612d8d565b6133b98185613399565b93506133c9818560208601612da9565b80840191505092915050565b60006133e182846133a4565b915081905092915050565b7f5472616e73616374696f6e20494420636f6c6c6973696f6e0000000000000000600082015250565b6000613422601883612d98565b915061342d826133ec565b602082019050919050565b6000602082019050818103600083015261345181613415565b9050919050565b60008190508160005260206000209050919050565b60006020601f8301049050919050565b600082821b905092915050565b6000600883026134ba7fffffffffffffffffffffffffffffffffffffffffffffffffffffffffffffffff8261347d565b6134c4868361347d565b95508019841693508086168417925050509392505050565b6000819050919050565b60006135016134fc6134f784612cfd565b6134dc565b612cfd565b9050919050565b6000819050919050565b61351b836134e6565b61352f61352782613508565b84845461348a565b825550505050565b600090565b613544613537565b61354f818484613512565b505050565b5b818110156135735761356860008261353c565b600181019050613555565b5050565b601f8211156135b85761358981613458565b6135928461346d565b810160208510156135a1578190505b6135b56135ad8561346d565b830182613554565b50505b505050565b600082821c905092915050565b60006135db600019846008026135bd565b1980831691505092915050565b60006135f483836135ca565b9150826002028217905092915050565b61360d82612d8d565b67ffffffffffffffff81111561362657613625612b48565b5b6136308254613285565b61363b828285613577565b600060209050601f83116001811461366e576000841561365c578287015190505b61366685826135e8565b8655506136ce565b601f19841661367c86613458565b60005b828110156136a45784890151825560018201915060208501945060208101905061367f565b868310156136c157848901516136bd601f8916826135ca565b8355505b6001600288020188555050505b505050505050565b60006136e182612cfd565b91506136ec83612cfd565b92508282026136fa81612cfd565b9150828204841483151761371157613710613322565b5b5092915050565b7f4e487b7100000000000000000000000000000000000000000000000000000000600052601260045260246000fd5b600061375282612cfd565b915061375d83612cfd565b92508261376d5761376c613718565b5b828204905092915050565b600061378382612cfd565b915061378e83612cfd565b92508282019050808211156137a6576137a5613322565b5b92915050565b7f4554480000000000000000000000000000000000000000000000000000000000600082015250565b60006137e2600383612d98565b91506137ed826137ac565b602082019050919050565b600060c08201905081810360008301526138128188612dd3565b90506138216020830187612d07565b61382e6040830186612d07565b61383b6060830185612d07565b818103608083015261384c816137d5565b905061385b60a0830184612d07565b9695505050505050565b7f5472616e73616374696f6e20646f6573206e6f74206578697374000000000000600082015250565b600061389b601a83612d98565b91506138a682613865565b602082019050919050565b600060208201905081810360008301526138ca8161388e565b9050919050565b7f5472616e73616374696f6e206973206e6f742070656e64696e67000000000000600082015250565b6000613907601a83612d98565b9150613912826138d1565b602082019050919050565b60006020820190508181036000830152613936816138fa565b9050919050565b7f4f6e6c792076657269666965722063616e20636f6d706c657465207472616e7360008201527f616374696f6e7300000000000000000000000000000000000000000000000000602082015250565b6000613999602783612d98565b91506139a48261393d565b604082019050919050565b600060208201905081810360008301526139c88161398c565b9050919050565b60006139dc600383613399565b91506139e7826137ac565b600382019050919050565b60006139fd826139cf565b9150819050919050565b60008154613a1481613285565b613a1e8186613399565b94506001821660008114613a395760018114613a4e57613a81565b60ff1983168652811515820286019350613a81565b613a5785613458565b60005b83811015613a7957815481890152600182019150602081019050613a5a565b838801955050505b50505092915050565b6000613a968284613a07565b915081905092915050565b6000604082019050613ab66000830185612cee565b613ac36020830184612d07565b9392505050565b613ad381612eaa565b8114613ade57600080fd5b50565b600081519050613af081613aca565b92915050565b600060208284031215613b0c57613b0b612b23565b5b6000613b1a84828501613ae1565b91505092915050565b60008154613b3081613285565b613b3a8186612d98565b94506001821660008114613b555760018114613b6b57613b9e565b60ff198316865281151560200286019350613b9e565b613b7485613458565b60005b83811015613b9657815481890152600182019150602081019050613b77565b808801955050505b50505092915050565b6000604082019050613bbc6000830185612d07565b8181036020830152613bce8184613b23565b90509392505050565b7f416d6f756e74206d7573742062652067726561746572207468616e2030000000600082015250565b6000613c0d601d83612d98565b9150613c1882613bd7565b602082019050919050565b60006020820190508181036000830152613c3c81613c00565b9050919050565b6000606082019050613c586000830186612cee565b613c656020830185612cee565b613c726040830184612d07565b949350505050565b7f5553444300000000000000000000000000000000000000000000000000000000600082015250565b6000613cb0600483612d98565b9150613cbb82613c7a565b602082019050919050565b600060c0820190508181036000830152613ce08188612dd3565b9050613cef6020830187612d07565b613cfc6040830186612d07565b613d096060830185612d07565b8181036080830152613d1a81613ca3565b9050613d2960a0830184612d07565b9695505050505050565b600081905092915050565b50565b6000613d4e600083613d33565b9150613d5982613d3e565b600082019050919050565b6000613d6f82613d41565b9150819050919050565b7f455448207472616e7366657220746f206f776e6572206661696c656400000000600082015250565b6000613daf601c83612d98565b9150613dba82613d79565b602082019050919050565b60006020820190508181036000830152613dde81613da2565b9050919050565b600081519050613df481612ee0565b92915050565b600060208284031215613e1057613e0f612b23565b5b6000613e1e84828501613de5565b91505092915050565b7f4e6f20746f6b656e7320746f2077697468647261770000000000000000000000600082015250565b6000613e5d601583612d98565b9150613e6882613e27565b602082019050919050565b60006020820190508181036000830152613e8c81613e50565b9050919050565b7f5045505500000000000000000000000000000000000000000000000000000000600082015250565b6000613ec9600483612d98565b9150613ed482613e93565b602082019050919050565b600060c0820190508181036000830152613ef98188612dd3565b9050613f086020830187612d07565b613f156040830186612d07565b613f226060830185612d07565b8181036080830152613f3381613ebc565b9050613f4260a0830184612d07565b9695505050505050565b7f4e6f2045544820746f2077697468647261770000000000000000000000000000600082015250565b6000613f82601283612d98565b9150613f8d82613f4c565b602082019050919050565b60006020820190508181036000830152613fb181613f75565b9050919050565b7f50656e6b426f6e75732063616e6e6f7420657863656564203130250000000000600082015250565b6000613fee601b83612d98565b9150613ff982613fb8565b602082019050919050565b6000602082019050818103600083015261401d81613fe1565b9050919050565b60006040820190506140396000830185612d07565b6140466020830184612d07565b9392505050565b60008160601b9050919050565b60006140658261404d565b9050919050565b60006140778261405a565b9050919050565b61408f61408a82612cdc565b61406c565b82525050565b6000819050919050565b6140b06140ab82612cfd565b614095565b82525050565b60006140c2828861407e565b6014820191506140d2828761409f565b6020820191506140e2828661407e565b6014820191506140f2828561409f565b602082019150614102828461409f565b6020820191508190509695505050505050565b7f3078000000000000000000000000000000000000000000000000000000000000600082015250565b600061414b600283613399565b915061415682614115565b600282019050919050565b600061416c8261413e565b915061417882846133a4565b915081905092915050565b7f4e487b7100000000000000000000000000000000000000000000000000000000600052603260045260246000fdfea26469706673582212201d49689faa143235252a9cd5e747651bcf9350518808caf8a61a042f5185a96a64736f6c63430008160033","opcodes":"PUSH1 0xE0 PUSH1 0x40 MSTORE PUSH1 0xC8 PUSH1 0x6 SSTORE CALLVALUE DUP1 ISZERO PUSH3 0x16 JUMPI PUSH1 0x0 DUP1 REVERT JUMPDEST POP PUSH1 0x40 MLOAD PUSH3 0x4840 CODESIZE SUB DUP1 PUSH3 0x4840 DUP4 CODECOPY DUP2 DUP2 ADD PUSH1 0x40 MSTORE DUP2 ADD SWAP1 PUSH3 0x3C SWAP2 SWAP1 PUSH3 0x3FF JUMP JUMPDEST CALLER PUSH1 0x1 PUSH1 0x0 DUP2 SWAP1 SSTORE POP PUSH1 0x0 PUSH20 0xFFFFFFFFFFFFFFFFFFFFFFFFFFFFFFFFFFFFFFFF AND DUP2 PUSH20 0xFFFFFFFFFFFFFFFFFFFFFFFFFFFFFFFFFFFFFFFF AND SUB PUSH3 0xBA JUMPI PUSH1 0x0 PUSH1 0x40 MLOAD PUSH32 0x1E4FBDF700000000000000000000000000000000000000000000000000000000 DUP2 MSTORE PUSH1 0x4 ADD PUSH3 0xB1 SWAP2 SWAP1 PUSH3 0x46C JUMP JUMPDEST PUSH1 0x40 MLOAD DUP1 SWAP2 SUB SWAP1 REVERT JUMPDEST PUSH3 0xCB DUP2 PUSH3 0x2CF PUSH1 0x20 SHL PUSH1 0x20 SHR JUMP JUMPDEST POP PUSH1 0x0 PUSH20 0xFFFFFFFFFFFFFFFFFFFFFFFFFFFFFFFFFFFFFFFF AND DUP4 PUSH20 0xFFFFFFFFFFFFFFFFFFFFFFFFFFFFFFFFFFFFFFFF AND SUB PUSH3 0x13E JUMPI PUSH1 0x40 MLOAD PUSH32 0x8C379A000000000000000000000000000000000000000000000000000000000 DUP2 MSTORE PUSH1 0x4 ADD PUSH3 0x135 SWAP1 PUSH3 0x4EA JUMP JUMPDEST PUSH1 0x40 MLOAD DUP1 SWAP2 SUB SWAP1 REVERT JUMPDEST PUSH1 0x0 PUSH20 0xFFFFFFFFFFFFFFFFFFFFFFFFFFFFFFFFFFFFFFFF AND DUP3 PUSH20 0xFFFFFFFFFFFFFFFFFFFFFFFFFFFFFFFFFFFFFFFF AND SUB PUSH3 0x1B0 JUMPI PUSH1 0x40 MLOAD PUSH32 0x8C379A000000000000000000000000000000000000000000000000000000000 DUP2 MSTORE PUSH1 0x4 ADD PUSH3 0x1A7 SWAP1 PUSH3 0x55C JUMP JUMPDEST PUSH1 0x40 MLOAD DUP1 SWAP2 SUB SWAP1 REVERT JUMPDEST PUSH1 0x0 PUSH20 0xFFFFFFFFFFFFFFFFFFFFFFFFFFFFFFFFFFFFFFFF AND DUP2 PUSH20 0xFFFFFFFFFFFFFFFFFFFFFFFFFFFFFFFFFFFFFFFF AND SUB PUSH3 0x222 JUMPI PUSH1 0x40 MLOAD PUSH32 0x8C379A000000000000000000000000000000000000000000000000000000000 DUP2 MSTORE PUSH1 0x4 ADD PUSH3 0x219 SWAP1 PUSH3 0x5CE JUMP JUMPDEST PUSH1 0x40 MLOAD DUP1 SWAP2 SUB SWAP1 REVERT JUMPDEST DUP3 PUSH20 0xFFFFFFFFFFFFFFFFFFFFFFFFFFFFFFFFFFFFFFFF AND PUSH1 0x80 DUP2 PUSH20 0xFFFFFFFFFFFFFFFFFFFFFFFFFFFFFFFFFFFFFFFF AND DUP2 MSTORE POP POP DUP2 PUSH20 0xFFFFFFFFFFFFFFFFFFFFFFFFFFFFFFFFFFFFFFFF AND PUSH1 0xA0 DUP2 PUSH20 0xFFFFFFFFFFFFFFFFFFFFFFFFFFFFFFFFFFFFFFFF AND DUP2 MSTORE POP POP DUP1 PUSH20 0xFFFFFFFFFFFFFFFFFFFFFFFFFFFFFFFFFFFFFFFF AND PUSH1 0xC0 DUP2 PUSH20 0xFFFFFFFFFFFFFFFFFFFFFFFFFFFFFFFFFFFFFFFF AND DUP2 MSTORE POP POP PUSH1 0x0 PUSH1 0x2 DUP2 SWAP1 SSTORE POP POP POP POP PUSH3 0x5F0 JUMP JUMPDEST PUSH1 0x0 PUSH1 0x1 PUSH1 0x0 SWAP1 SLOAD SWAP1 PUSH2 0x100 EXP SWAP1 DIV PUSH20 0xFFFFFFFFFFFFFFFFFFFFFFFFFFFFFFFFFFFFFFFF AND SWAP1 POP DUP2 PUSH1 0x1 PUSH1 0x0 PUSH2 0x100 EXP DUP2 SLOAD DUP2 PUSH20 0xFFFFFFFFFFFFFFFFFFFFFFFFFFFFFFFFFFFFFFFF MUL NOT AND SWAP1 DUP4 PUSH20 0xFFFFFFFFFFFFFFFFFFFFFFFFFFFFFFFFFFFFFFFF AND MUL OR SWAP1 SSTORE POP DUP2 PUSH20 0xFFFFFFFFFFFFFFFFFFFFFFFFFFFFFFFFFFFFFFFF AND DUP2 PUSH20 0xFFFFFFFFFFFFFFFFFFFFFFFFFFFFFFFFFFFFFFFF AND PUSH32 0x8BE0079C531659141344CD1FD0A4F28419497F9722A3DAAFE3B4186F6B6457E0 PUSH1 0x40 MLOAD PUSH1 0x40 MLOAD DUP1 SWAP2 SUB SWAP1 LOG3 POP POP JUMP JUMPDEST PUSH1 0x0 DUP1 REVERT JUMPDEST PUSH1 0x0 PUSH20 0xFFFFFFFFFFFFFFFFFFFFFFFFFFFFFFFFFFFFFFFF DUP3 AND SWAP1 POP SWAP2 SWAP1 POP JUMP JUMPDEST PUSH1 0x0 PUSH3 0x3C7 DUP3 PUSH3 0x39A JUMP JUMPDEST SWAP1 POP SWAP2 SWAP1 POP JUMP JUMPDEST PUSH3 0x3D9 DUP2 PUSH3 0x3BA JUMP JUMPDEST DUP2 EQ PUSH3 0x3E5 JUMPI PUSH1 0x0 DUP1 REVERT JUMPDEST POP JUMP JUMPDEST PUSH1 0x0 DUP2 MLOAD SWAP1 POP PUSH3 0x3F9 DUP2 PUSH3 0x3CE JUMP JUMPDEST SWAP3 SWAP2 POP POP JUMP JUMPDEST PUSH1 0x0 DUP1 PUSH1 0x0 PUSH1 0x60 DUP5 DUP7 SUB SLT ISZERO PUSH3 0x41B JUMPI PUSH3 0x41A PUSH3 0x395 JUMP JUMPDEST JUMPDEST PUSH1 0x0 PUSH3 0x42B DUP7 DUP3 DUP8 ADD PUSH3 0x3E8 JUMP JUMPDEST SWAP4 POP POP PUSH1 0x20 PUSH3 0x43E DUP7 DUP3 DUP8 ADD PUSH3 0x3E8 JUMP JUMPDEST SWAP3 POP POP PUSH1 0x40 PUSH3 0x451 DUP7 DUP3 DUP8 ADD PUSH3 0x3E8 JUMP JUMPDEST SWAP2 POP POP SWAP3 POP SWAP3 POP SWAP3 JUMP JUMPDEST PUSH3 0x466 DUP2 PUSH3 0x3BA JUMP JUMPDEST DUP3 MSTORE POP POP JUMP JUMPDEST PUSH1 0x0 PUSH1 0x20 DUP3 ADD SWAP1 POP PUSH3 0x483 PUSH1 0x0 DUP4 ADD DUP5 PUSH3 0x45B JUMP JUMPDEST SWAP3 SWAP2 POP POP JUMP JUMPDEST PUSH1 0x0 DUP3 DUP3 MSTORE PUSH1 0x20 DUP3 ADD SWAP1 POP SWAP3 SWAP2 POP POP JUMP JUMPDEST PUSH32 0x496E76616C696420555344432061646472657373000000000000000000000000 PUSH1 0x0 DUP3 ADD MSTORE POP JUMP JUMPDEST PUSH1 0x0 PUSH3 0x4D2 PUSH1 0x14 DUP4 PUSH3 0x489 JUMP JUMPDEST SWAP2 POP PUSH3 0x4DF DUP3 PUSH3 0x49A JUMP JUMPDEST PUSH1 0x20 DUP3 ADD SWAP1 POP SWAP2 SWAP1 POP JUMP JUMPDEST PUSH1 0x0 PUSH1 0x20 DUP3 ADD SWAP1 POP DUP2 DUP2 SUB PUSH1 0x0 DUP4 ADD MSTORE PUSH3 0x505 DUP2 PUSH3 0x4C3 JUMP JUMPDEST SWAP1 POP SWAP2 SWAP1 POP JUMP JUMPDEST PUSH32 0x496E76616C696420504550552061646472657373000000000000000000000000 PUSH1 0x0 DUP3 ADD MSTORE POP JUMP JUMPDEST PUSH1 0x0 PUSH3 0x544 PUSH1 0x14 DUP4 PUSH3 0x489 JUMP JUMPDEST SWAP2 POP PUSH3 0x551 DUP3 PUSH3 0x50C JUMP JUMPDEST PUSH1 0x20 DUP3 ADD SWAP1 POP SWAP2 SWAP1 POP JUMP JUMPDEST PUSH1 0x0 PUSH1 0x20 DUP3 ADD SWAP1 POP DUP2 DUP2 SUB PUSH1 0x0 DUP4 ADD MSTORE PUSH3 0x577 DUP2 PUSH3 0x535 JUMP JUMPDEST SWAP1 POP SWAP2 SWAP1 POP JUMP JUMPDEST PUSH32 0x496E76616C696420766572696669657220616464726573730000000000000000 PUSH1 0x0 DUP3 ADD MSTORE POP JUMP JUMPDEST PUSH1 0x0 PUSH3 0x5B6 PUSH1 0x18 DUP4 PUSH3 0x489 JUMP JUMPDEST SWAP2 POP PUSH3 0x5C3 DUP3 PUSH3 0x57E JUMP JUMPDEST PUSH1 0x20 DUP3 ADD SWAP1 POP SWAP2 SWAP1 POP JUMP JUMPDEST PUSH1 0x0 PUSH1 0x20 DUP3 ADD SWAP1 POP DUP2 DUP2 SUB PUSH1 0x0 DUP4 ADD MSTORE PUSH3 0x5E9 DUP2 PUSH3 0x5A7 JUMP JUMPDEST SWAP1 POP SWAP2 SWAP1 POP JUMP JUMPDEST PUSH1 0x80 MLOAD PUSH1 0xA0 MLOAD PUSH1 0xC0 MLOAD PUSH2 0x41E8 PUSH3 0x658 PUSH1 0x0 CODECOPY PUSH1 0x0 DUP2 DUP2 PUSH2 0xBCE ADD MSTORE DUP2 DUP2 PUSH2 0x149E ADD MSTORE PUSH2 0x2171 ADD MSTORE PUSH1 0x0 DUP2 DUP2 PUSH2 0x67E ADD MSTORE DUP2 DUP2 PUSH2 0x1989 ADD MSTORE DUP2 DUP2 PUSH2 0x1A49 ADD MSTORE PUSH2 0x1B08 ADD MSTORE PUSH1 0x0 DUP2 DUP2 PUSH2 0xF28 ADD MSTORE DUP2 DUP2 PUSH2 0xFE8 ADD MSTORE DUP2 DUP2 PUSH2 0x10A7 ADD MSTORE PUSH2 0x2147 ADD MSTORE PUSH2 0x41E8 PUSH1 0x0 RETURN INVALID PUSH1 0x80 PUSH1 0x40 MSTORE PUSH1 0x4 CALLDATASIZE LT PUSH2 0x14F JUMPI PUSH1 0x0 CALLDATALOAD PUSH1 0xE0 SHR DUP1 PUSH4 0x8D78735A GT PUSH2 0xB6 JUMPI DUP1 PUSH4 0xC7944CA1 GT PUSH2 0x6F JUMPI DUP1 PUSH4 0xC7944CA1 EQ PUSH2 0x459 JUMPI DUP1 PUSH4 0xD8A34405 EQ PUSH2 0x484 JUMPI DUP1 PUSH4 0xE086E5EC EQ PUSH2 0x4AF JUMPI DUP1 PUSH4 0xE2596CA3 EQ PUSH2 0x4C6 JUMPI DUP1 PUSH4 0xEF925399 EQ PUSH2 0x4EF JUMPI DUP1 PUSH4 0xF2FDE38B EQ PUSH2 0x52C JUMPI PUSH2 0x156 JUMP JUMPDEST DUP1 PUSH4 0x8D78735A EQ PUSH2 0x323 JUMPI DUP1 PUSH4 0x8DA5CB5B EQ PUSH2 0x34C JUMPI DUP1 PUSH4 0xAAF56CA5 EQ PUSH2 0x377 JUMPI DUP1 PUSH4 0xAC2CCD07 EQ PUSH2 0x3B4 JUMPI DUP1 PUSH4 0xB842EC44 EQ PUSH2 0x3F1 JUMPI DUP1 PUSH4 0xBB09D9B7 EQ PUSH2 0x42E JUMPI PUSH2 0x156 JUMP JUMPDEST DUP1 PUSH4 0x715018A6 GT PUSH2 0x108 JUMPI DUP1 PUSH4 0x715018A6 EQ PUSH2 0x251 JUMPI DUP1 PUSH4 0x7C9D5DE9 EQ PUSH2 0x268 JUMPI DUP1 PUSH4 0x81ABB055 EQ PUSH2 0x291 JUMPI DUP1 PUSH4 0x8438E7EA EQ PUSH2 0x2BA JUMPI DUP1 PUSH4 0x8456CB59 EQ PUSH2 0x2E3 JUMPI DUP1 PUSH4 0x89476069 EQ PUSH2 0x2FA JUMPI PUSH2 0x156 JUMP JUMPDEST DUP1 PUSH4 0x22236F4 EQ PUSH2 0x15B JUMPI DUP1 PUSH4 0x393FF74 EQ PUSH2 0x19D JUMPI DUP1 PUSH4 0xB6B7D9B EQ PUSH2 0x1C8 JUMPI DUP1 PUSH4 0x3F4BA83A EQ PUSH2 0x1F3 JUMPI DUP1 PUSH4 0x492CC769 EQ PUSH2 0x20A JUMPI DUP1 PUSH4 0x5C975ABB EQ PUSH2 0x226 JUMPI PUSH2 0x156 JUMP JUMPDEST CALLDATASIZE PUSH2 0x156 JUMPI STOP JUMPDEST PUSH1 0x0 DUP1 REVERT JUMPDEST CALLVALUE DUP1 ISZERO PUSH2 0x167 JUMPI PUSH1 0x0 DUP1 REVERT JUMPDEST POP PUSH2 0x182 PUSH1 0x4 DUP1 CALLDATASIZE SUB DUP2 ADD SWAP1 PUSH2 0x17D SWAP2 SWAP1 PUSH2 0x2C73 JUMP JUMPDEST PUSH2 0x555 JUMP JUMPDEST PUSH1 0x40 MLOAD PUSH2 0x194 SWAP7 SWAP6 SWAP5 SWAP4 SWAP3 SWAP2 SWAP1 PUSH2 0x2E0C JUMP JUMPDEST PUSH1 0x40 MLOAD DUP1 SWAP2 SUB SWAP1 RETURN JUMPDEST CALLVALUE DUP1 ISZERO PUSH2 0x1A9 JUMPI PUSH1 0x0 DUP1 REVERT JUMPDEST POP PUSH2 0x1B2 PUSH2 0x67C JUMP JUMPDEST PUSH1 0x40 MLOAD PUSH2 0x1BF SWAP2 SWAP1 PUSH2 0x2E74 JUMP JUMPDEST PUSH1 0x40 MLOAD DUP1 SWAP2 SUB SWAP1 RETURN JUMPDEST CALLVALUE DUP1 ISZERO PUSH2 0x1D4 JUMPI PUSH1 0x0 DUP1 REVERT JUMPDEST POP PUSH2 0x1DD PUSH2 0x6A0 JUMP JUMPDEST PUSH1 0x40 MLOAD PUSH2 0x1EA SWAP2 SWAP1 PUSH2 0x2E8F JUMP JUMPDEST PUSH1 0x40 MLOAD DUP1 SWAP2 SUB SWAP1 RETURN JUMPDEST CALLVALUE DUP1 ISZERO PUSH2 0x1FF JUMPI PUSH1 0x0 DUP1 REVERT JUMPDEST POP PUSH2 0x208 PUSH2 0x6A6 JUMP JUMPDEST STOP JUMPDEST PUSH2 0x224 PUSH1 0x4 DUP1 CALLDATASIZE SUB DUP2 ADD SWAP1 PUSH2 0x21F SWAP2 SWAP1 PUSH2 0x2C73 JUMP JUMPDEST PUSH2 0x6B8 JUMP JUMPDEST STOP JUMPDEST CALLVALUE DUP1 ISZERO PUSH2 0x232 JUMPI PUSH1 0x0 DUP1 REVERT JUMPDEST POP PUSH2 0x23B PUSH2 0xAA0 JUMP JUMPDEST PUSH1 0x40 MLOAD PUSH2 0x248 SWAP2 SWAP1 PUSH2 0x2EC5 JUMP JUMPDEST PUSH1 0x40 MLOAD DUP1 SWAP2 SUB SWAP1 RETURN JUMPDEST CALLVALUE DUP1 ISZERO PUSH2 0x25D JUMPI PUSH1 0x0 DUP1 REVERT JUMPDEST POP PUSH2 0x266 PUSH2 0xAB7 JUMP JUMPDEST STOP JUMPDEST CALLVALUE DUP1 ISZERO PUSH2 0x274 JUMPI PUSH1 0x0 DUP1 REVERT JUMPDEST POP PUSH2 0x28F PUSH1 0x4 DUP1 CALLDATASIZE SUB DUP2 ADD SWAP1 PUSH2 0x28A SWAP2 SWAP1 PUSH2 0x2C73 JUMP JUMPDEST PUSH2 0xACB JUMP JUMPDEST STOP JUMPDEST CALLVALUE DUP1 ISZERO PUSH2 0x29D JUMPI PUSH1 0x0 DUP1 REVERT JUMPDEST POP PUSH2 0x2B8 PUSH1 0x4 DUP1 CALLDATASIZE SUB DUP2 ADD SWAP1 PUSH2 0x2B3 SWAP2 SWAP1 PUSH2 0x2F0C JUMP JUMPDEST PUSH2 0xED3 JUMP JUMPDEST STOP JUMPDEST CALLVALUE DUP1 ISZERO PUSH2 0x2C6 JUMPI PUSH1 0x0 DUP1 REVERT JUMPDEST POP PUSH2 0x2E1 PUSH1 0x4 DUP1 CALLDATASIZE SUB DUP2 ADD SWAP1 PUSH2 0x2DC SWAP2 SWAP1 PUSH2 0x2C73 JUMP JUMPDEST PUSH2 0x139B JUMP JUMPDEST STOP JUMPDEST CALLVALUE DUP1 ISZERO PUSH2 0x2EF JUMPI PUSH1 0x0 DUP1 REVERT JUMPDEST POP PUSH2 0x2F8 PUSH2 0x17CF JUMP JUMPDEST STOP JUMPDEST CALLVALUE DUP1 ISZERO PUSH2 0x306 JUMPI PUSH1 0x0 DUP1 REVERT JUMPDEST POP PUSH2 0x321 PUSH1 0x4 DUP1 CALLDATASIZE SUB DUP2 ADD SWAP1 PUSH2 0x31C SWAP2 SWAP1 PUSH2 0x2F94 JUMP JUMPDEST PUSH2 0x17E1 JUMP JUMPDEST STOP JUMPDEST CALLVALUE DUP1 ISZERO PUSH2 0x32F JUMPI PUSH1 0x0 DUP1 REVERT JUMPDEST POP PUSH2 0x34A PUSH1 0x4 DUP1 CALLDATASIZE SUB DUP2 ADD SWAP1 PUSH2 0x345 SWAP2 SWAP1 PUSH2 0x2F0C JUMP JUMPDEST PUSH2 0x1934 JUMP JUMPDEST STOP JUMPDEST CALLVALUE DUP1 ISZERO PUSH2 0x358 JUMPI PUSH1 0x0 DUP1 REVERT JUMPDEST POP PUSH2 0x361 PUSH2 0x1DFC JUMP JUMPDEST PUSH1 0x40 MLOAD PUSH2 0x36E SWAP2 SWAP1 PUSH2 0x2E74 JUMP JUMPDEST PUSH1 0x40 MLOAD DUP1 SWAP2 SUB SWAP1 RETURN JUMPDEST CALLVALUE DUP1 ISZERO PUSH2 0x383 JUMPI PUSH1 0x0 DUP1 REVERT JUMPDEST POP PUSH2 0x39E PUSH1 0x4 DUP1 CALLDATASIZE SUB DUP2 ADD SWAP1 PUSH2 0x399 SWAP2 SWAP1 PUSH2 0x2C73 JUMP JUMPDEST PUSH2 0x1E26 JUMP JUMPDEST PUSH1 0x40 MLOAD PUSH2 0x3AB SWAP2 SWAP1 PUSH2 0x2EC5 JUMP JUMPDEST PUSH1 0x40 MLOAD DUP1 SWAP2 SUB SWAP1 RETURN JUMPDEST CALLVALUE DUP1 ISZERO PUSH2 0x3C0 JUMPI PUSH1 0x0 DUP1 REVERT JUMPDEST POP PUSH2 0x3DB PUSH1 0x4 DUP1 CALLDATASIZE SUB DUP2 ADD SWAP1 PUSH2 0x3D6 SWAP2 SWAP1 PUSH2 0x2C73 JUMP JUMPDEST PUSH2 0x1E5C JUMP JUMPDEST PUSH1 0x40 MLOAD PUSH2 0x3E8 SWAP2 SWAP1 PUSH2 0x30C1 JUMP JUMPDEST PUSH1 0x40 MLOAD DUP1 SWAP2 SUB SWAP1 RETURN JUMPDEST CALLVALUE DUP1 ISZERO PUSH2 0x3FD JUMPI PUSH1 0x0 DUP1 REVERT JUMPDEST POP PUSH2 0x418 PUSH1 0x4 DUP1 CALLDATASIZE SUB DUP2 ADD SWAP1 PUSH2 0x413 SWAP2 SWAP1 PUSH2 0x30E3 JUMP JUMPDEST PUSH2 0x208C JUMP JUMPDEST PUSH1 0x40 MLOAD PUSH2 0x425 SWAP2 SWAP1 PUSH2 0x3123 JUMP JUMPDEST PUSH1 0x40 MLOAD DUP1 SWAP2 SUB SWAP1 RETURN JUMPDEST CALLVALUE DUP1 ISZERO PUSH2 0x43A JUMPI PUSH1 0x0 DUP1 REVERT JUMPDEST POP PUSH2 0x443 PUSH2 0x2145 JUMP JUMPDEST PUSH1 0x40 MLOAD PUSH2 0x450 SWAP2 SWAP1 PUSH2 0x2E74 JUMP JUMPDEST PUSH1 0x40 MLOAD DUP1 SWAP2 SUB SWAP1 RETURN JUMPDEST CALLVALUE DUP1 ISZERO PUSH2 0x465 JUMPI PUSH1 0x0 DUP1 REVERT JUMPDEST POP PUSH2 0x46E PUSH2 0x2169 JUMP JUMPDEST PUSH1 0x40 MLOAD PUSH2 0x47B SWAP2 SWAP1 PUSH2 0x2E8F JUMP JUMPDEST PUSH1 0x40 MLOAD DUP1 SWAP2 SUB SWAP1 RETURN JUMPDEST CALLVALUE DUP1 ISZERO PUSH2 0x490 JUMPI PUSH1 0x0 DUP1 REVERT JUMPDEST POP PUSH2 0x499 PUSH2 0x216F JUMP JUMPDEST PUSH1 0x40 MLOAD PUSH2 0x4A6 SWAP2 SWAP1 PUSH2 0x2E74 JUMP JUMPDEST PUSH1 0x40 MLOAD DUP1 SWAP2 SUB SWAP1 RETURN JUMPDEST CALLVALUE DUP1 ISZERO PUSH2 0x4BB JUMPI PUSH1 0x0 DUP1 REVERT JUMPDEST POP PUSH2 0x4C4 PUSH2 0x2193 JUMP JUMPDEST STOP JUMPDEST CALLVALUE DUP1 ISZERO PUSH2 0x4D2 JUMPI PUSH1 0x0 DUP1 REVERT JUMPDEST POP PUSH2 0x4ED PUSH1 0x4 DUP1 CALLDATASIZE SUB DUP2 ADD SWAP1 PUSH2 0x4E8 SWAP2 SWAP1 PUSH2 0x3145 JUMP JUMPDEST PUSH2 0x2234 JUMP JUMPDEST STOP JUMPDEST CALLVALUE DUP1 ISZERO PUSH2 0x4FB JUMPI PUSH1 0x0 DUP1 REVERT JUMPDEST POP PUSH2 0x516 PUSH1 0x4 DUP1 CALLDATASIZE SUB DUP2 ADD SWAP1 PUSH2 0x511 SWAP2 SWAP1 PUSH2 0x2F94 JUMP JUMPDEST PUSH2 0x22CC JUMP JUMPDEST PUSH1 0x40 MLOAD PUSH2 0x523 SWAP2 SWAP1 PUSH2 0x3234 JUMP JUMPDEST PUSH1 0x40 MLOAD DUP1 SWAP2 SUB SWAP1 RETURN JUMPDEST CALLVALUE DUP1 ISZERO PUSH2 0x538 JUMPI PUSH1 0x0 DUP1 REVERT JUMPDEST POP PUSH2 0x553 PUSH1 0x4 DUP1 CALLDATASIZE SUB DUP2 ADD SWAP1 PUSH2 0x54E SWAP2 SWAP1 PUSH2 0x2F94 JUMP JUMPDEST PUSH2 0x23E4 JUMP JUMPDEST STOP JUMPDEST PUSH1 0x3 DUP2 DUP1 MLOAD PUSH1 0x20 DUP2 ADD DUP3 ADD DUP1 MLOAD DUP5 DUP3 MSTORE PUSH1 0x20 DUP4 ADD PUSH1 0x20 DUP6 ADD KECCAK256 DUP2 DUP4 MSTORE DUP1 SWAP6 POP POP POP POP POP POP PUSH1 0x0 SWAP2 POP SWAP1 POP DUP1 PUSH1 0x0 ADD PUSH1 0x0 SWAP1 SLOAD SWAP1 PUSH2 0x100 EXP SWAP1 DIV PUSH20 0xFFFFFFFFFFFFFFFFFFFFFFFFFFFFFFFFFFFFFFFF AND SWAP1 DUP1 PUSH1 0x1 ADD PUSH1 0x0 SWAP1 SLOAD SWAP1 PUSH2 0x100 EXP SWAP1 DIV PUSH20 0xFFFFFFFFFFFFFFFFFFFFFFFFFFFFFFFFFFFFFFFF AND SWAP1 DUP1 PUSH1 0x2 ADD SLOAD SWAP1 DUP1 PUSH1 0x3 ADD SLOAD SWAP1 DUP1 PUSH1 0x4 ADD PUSH1 0x0 SWAP1 SLOAD SWAP1 PUSH2 0x100 EXP SWAP1 DIV PUSH1 0xFF AND SWAP1 DUP1 PUSH1 0x5 ADD DUP1 SLOAD PUSH2 0x5F9 SWAP1 PUSH2 0x3285 JUMP JUMPDEST DUP1 PUSH1 0x1F ADD PUSH1 0x20 DUP1 SWAP2 DIV MUL PUSH1 0x20 ADD PUSH1 0x40 MLOAD SWAP1 DUP2 ADD PUSH1 0x40 MSTORE DUP1 SWAP3 SWAP2 SWAP1 DUP2 DUP2 MSTORE PUSH1 0x20 ADD DUP3 DUP1 SLOAD PUSH2 0x625 SWAP1 PUSH2 0x3285 JUMP JUMPDEST DUP1 ISZERO PUSH2 0x672 JUMPI DUP1 PUSH1 0x1F LT PUSH2 0x647 JUMPI PUSH2 0x100 DUP1 DUP4 SLOAD DIV MUL DUP4 MSTORE SWAP2 PUSH1 0x20 ADD SWAP2 PUSH2 0x672 JUMP JUMPDEST DUP3 ADD SWAP2 SWAP1 PUSH1 0x0 MSTORE PUSH1 0x20 PUSH1 0x0 KECCAK256 SWAP1 JUMPDEST DUP2 SLOAD DUP2 MSTORE SWAP1 PUSH1 0x1 ADD SWAP1 PUSH1 0x20 ADD DUP1 DUP4 GT PUSH2 0x655 JUMPI DUP3 SWAP1 SUB PUSH1 0x1F AND DUP3 ADD SWAP2 JUMPDEST POP POP POP POP POP SWAP1 POP DUP7 JUMP JUMPDEST PUSH32 0x0 DUP2 JUMP JUMPDEST PUSH1 0x6 SLOAD DUP2 JUMP JUMPDEST PUSH2 0x6AE PUSH2 0x246A JUMP JUMPDEST PUSH2 0x6B6 PUSH2 0x24F1 JUMP JUMPDEST JUMP JUMPDEST PUSH2 0x6C0 PUSH2 0x2554 JUMP JUMPDEST PUSH2 0x6C8 PUSH2 0x259A JUMP JUMPDEST PUSH1 0x0 CALLVALUE GT PUSH2 0x70B JUMPI PUSH1 0x40 MLOAD PUSH32 0x8C379A000000000000000000000000000000000000000000000000000000000 DUP2 MSTORE PUSH1 0x4 ADD PUSH2 0x702 SWAP1 PUSH2 0x3302 JUMP JUMPDEST PUSH1 0x40 MLOAD DUP1 SWAP2 SUB SWAP1 REVERT JUMPDEST PUSH1 0x2 PUSH1 0x0 DUP2 SLOAD DUP1 SWAP3 SWAP2 SWAP1 PUSH2 0x71E SWAP1 PUSH2 0x3351 JUMP JUMPDEST SWAP2 SWAP1 POP SSTORE POP PUSH1 0x0 PUSH2 0x735 CALLER CALLVALUE PUSH1 0x0 PUSH1 0x2 SLOAD TIMESTAMP PUSH2 0x25DB JUMP JUMPDEST SWAP1 POP PUSH1 0x4 DUP2 PUSH1 0x40 MLOAD PUSH2 0x747 SWAP2 SWAP1 PUSH2 0x33D5 JUMP JUMPDEST SWAP1 DUP2 MSTORE PUSH1 0x20 ADD PUSH1 0x40 MLOAD DUP1 SWAP2 SUB SWAP1 KECCAK256 PUSH1 0x0 SWAP1 SLOAD SWAP1 PUSH2 0x100 EXP SWAP1 DIV PUSH1 0xFF AND ISZERO PUSH2 0x7A3 JUMPI PUSH1 0x40 MLOAD PUSH32 0x8C379A000000000000000000000000000000000000000000000000000000000 DUP2 MSTORE PUSH1 0x4 ADD PUSH2 0x79A SWAP1 PUSH2 0x3438 JUMP JUMPDEST PUSH1 0x40 MLOAD DUP1 SWAP2 SUB SWAP1 REVERT JUMPDEST PUSH1 0x40 MLOAD DUP1 PUSH1 0xC0 ADD PUSH1 0x40 MSTORE DUP1 CALLER PUSH20 0xFFFFFFFFFFFFFFFFFFFFFFFFFFFFFFFFFFFFFFFF AND DUP2 MSTORE PUSH1 0x20 ADD PUSH1 0x0 PUSH20 0xFFFFFFFFFFFFFFFFFFFFFFFFFFFFFFFFFFFFFFFF AND DUP2 MSTORE PUSH1 0x20 ADD CALLVALUE DUP2 MSTORE PUSH1 0x20 ADD TIMESTAMP DUP2 MSTORE PUSH1 0x20 ADD PUSH1 0x0 PUSH1 0x2 DUP2 GT ISZERO PUSH2 0x807 JUMPI PUSH2 0x806 PUSH2 0x2D16 JUMP JUMPDEST JUMPDEST DUP2 MSTORE PUSH1 0x20 ADD PUSH1 0x40 MLOAD DUP1 PUSH1 0x40 ADD PUSH1 0x40 MSTORE DUP1 PUSH1 0x3 DUP2 MSTORE PUSH1 0x20 ADD PUSH32 0x4554480000000000000000000000000000000000000000000000000000000000 DUP2 MSTORE POP DUP2 MSTORE POP PUSH1 0x3 DUP3 PUSH1 0x40 MLOAD PUSH2 0x855 SWAP2 SWAP1 PUSH2 0x33D5 JUMP JUMPDEST SWAP1 DUP2 MSTORE PUSH1 0x20 ADD PUSH1 0x40 MLOAD DUP1 SWAP2 SUB SWAP1 KECCAK256 PUSH1 0x0 DUP3 ADD MLOAD DUP2 PUSH1 0x0 ADD PUSH1 0x0 PUSH2 0x100 EXP DUP2 SLOAD DUP2 PUSH20 0xFFFFFFFFFFFFFFFFFFFFFFFFFFFFFFFFFFFFFFFF MUL NOT AND SWAP1 DUP4 PUSH20 0xFFFFFFFFFFFFFFFFFFFFFFFFFFFFFFFFFFFFFFFF AND MUL OR SWAP1 SSTORE POP PUSH1 0x20 DUP3 ADD MLOAD DUP2 PUSH1 0x1 ADD PUSH1 0x0 PUSH2 0x100 EXP DUP2 SLOAD DUP2 PUSH20 0xFFFFFFFFFFFFFFFFFFFFFFFFFFFFFFFFFFFFFFFF MUL NOT AND SWAP1 DUP4 PUSH20 0xFFFFFFFFFFFFFFFFFFFFFFFFFFFFFFFFFFFFFFFF AND MUL OR SWAP1 SSTORE POP PUSH1 0x40 DUP3 ADD MLOAD DUP2 PUSH1 0x2 ADD SSTORE PUSH1 0x60 DUP3 ADD MLOAD DUP2 PUSH1 0x3 ADD SSTORE PUSH1 0x80 DUP3 ADD MLOAD DUP2 PUSH1 0x4 ADD PUSH1 0x0 PUSH2 0x100 EXP DUP2 SLOAD DUP2 PUSH1 0xFF MUL NOT AND SWAP1 DUP4 PUSH1 0x2 DUP2 GT ISZERO PUSH2 0x930 JUMPI PUSH2 0x92F PUSH2 0x2D16 JUMP JUMPDEST JUMPDEST MUL OR SWAP1 SSTORE POP PUSH1 0xA0 DUP3 ADD MLOAD DUP2 PUSH1 0x5 ADD SWAP1 DUP2 PUSH2 0x94A SWAP2 SWAP1 PUSH2 0x3604 JUMP JUMPDEST POP SWAP1 POP POP PUSH1 0x1 PUSH1 0x4 DUP3 PUSH1 0x40 MLOAD PUSH2 0x960 SWAP2 SWAP1 PUSH2 0x33D5 JUMP JUMPDEST SWAP1 DUP2 MSTORE PUSH1 0x20 ADD PUSH1 0x40 MLOAD DUP1 SWAP2 SUB SWAP1 KECCAK256 PUSH1 0x0 PUSH2 0x100 EXP DUP2 SLOAD DUP2 PUSH1 0xFF MUL NOT AND SWAP1 DUP4 ISZERO ISZERO MUL OR SWAP1 SSTORE POP PUSH1 0x5 PUSH1 0x0 CALLER PUSH20 0xFFFFFFFFFFFFFFFFFFFFFFFFFFFFFFFFFFFFFFFF AND PUSH20 0xFFFFFFFFFFFFFFFFFFFFFFFFFFFFFFFFFFFFFFFF AND DUP2 MSTORE PUSH1 0x20 ADD SWAP1 DUP2 MSTORE PUSH1 0x20 ADD PUSH1 0x0 KECCAK256 DUP2 SWAP1 DUP1 PUSH1 0x1 DUP2 SLOAD ADD DUP1 DUP3 SSTORE DUP1 SWAP2 POP POP PUSH1 0x1 SWAP1 SUB SWAP1 PUSH1 0x0 MSTORE PUSH1 0x20 PUSH1 0x0 KECCAK256 ADD PUSH1 0x0 SWAP1 SWAP2 SWAP1 SWAP2 SWAP1 SWAP2 POP SWAP1 DUP2 PUSH2 0x9F6 SWAP2 SWAP1 PUSH2 0x3604 JUMP JUMPDEST POP PUSH1 0x0 PUSH2 0x2710 PUSH1 0x6 SLOAD CALLVALUE PUSH2 0xA0A SWAP2 SWAP1 PUSH2 0x36D6 JUMP JUMPDEST PUSH2 0xA14 SWAP2 SWAP1 PUSH2 0x3747 JUMP JUMPDEST SWAP1 POP PUSH1 0x0 DUP2 CALLVALUE PUSH2 0xA24 SWAP2 SWAP1 PUSH2 0x3778 JUMP JUMPDEST SWAP1 POP CALLER PUSH20 0xFFFFFFFFFFFFFFFFFFFFFFFFFFFFFFFFFFFFFFFF AND DUP4 PUSH1 0x40 MLOAD PUSH2 0xA4B SWAP2 SWAP1 PUSH2 0x33D5 JUMP JUMPDEST PUSH1 0x40 MLOAD DUP1 SWAP2 SUB SWAP1 KECCAK256 PUSH32 0xBB405E64D023132FDEDADD5894071AB0BEF2541B2167AE22603E825AEA7A95B1 DUP7 CALLVALUE DUP7 DUP7 TIMESTAMP PUSH1 0x40 MLOAD PUSH2 0xA8A SWAP6 SWAP5 SWAP4 SWAP3 SWAP2 SWAP1 PUSH2 0x37F8 JUMP JUMPDEST PUSH1 0x40 MLOAD DUP1 SWAP2 SUB SWAP1 LOG3 POP POP POP PUSH2 0xA9D PUSH2 0x2637 JUMP JUMPDEST POP JUMP JUMPDEST PUSH1 0x0 PUSH1 0x1 PUSH1 0x14 SWAP1 SLOAD SWAP1 PUSH2 0x100 EXP SWAP1 DIV PUSH1 0xFF AND SWAP1 POP SWAP1 JUMP JUMPDEST PUSH2 0xABF PUSH2 0x246A JUMP JUMPDEST PUSH2 0xAC9 PUSH1 0x0 PUSH2 0x2641 JUMP JUMPDEST JUMP JUMPDEST DUP1 PUSH1 0x4 DUP2 PUSH1 0x40 MLOAD PUSH2 0xADC SWAP2 SWAP1 PUSH2 0x33D5 JUMP JUMPDEST SWAP1 DUP2 MSTORE PUSH1 0x20 ADD PUSH1 0x40 MLOAD DUP1 SWAP2 SUB SWAP1 KECCAK256 PUSH1 0x0 SWAP1 SLOAD SWAP1 PUSH2 0x100 EXP SWAP1 DIV PUSH1 0xFF AND PUSH2 0xB37 JUMPI PUSH1 0x40 MLOAD PUSH32 0x8C379A000000000000000000000000000000000000000000000000000000000 DUP2 MSTORE PUSH1 0x4 ADD PUSH2 0xB2E SWAP1 PUSH2 0x38B1 JUMP JUMPDEST PUSH1 0x40 MLOAD DUP1 SWAP2 SUB SWAP1 REVERT JUMPDEST PUSH1 0x0 PUSH1 0x2 DUP2 GT ISZERO PUSH2 0xB4B JUMPI PUSH2 0xB4A PUSH2 0x2D16 JUMP JUMPDEST JUMPDEST PUSH1 0x3 DUP3 PUSH1 0x40 MLOAD PUSH2 0xB5B SWAP2 SWAP1 PUSH2 0x33D5 JUMP JUMPDEST SWAP1 DUP2 MSTORE PUSH1 0x20 ADD PUSH1 0x40 MLOAD DUP1 SWAP2 SUB SWAP1 KECCAK256 PUSH1 0x4 ADD PUSH1 0x0 SWAP1 SLOAD SWAP1 PUSH2 0x100 EXP SWAP1 DIV PUSH1 0xFF AND PUSH1 0x2 DUP2 GT ISZERO PUSH2 0xB8C JUMPI PUSH2 0xB8B PUSH2 0x2D16 JUMP JUMPDEST JUMPDEST EQ PUSH2 0xBCC JUMPI PUSH1 0x40 MLOAD PUSH32 0x8C379A000000000000000000000000000000000000000000000000000000000 DUP2 MSTORE PUSH1 0x4 ADD PUSH2 0xBC3 SWAP1 PUSH2 0x391D JUMP JUMPDEST PUSH1 0x40 MLOAD DUP1 SWAP2 SUB SWAP1 REVERT JUMPDEST PUSH32 0x0 PUSH20 0xFFFFFFFFFFFFFFFFFFFFFFFFFFFFFFFFFFFFFFFF AND CALLER PUSH20 0xFFFFFFFFFFFFFFFFFFFFFFFFFFFFFFFFFFFFFFFF AND EQ PUSH2 0xC5A JUMPI PUSH1 0x40 MLOAD PUSH32 0x8C379A000000000000000000000000000000000000000000000000000000000 DUP2 MSTORE PUSH1 0x4 ADD PUSH2 0xC51 SWAP1 PUSH2 0x39AF JUMP JUMPDEST PUSH1 0x40 MLOAD DUP1 SWAP2 SUB SWAP1 REVERT JUMPDEST PUSH1 0x0 PUSH1 0x3 DUP4 PUSH1 0x40 MLOAD PUSH2 0xC6C SWAP2 SWAP1 PUSH2 0x33D5 JUMP JUMPDEST SWAP1 DUP2 MSTORE PUSH1 0x20 ADD PUSH1 0x40 MLOAD DUP1 SWAP2 SUB SWAP1 KECCAK256 SWAP1 POP PUSH1 0x2 DUP2 PUSH1 0x4 ADD PUSH1 0x0 PUSH2 0x100 EXP DUP2 SLOAD DUP2 PUSH1 0xFF MUL NOT AND SWAP1 DUP4 PUSH1 0x2 DUP2 GT ISZERO PUSH2 0xCA4 JUMPI PUSH2 0xCA3 PUSH2 0x2D16 JUMP JUMPDEST JUMPDEST MUL OR SWAP1 SSTORE POP PUSH1 0x40 MLOAD PUSH1 0x20 ADD PUSH2 0xCB8 SWAP1 PUSH2 0x39F2 JUMP JUMPDEST PUSH1 0x40 MLOAD PUSH1 0x20 DUP2 DUP4 SUB SUB DUP2 MSTORE SWAP1 PUSH1 0x40 MSTORE DUP1 MLOAD SWAP1 PUSH1 0x20 ADD KECCAK256 DUP2 PUSH1 0x5 ADD PUSH1 0x40 MLOAD PUSH1 0x20 ADD PUSH2 0xCE2 SWAP2 SWAP1 PUSH2 0x3A8A JUMP JUMPDEST PUSH1 0x40 MLOAD PUSH1 0x20 DUP2 DUP4 SUB SUB DUP2 MSTORE SWAP1 PUSH1 0x40 MSTORE DUP1 MLOAD SWAP1 PUSH1 0x20 ADD KECCAK256 SUB PUSH2 0xD71 JUMPI DUP1 PUSH1 0x0 ADD PUSH1 0x0 SWAP1 SLOAD SWAP1 PUSH2 0x100 EXP SWAP1 DIV PUSH20 0xFFFFFFFFFFFFFFFFFFFFFFFFFFFFFFFFFFFFFFFF AND PUSH20 0xFFFFFFFFFFFFFFFFFFFFFFFFFFFFFFFFFFFFFFFF AND PUSH2 0x8FC DUP3 PUSH1 0x2 ADD SLOAD SWAP1 DUP2 ISZERO MUL SWAP1 PUSH1 0x40 MLOAD PUSH1 0x0 PUSH1 0x40 MLOAD DUP1 DUP4 SUB DUP2 DUP6 DUP9 DUP9 CALL SWAP4 POP POP POP POP ISZERO DUP1 ISZERO PUSH2 0xD6B JUMPI RETURNDATASIZE PUSH1 0x0 DUP1 RETURNDATACOPY RETURNDATASIZE PUSH1 0x0 REVERT JUMPDEST POP PUSH2 0xE3D JUMP JUMPDEST DUP1 PUSH1 0x1 ADD PUSH1 0x0 SWAP1 SLOAD SWAP1 PUSH2 0x100 EXP SWAP1 DIV PUSH20 0xFFFFFFFFFFFFFFFFFFFFFFFFFFFFFFFFFFFFFFFF AND PUSH20 0xFFFFFFFFFFFFFFFFFFFFFFFFFFFFFFFFFFFFFFFF AND PUSH4 0xA9059CBB DUP3 PUSH1 0x0 ADD PUSH1 0x0 SWAP1 SLOAD SWAP1 PUSH2 0x100 EXP SWAP1 DIV PUSH20 0xFFFFFFFFFFFFFFFFFFFFFFFFFFFFFFFFFFFFFFFF AND DUP4 PUSH1 0x2 ADD SLOAD PUSH1 0x40 MLOAD DUP4 PUSH4 0xFFFFFFFF AND PUSH1 0xE0 SHL DUP2 MSTORE PUSH1 0x4 ADD PUSH2 0xDF8 SWAP3 SWAP2 SWAP1 PUSH2 0x3AA1 JUMP JUMPDEST PUSH1 0x20 PUSH1 0x40 MLOAD DUP1 DUP4 SUB DUP2 PUSH1 0x0 DUP8 GAS CALL ISZERO DUP1 ISZERO PUSH2 0xE17 JUMPI RETURNDATASIZE PUSH1 0x0 DUP1 RETURNDATACOPY RETURNDATASIZE PUSH1 0x0 REVERT JUMPDEST POP POP POP POP PUSH1 0x40 MLOAD RETURNDATASIZE PUSH1 0x1F NOT PUSH1 0x1F DUP3 ADD AND DUP3 ADD DUP1 PUSH1 0x40 MSTORE POP DUP2 ADD SWAP1 PUSH2 0xE3B SWAP2 SWAP1 PUSH2 0x3AF6 JUMP JUMPDEST POP JUMPDEST DUP1 PUSH1 0x0 ADD PUSH1 0x0 SWAP1 SLOAD SWAP1 PUSH2 0x100 EXP SWAP1 DIV PUSH20 0xFFFFFFFFFFFFFFFFFFFFFFFFFFFFFFFFFFFFFFFF AND PUSH20 0xFFFFFFFFFFFFFFFFFFFFFFFFFFFFFFFFFFFFFFFF AND DUP4 PUSH1 0x40 MLOAD PUSH2 0xE86 SWAP2 SWAP1 PUSH2 0x33D5 JUMP JUMPDEST PUSH1 0x40 MLOAD DUP1 SWAP2 SUB SWAP1 KECCAK256 PUSH32 0x75D4445D8D0034D1F0518918F4264C187D618C1C974E9640F50DFB4D7F7A8414 DUP4 PUSH1 0x2 ADD SLOAD DUP5 PUSH1 0x5 ADD PUSH1 0x40 MLOAD PUSH2 0xEC6 SWAP3 SWAP2 SWAP1 PUSH2 0x3BA7 JUMP JUMPDEST PUSH1 0x40 MLOAD DUP1 SWAP2 SUB SWAP1 LOG3 POP POP POP JUMP JUMPDEST PUSH2 0xEDB PUSH2 0x2554 JUMP JUMPDEST PUSH2 0xEE3 PUSH2 0x259A JUMP JUMPDEST PUSH1 0x0 DUP2 GT PUSH2 0xF26 JUMPI PUSH1 0x40 MLOAD PUSH32 0x8C379A000000000000000000000000000000000000000000000000000000000 DUP2 MSTORE PUSH1 0x4 ADD PUSH2 0xF1D SWAP1 PUSH2 0x3C23 JUMP JUMPDEST PUSH1 0x40 MLOAD DUP1 SWAP2 SUB SWAP1 REVERT JUMPDEST PUSH32 0x0 PUSH20 0xFFFFFFFFFFFFFFFFFFFFFFFFFFFFFFFFFFFFFFFF AND PUSH4 0x23B872DD CALLER ADDRESS DUP5 PUSH1 0x40 MLOAD DUP5 PUSH4 0xFFFFFFFF AND PUSH1 0xE0 SHL DUP2 MSTORE PUSH1 0x4 ADD PUSH2 0xF83 SWAP4 SWAP3 SWAP2 SWAP1 PUSH2 0x3C43 JUMP JUMPDEST PUSH1 0x20 PUSH1 0x40 MLOAD DUP1 DUP4 SUB DUP2 PUSH1 0x0 DUP8 GAS CALL ISZERO DUP1 ISZERO PUSH2 0xFA2 JUMPI RETURNDATASIZE PUSH1 0x0 DUP1 RETURNDATACOPY RETURNDATASIZE PUSH1 0x0 REVERT JUMPDEST POP POP POP POP PUSH1 0x40 MLOAD RETURNDATASIZE PUSH1 0x1F NOT PUSH1 0x1F DUP3 ADD AND DUP3 ADD DUP1 PUSH1 0x40 MSTORE POP DUP2 ADD SWAP1 PUSH2 0xFC6 SWAP2 SWAP1 PUSH2 0x3AF6 JUMP JUMPDEST POP PUSH1 0x2 PUSH1 0x0 DUP2 SLOAD DUP1 SWAP3 SWAP2 SWAP1 PUSH2 0xFDA SWAP1 PUSH2 0x3351 JUMP JUMPDEST SWAP2 SWAP1 POP SSTORE POP PUSH1 0x0 PUSH2 0x1010 CALLER DUP4 PUSH32 0x0 PUSH1 0x2 SLOAD TIMESTAMP PUSH2 0x25DB JUMP JUMPDEST SWAP1 POP PUSH1 0x4 DUP2 PUSH1 0x40 MLOAD PUSH2 0x1022 SWAP2 SWAP1 PUSH2 0x33D5 JUMP JUMPDEST SWAP1 DUP2 MSTORE PUSH1 0x20 ADD PUSH1 0x40 MLOAD DUP1 SWAP2 SUB SWAP1 KECCAK256 PUSH1 0x0 SWAP1 SLOAD SWAP1 PUSH2 0x100 EXP SWAP1 DIV PUSH1 0xFF AND ISZERO PUSH2 0x107E JUMPI PUSH1 0x40 MLOAD PUSH32 0x8C379A000000000000000000000000000000000000000000000000000000000 DUP2 MSTORE PUSH1 0x4 ADD PUSH2 0x1075 SWAP1 PUSH2 0x3438 JUMP JUMPDEST PUSH1 0x40 MLOAD DUP1 SWAP2 SUB SWAP1 REVERT JUMPDEST PUSH1 0x40 MLOAD DUP1 PUSH1 0xC0 ADD PUSH1 0x40 MSTORE DUP1 CALLER PUSH20 0xFFFFFFFFFFFFFFFFFFFFFFFFFFFFFFFFFFFFFFFF AND DUP2 MSTORE PUSH1 0x20 ADD PUSH32 0x0 PUSH20 0xFFFFFFFFFFFFFFFFFFFFFFFFFFFFFFFFFFFFFFFF AND DUP2 MSTORE PUSH1 0x20 ADD DUP4 DUP2 MSTORE PUSH1 0x20 ADD TIMESTAMP DUP2 MSTORE PUSH1 0x20 ADD PUSH1 0x0 PUSH1 0x2 DUP2 GT ISZERO PUSH2 0x1101 JUMPI PUSH2 0x1100 PUSH2 0x2D16 JUMP JUMPDEST JUMPDEST DUP2 MSTORE PUSH1 0x20 ADD PUSH1 0x40 MLOAD DUP1 PUSH1 0x40 ADD PUSH1 0x40 MSTORE DUP1 PUSH1 0x4 DUP2 MSTORE PUSH1 0x20 ADD PUSH32 0x5553444300000000000000000000000000000000000000000000000000000000 DUP2 MSTORE POP DUP2 MSTORE POP PUSH1 0x3 DUP3 PUSH1 0x40 MLOAD PUSH2 0x114F SWAP2 SWAP1 PUSH2 0x33D5 JUMP JUMPDEST SWAP1 DUP2 MSTORE PUSH1 0x20 ADD PUSH1 0x40 MLOAD DUP1 SWAP2 SUB SWAP1 KECCAK256 PUSH1 0x0 DUP3 ADD MLOAD DUP2 PUSH1 0x0 ADD PUSH1 0x0 PUSH2 0x100 EXP DUP2 SLOAD DUP2 PUSH20 0xFFFFFFFFFFFFFFFFFFFFFFFFFFFFFFFFFFFFFFFF MUL NOT AND SWAP1 DUP4 PUSH20 0xFFFFFFFFFFFFFFFFFFFFFFFFFFFFFFFFFFFFFFFF AND MUL OR SWAP1 SSTORE POP PUSH1 0x20 DUP3 ADD MLOAD DUP2 PUSH1 0x1 ADD PUSH1 0x0 PUSH2 0x100 EXP DUP2 SLOAD DUP2 PUSH20 0xFFFFFFFFFFFFFFFFFFFFFFFFFFFFFFFFFFFFFFFF MUL NOT AND SWAP1 DUP4 PUSH20 0xFFFFFFFFFFFFFFFFFFFFFFFFFFFFFFFFFFFFFFFF AND MUL OR SWAP1 SSTORE POP PUSH1 0x40 DUP3 ADD MLOAD DUP2 PUSH1 0x2 ADD SSTORE PUSH1 0x60 DUP3 ADD MLOAD DUP2 PUSH1 0x3 ADD SSTORE PUSH1 0x80 DUP3 ADD MLOAD DUP2 PUSH1 0x4 ADD PUSH1 0x0 PUSH2 0x100 EXP DUP2 SLOAD DUP2 PUSH1 0xFF MUL NOT AND SWAP1 DUP4 PUSH1 0x2 DUP2 GT ISZERO PUSH2 0x122A JUMPI PUSH2 0x1229 PUSH2 0x2D16 JUMP JUMPDEST JUMPDEST MUL OR SWAP1 SSTORE POP PUSH1 0xA0 DUP3 ADD MLOAD DUP2 PUSH1 0x5 ADD SWAP1 DUP2 PUSH2 0x1244 SWAP2 SWAP1 PUSH2 0x3604 JUMP JUMPDEST POP SWAP1 POP POP PUSH1 0x1 PUSH1 0x4 DUP3 PUSH1 0x40 MLOAD PUSH2 0x125A SWAP2 SWAP1 PUSH2 0x33D5 JUMP JUMPDEST SWAP1 DUP2 MSTORE PUSH1 0x20 ADD PUSH1 0x40 MLOAD DUP1 SWAP2 SUB SWAP1 KECCAK256 PUSH1 0x0 PUSH2 0x100 EXP DUP2 SLOAD DUP2 PUSH1 0xFF MUL NOT AND SWAP1 DUP4 ISZERO ISZERO MUL OR SWAP1 SSTORE POP PUSH1 0x5 PUSH1 0x0 CALLER PUSH20 0xFFFFFFFFFFFFFFFFFFFFFFFFFFFFFFFFFFFFFFFF AND PUSH20 0xFFFFFFFFFFFFFFFFFFFFFFFFFFFFFFFFFFFFFFFF AND DUP2 MSTORE PUSH1 0x20 ADD SWAP1 DUP2 MSTORE PUSH1 0x20 ADD PUSH1 0x0 KECCAK256 DUP2 SWAP1 DUP1 PUSH1 0x1 DUP2 SLOAD ADD DUP1 DUP3 SSTORE DUP1 SWAP2 POP POP PUSH1 0x1 SWAP1 SUB SWAP1 PUSH1 0x0 MSTORE PUSH1 0x20 PUSH1 0x0 KECCAK256 ADD PUSH1 0x0 SWAP1 SWAP2 SWAP1 SWAP2 SWAP1 SWAP2 POP SWAP1 DUP2 PUSH2 0x12F0 SWAP2 SWAP1 PUSH2 0x3604 JUMP JUMPDEST POP PUSH1 0x0 PUSH2 0x2710 PUSH1 0x6 SLOAD DUP5 PUSH2 0x1304 SWAP2 SWAP1 PUSH2 0x36D6 JUMP JUMPDEST PUSH2 0x130E SWAP2 SWAP1 PUSH2 0x3747 JUMP JUMPDEST SWAP1 POP PUSH1 0x0 DUP2 DUP5 PUSH2 0x131E SWAP2 SWAP1 PUSH2 0x3778 JUMP JUMPDEST SWAP1 POP CALLER PUSH20 0xFFFFFFFFFFFFFFFFFFFFFFFFFFFFFFFFFFFFFFFF AND DUP4 PUSH1 0x40 MLOAD PUSH2 0x1345 SWAP2 SWAP1 PUSH2 0x33D5 JUMP JUMPDEST PUSH1 0x40 MLOAD DUP1 SWAP2 SUB SWAP1 KECCAK256 PUSH32 0xBB405E64D023132FDEDADD5894071AB0BEF2541B2167AE22603E825AEA7A95B1 DUP8 DUP8 DUP7 DUP7 TIMESTAMP PUSH1 0x40 MLOAD PUSH2 0x1384 SWAP6 SWAP5 SWAP4 SWAP3 SWAP2 SWAP1 PUSH2 0x3CC6 JUMP JUMPDEST PUSH1 0x40 MLOAD DUP1 SWAP2 SUB SWAP1 LOG3 POP POP POP PUSH2 0x1397 PUSH2 0x2637 JUMP JUMPDEST POP POP JUMP JUMPDEST DUP1 PUSH1 0x4 DUP2 PUSH1 0x40 MLOAD PUSH2 0x13AC SWAP2 SWAP1 PUSH2 0x33D5 JUMP JUMPDEST SWAP1 DUP2 MSTORE PUSH1 0x20 ADD PUSH1 0x40 MLOAD DUP1 SWAP2 SUB SWAP1 KECCAK256 PUSH1 0x0 SWAP1 SLOAD SWAP1 PUSH2 0x100 EXP SWAP1 DIV PUSH1 0xFF AND PUSH2 0x1407 JUMPI PUSH1 0x40 MLOAD PUSH32 0x8C379A000000000000000000000000000000000000000000000000000000000 DUP2 MSTORE PUSH1 0x4 ADD PUSH2 0x13FE SWAP1 PUSH2 0x38B1 JUMP JUMPDEST PUSH1 0x40 MLOAD DUP1 SWAP2 SUB SWAP1 REVERT JUMPDEST PUSH1 0x0 PUSH1 0x2 DUP2 GT ISZERO PUSH2 0x141B JUMPI PUSH2 0x141A PUSH2 0x2D16 JUMP JUMPDEST JUMPDEST PUSH1 0x3 DUP3 PUSH1 0x40 MLOAD PUSH2 0x142B SWAP2 SWAP1 PUSH2 0x33D5 JUMP JUMPDEST SWAP1 DUP2 MSTORE PUSH1 0x20 ADD PUSH1 0x40 MLOAD DUP1 SWAP2 SUB SWAP1 KECCAK256 PUSH1 0x4 ADD PUSH1 0x0 SWAP1 SLOAD SWAP1 PUSH2 0x100 EXP SWAP1 DIV PUSH1 0xFF AND PUSH1 0x2 DUP2 GT ISZERO PUSH2 0x145C JUMPI PUSH2 0x145B PUSH2 0x2D16 JUMP JUMPDEST JUMPDEST EQ PUSH2 0x149C JUMPI PUSH1 0x40 MLOAD PUSH32 0x8C379A000000000000000000000000000000000000000000000000000000000 DUP2 MSTORE PUSH1 0x4 ADD PUSH2 0x1493 SWAP1 PUSH2 0x391D JUMP JUMPDEST PUSH1 0x40 MLOAD DUP1 SWAP2 SUB SWAP1 REVERT JUMPDEST PUSH32 0x0 PUSH20 0xFFFFFFFFFFFFFFFFFFFFFFFFFFFFFFFFFFFFFFFF AND CALLER PUSH20 0xFFFFFFFFFFFFFFFFFFFFFFFFFFFFFFFFFFFFFFFF AND EQ PUSH2 0x152A JUMPI PUSH1 0x40 MLOAD PUSH32 0x8C379A000000000000000000000000000000000000000000000000000000000 DUP2 MSTORE PUSH1 0x4 ADD PUSH2 0x1521 SWAP1 PUSH2 0x39AF JUMP JUMPDEST PUSH1 0x40 MLOAD DUP1 SWAP2 SUB SWAP1 REVERT JUMPDEST PUSH1 0x0 PUSH1 0x3 DUP4 PUSH1 0x40 MLOAD PUSH2 0x153C SWAP2 SWAP1 PUSH2 0x33D5 JUMP JUMPDEST SWAP1 DUP2 MSTORE PUSH1 0x20 ADD PUSH1 0x40 MLOAD DUP1 SWAP2 SUB SWAP1 KECCAK256 SWAP1 POP PUSH1 0x1 DUP2 PUSH1 0x4 ADD PUSH1 0x0 PUSH2 0x100 EXP DUP2 SLOAD DUP2 PUSH1 0xFF MUL NOT AND SWAP1 DUP4 PUSH1 0x2 DUP2 GT ISZERO PUSH2 0x1574 JUMPI PUSH2 0x1573 PUSH2 0x2D16 JUMP JUMPDEST JUMPDEST MUL OR SWAP1 SSTORE POP PUSH1 0x40 MLOAD PUSH1 0x20 ADD PUSH2 0x1588 SWAP1 PUSH2 0x39F2 JUMP JUMPDEST PUSH1 0x40 MLOAD PUSH1 0x20 DUP2 DUP4 SUB SUB DUP2 MSTORE SWAP1 PUSH1 0x40 MSTORE DUP1 MLOAD SWAP1 PUSH1 0x20 ADD KECCAK256 DUP2 PUSH1 0x5 ADD PUSH1 0x40 MLOAD PUSH1 0x20 ADD PUSH2 0x15B2 SWAP2 SWAP1 PUSH2 0x3A8A JUMP JUMPDEST PUSH1 0x40 MLOAD PUSH1 0x20 DUP2 DUP4 SUB SUB DUP2 MSTORE SWAP1 PUSH1 0x40 MSTORE DUP1 MLOAD SWAP1 PUSH1 0x20 ADD KECCAK256 SUB PUSH2 0x168A JUMPI PUSH1 0x0 PUSH2 0x15D7 PUSH2 0x1DFC JUMP JUMPDEST PUSH20 0xFFFFFFFFFFFFFFFFFFFFFFFFFFFFFFFFFFFFFFFF AND DUP3 PUSH1 0x2 ADD SLOAD PUSH1 0x40 MLOAD PUSH2 0x15FE SWAP1 PUSH2 0x3D64 JUMP JUMPDEST PUSH1 0x0 PUSH1 0x40 MLOAD DUP1 DUP4 SUB DUP2 DUP6 DUP8 GAS CALL SWAP3 POP POP POP RETURNDATASIZE DUP1 PUSH1 0x0 DUP2 EQ PUSH2 0x163B JUMPI PUSH1 0x40 MLOAD SWAP2 POP PUSH1 0x1F NOT PUSH1 0x3F RETURNDATASIZE ADD AND DUP3 ADD PUSH1 0x40 MSTORE RETURNDATASIZE DUP3 MSTORE RETURNDATASIZE PUSH1 0x0 PUSH1 0x20 DUP5 ADD RETURNDATACOPY PUSH2 0x1640 JUMP JUMPDEST PUSH1 0x60 SWAP2 POP JUMPDEST POP POP SWAP1 POP DUP1 PUSH2 0x1684 JUMPI PUSH1 0x40 MLOAD PUSH32 0x8C379A000000000000000000000000000000000000000000000000000000000 DUP2 MSTORE PUSH1 0x4 ADD PUSH2 0x167B SWAP1 PUSH2 0x3DC5 JUMP JUMPDEST PUSH1 0x40 MLOAD DUP1 SWAP2 SUB SWAP1 REVERT JUMPDEST POP PUSH2 0x1739 JUMP JUMPDEST DUP1 PUSH1 0x1 ADD PUSH1 0x0 SWAP1 SLOAD SWAP1 PUSH2 0x100 EXP SWAP1 DIV PUSH20 0xFFFFFFFFFFFFFFFFFFFFFFFFFFFFFFFFFFFFFFFF AND PUSH20 0xFFFFFFFFFFFFFFFFFFFFFFFFFFFFFFFFFFFFFFFF AND PUSH4 0xA9059CBB PUSH2 0x16D2 PUSH2 0x1DFC JUMP JUMPDEST DUP4 PUSH1 0x2 ADD SLOAD PUSH1 0x40 MLOAD DUP4 PUSH4 0xFFFFFFFF AND PUSH1 0xE0 SHL DUP2 MSTORE PUSH1 0x4 ADD PUSH2 0x16F4 SWAP3 SWAP2 SWAP1 PUSH2 0x3AA1 JUMP JUMPDEST PUSH1 0x20 PUSH1 0x40 MLOAD DUP1 DUP4 SUB DUP2 PUSH1 0x0 DUP8 GAS CALL ISZERO DUP1 ISZERO PUSH2 0x1713 JUMPI RETURNDATASIZE PUSH1 0x0 DUP1 RETURNDATACOPY RETURNDATASIZE PUSH1 0x0 REVERT JUMPDEST POP POP POP POP PUSH1 0x40 MLOAD RETURNDATASIZE PUSH1 0x1F NOT PUSH1 0x1F DUP3 ADD AND DUP3 ADD DUP1 PUSH1 0x40 MSTORE POP DUP2 ADD SWAP1 PUSH2 0x1737 SWAP2 SWAP1 PUSH2 0x3AF6 JUMP JUMPDEST POP JUMPDEST DUP1 PUSH1 0x0 ADD PUSH1 0x0 SWAP1 SLOAD SWAP1 PUSH2 0x100 EXP SWAP1 DIV PUSH20 0xFFFFFFFFFFFFFFFFFFFFFFFFFFFFFFFFFFFFFFFF AND PUSH20 0xFFFFFFFFFFFFFFFFFFFFFFFFFFFFFFFFFFFFFFFF AND DUP4 PUSH1 0x40 MLOAD PUSH2 0x1782 SWAP2 SWAP1 PUSH2 0x33D5 JUMP JUMPDEST PUSH1 0x40 MLOAD DUP1 SWAP2 SUB SWAP1 KECCAK256 PUSH32 0x3C7C8AEDD70D2B58F7125CEA577394E13DDBD238C5D7847E8D0B6E59DC82F3A DUP4 PUSH1 0x2 ADD SLOAD DUP5 PUSH1 0x5 ADD PUSH1 0x40 MLOAD PUSH2 0x17C2 SWAP3 SWAP2 SWAP1 PUSH2 0x3BA7 JUMP JUMPDEST PUSH1 0x40 MLOAD DUP1 SWAP2 SUB SWAP1 LOG3 POP POP POP JUMP JUMPDEST PUSH2 0x17D7 PUSH2 0x246A JUMP JUMPDEST PUSH2 0x17DF PUSH2 0x2707 JUMP JUMPDEST JUMP JUMPDEST PUSH2 0x17E9 PUSH2 0x246A JUMP JUMPDEST PUSH1 0x0 DUP2 PUSH20 0xFFFFFFFFFFFFFFFFFFFFFFFFFFFFFFFFFFFFFFFF AND PUSH4 0x70A08231 ADDRESS PUSH1 0x40 MLOAD DUP3 PUSH4 0xFFFFFFFF AND PUSH1 0xE0 SHL DUP2 MSTORE PUSH1 0x4 ADD PUSH2 0x1824 SWAP2 SWAP1 PUSH2 0x2E74 JUMP JUMPDEST PUSH1 0x20 PUSH1 0x40 MLOAD DUP1 DUP4 SUB DUP2 DUP7 GAS STATICCALL ISZERO DUP1 ISZERO PUSH2 0x1841 JUMPI RETURNDATASIZE PUSH1 0x0 DUP1 RETURNDATACOPY RETURNDATASIZE PUSH1 0x0 REVERT JUMPDEST POP POP POP POP PUSH1 0x40 MLOAD RETURNDATASIZE PUSH1 0x1F NOT PUSH1 0x1F DUP3 ADD AND DUP3 ADD DUP1 PUSH1 0x40 MSTORE POP DUP2 ADD SWAP1 PUSH2 0x1865 SWAP2 SWAP1 PUSH2 0x3DFA JUMP JUMPDEST SWAP1 POP PUSH1 0x0 DUP2 GT PUSH2 0x18AA JUMPI PUSH1 0x40 MLOAD PUSH32 0x8C379A000000000000000000000000000000000000000000000000000000000 DUP2 MSTORE PUSH1 0x4 ADD PUSH2 0x18A1 SWAP1 PUSH2 0x3E73 JUMP JUMPDEST PUSH1 0x40 MLOAD DUP1 SWAP2 SUB SWAP1 REVERT JUMPDEST DUP2 PUSH20 0xFFFFFFFFFFFFFFFFFFFFFFFFFFFFFFFFFFFFFFFF AND PUSH4 0xA9059CBB PUSH2 0x18CE PUSH2 0x1DFC JUMP JUMPDEST DUP4 PUSH1 0x40 MLOAD DUP4 PUSH4 0xFFFFFFFF AND PUSH1 0xE0 SHL DUP2 MSTORE PUSH1 0x4 ADD PUSH2 0x18EC SWAP3 SWAP2 SWAP1 PUSH2 0x3AA1 JUMP JUMPDEST PUSH1 0x20 PUSH1 0x40 MLOAD DUP1 DUP4 SUB DUP2 PUSH1 0x0 DUP8 GAS CALL ISZERO DUP1 ISZERO PUSH2 0x190B JUMPI RETURNDATASIZE PUSH1 0x0 DUP1 RETURNDATACOPY RETURNDATASIZE PUSH1 0x0 REVERT JUMPDEST POP POP POP POP PUSH1 0x40 MLOAD RETURNDATASIZE PUSH1 0x1F NOT PUSH1 0x1F DUP3 ADD AND DUP3 ADD DUP1 PUSH1 0x40 MSTORE POP DUP2 ADD SWAP1 PUSH2 0x192F SWAP2 SWAP1 PUSH2 0x3AF6 JUMP JUMPDEST POP POP POP JUMP JUMPDEST PUSH2 0x193C PUSH2 0x2554 JUMP JUMPDEST PUSH2 0x1944 PUSH2 0x259A JUMP JUMPDEST PUSH1 0x0 DUP2 GT PUSH2 0x1987 JUMPI PUSH1 0x40 MLOAD PUSH32 0x8C379A000000000000000000000000000000000000000000000000000000000 DUP2 MSTORE PUSH1 0x4 ADD PUSH2 0x197E SWAP1 PUSH2 0x3C23 JUMP JUMPDEST PUSH1 0x40 MLOAD DUP1 SWAP2 SUB SWAP1 REVERT JUMPDEST PUSH32 0x0 PUSH20 0xFFFFFFFFFFFFFFFFFFFFFFFFFFFFFFFFFFFFFFFF AND PUSH4 0x23B872DD CALLER ADDRESS DUP5 PUSH1 0x40 MLOAD DUP5 PUSH4 0xFFFFFFFF AND PUSH1 0xE0 SHL DUP2 MSTORE PUSH1 0x4 ADD PUSH2 0x19E4 SWAP4 SWAP3 SWAP2 SWAP1 PUSH2 0x3C43 JUMP JUMPDEST PUSH1 0x20 PUSH1 0x40 MLOAD DUP1 DUP4 SUB DUP2 PUSH1 0x0 DUP8 GAS CALL ISZERO DUP1 ISZERO PUSH2 0x1A03 JUMPI RETURNDATASIZE PUSH1 0x0 DUP1 RETURNDATACOPY RETURNDATASIZE PUSH1 0x0 REVERT JUMPDEST POP POP POP POP PUSH1 0x40 MLOAD RETURNDATASIZE PUSH1 0x1F NOT PUSH1 0x1F DUP3 ADD AND DUP3 ADD DUP1 PUSH1 0x40 MSTORE POP DUP2 ADD SWAP1 PUSH2 0x1A27 SWAP2 SWAP1 PUSH2 0x3AF6 JUMP JUMPDEST POP PUSH1 0x2 PUSH1 0x0 DUP2 SLOAD DUP1 SWAP3 SWAP2 SWAP1 PUSH2 0x1A3B SWAP1 PUSH2 0x3351 JUMP JUMPDEST SWAP2 SWAP1 POP SSTORE POP PUSH1 0x0 PUSH2 0x1A71 CALLER DUP4 PUSH32 0x0 PUSH1 0x2 SLOAD TIMESTAMP PUSH2 0x25DB JUMP JUMPDEST SWAP1 POP PUSH1 0x4 DUP2 PUSH1 0x40 MLOAD PUSH2 0x1A83 SWAP2 SWAP1 PUSH2 0x33D5 JUMP JUMPDEST SWAP1 DUP2 MSTORE PUSH1 0x20 ADD PUSH1 0x40 MLOAD DUP1 SWAP2 SUB SWAP1 KECCAK256 PUSH1 0x0 SWAP1 SLOAD SWAP1 PUSH2 0x100 EXP SWAP1 DIV PUSH1 0xFF AND ISZERO PUSH2 0x1ADF JUMPI PUSH1 0x40 MLOAD PUSH32 0x8C379A000000000000000000000000000000000000000000000000000000000 DUP2 MSTORE PUSH1 0x4 ADD PUSH2 0x1AD6 SWAP1 PUSH2 0x3438 JUMP JUMPDEST PUSH1 0x40 MLOAD DUP1 SWAP2 SUB SWAP1 REVERT JUMPDEST PUSH1 0x40 MLOAD DUP1 PUSH1 0xC0 ADD PUSH1 0x40 MSTORE DUP1 CALLER PUSH20 0xFFFFFFFFFFFFFFFFFFFFFFFFFFFFFFFFFFFFFFFF AND DUP2 MSTORE PUSH1 0x20 ADD PUSH32 0x0 PUSH20 0xFFFFFFFFFFFFFFFFFFFFFFFFFFFFFFFFFFFFFFFF AND DUP2 MSTORE PUSH1 0x20 ADD DUP4 DUP2 MSTORE PUSH1 0x20 ADD TIMESTAMP DUP2 MSTORE PUSH1 0x20 ADD PUSH1 0x0 PUSH1 0x2 DUP2 GT ISZERO PUSH2 0x1B62 JUMPI PUSH2 0x1B61 PUSH2 0x2D16 JUMP JUMPDEST JUMPDEST DUP2 MSTORE PUSH1 0x20 ADD PUSH1 0x40 MLOAD DUP1 PUSH1 0x40 ADD PUSH1 0x40 MSTORE DUP1 PUSH1 0x4 DUP2 MSTORE PUSH1 0x20 ADD PUSH32 0x5045505500000000000000000000000000000000000000000000000000000000 DUP2 MSTORE POP DUP2 MSTORE POP PUSH1 0x3 DUP3 PUSH1 0x40 MLOAD PUSH2 0x1BB0 SWAP2 SWAP1 PUSH2 0x33D5 JUMP JUMPDEST SWAP1 DUP2 MSTORE PUSH1 0x20 ADD PUSH1 0x40 MLOAD DUP1 SWAP2 SUB SWAP1 KECCAK256 PUSH1 0x0 DUP3 ADD MLOAD DUP2 PUSH1 0x0 ADD PUSH1 0x0 PUSH2 0x100 EXP DUP2 SLOAD DUP2 PUSH20 0xFFFFFFFFFFFFFFFFFFFFFFFFFFFFFFFFFFFFFFFF MUL NOT AND SWAP1 DUP4 PUSH20 0xFFFFFFFFFFFFFFFFFFFFFFFFFFFFFFFFFFFFFFFF AND MUL OR SWAP1 SSTORE POP PUSH1 0x20 DUP3 ADD MLOAD DUP2 PUSH1 0x1 ADD PUSH1 0x0 PUSH2 0x100 EXP DUP2 SLOAD DUP2 PUSH20 0xFFFFFFFFFFFFFFFFFFFFFFFFFFFFFFFFFFFFFFFF MUL NOT AND SWAP1 DUP4 PUSH20 0xFFFFFFFFFFFFFFFFFFFFFFFFFFFFFFFFFFFFFFFF AND MUL OR SWAP1 SSTORE POP PUSH1 0x40 DUP3 ADD MLOAD DUP2 PUSH1 0x2 ADD SSTORE PUSH1 0x60 DUP3 ADD MLOAD DUP2 PUSH1 0x3 ADD SSTORE PUSH1 0x80 DUP3 ADD MLOAD DUP2 PUSH1 0x4 ADD PUSH1 0x0 PUSH2 0x100 EXP DUP2 SLOAD DUP2 PUSH1 0xFF MUL NOT AND SWAP1 DUP4 PUSH1 0x2 DUP2 GT ISZERO PUSH2 0x1C8B JUMPI PUSH2 0x1C8A PUSH2 0x2D16 JUMP JUMPDEST JUMPDEST MUL OR SWAP1 SSTORE POP PUSH1 0xA0 DUP3 ADD MLOAD DUP2 PUSH1 0x5 ADD SWAP1 DUP2 PUSH2 0x1CA5 SWAP2 SWAP1 PUSH2 0x3604 JUMP JUMPDEST POP SWAP1 POP POP PUSH1 0x1 PUSH1 0x4 DUP3 PUSH1 0x40 MLOAD PUSH2 0x1CBB SWAP2 SWAP1 PUSH2 0x33D5 JUMP JUMPDEST SWAP1 DUP2 MSTORE PUSH1 0x20 ADD PUSH1 0x40 MLOAD DUP1 SWAP2 SUB SWAP1 KECCAK256 PUSH1 0x0 PUSH2 0x100 EXP DUP2 SLOAD DUP2 PUSH1 0xFF MUL NOT AND SWAP1 DUP4 ISZERO ISZERO MUL OR SWAP1 SSTORE POP PUSH1 0x5 PUSH1 0x0 CALLER PUSH20 0xFFFFFFFFFFFFFFFFFFFFFFFFFFFFFFFFFFFFFFFF AND PUSH20 0xFFFFFFFFFFFFFFFFFFFFFFFFFFFFFFFFFFFFFFFF AND DUP2 MSTORE PUSH1 0x20 ADD SWAP1 DUP2 MSTORE PUSH1 0x20 ADD PUSH1 0x0 KECCAK256 DUP2 SWAP1 DUP1 PUSH1 0x1 DUP2 SLOAD ADD DUP1 DUP3 SSTORE DUP1 SWAP2 POP POP PUSH1 0x1 SWAP1 SUB SWAP1 PUSH1 0x0 MSTORE PUSH1 0x20 PUSH1 0x0 KECCAK256 ADD PUSH1 0x0 SWAP1 SWAP2 SWAP1 SWAP2 SWAP1 SWAP2 POP SWAP1 DUP2 PUSH2 0x1D51 SWAP2 SWAP1 PUSH2 0x3604 JUMP JUMPDEST POP PUSH1 0x0 PUSH2 0x2710 PUSH1 0x6 SLOAD DUP5 PUSH2 0x1D65 SWAP2 SWAP1 PUSH2 0x36D6 JUMP JUMPDEST PUSH2 0x1D6F SWAP2 SWAP1 PUSH2 0x3747 JUMP JUMPDEST SWAP1 POP PUSH1 0x0 DUP2 DUP5 PUSH2 0x1D7F SWAP2 SWAP1 PUSH2 0x3778 JUMP JUMPDEST SWAP1 POP CALLER PUSH20 0xFFFFFFFFFFFFFFFFFFFFFFFFFFFFFFFFFFFFFFFF AND DUP4 PUSH1 0x40 MLOAD PUSH2 0x1DA6 SWAP2 SWAP1 PUSH2 0x33D5 JUMP JUMPDEST PUSH1 0x40 MLOAD DUP1 SWAP2 SUB SWAP1 KECCAK256 PUSH32 0xBB405E64D023132FDEDADD5894071AB0BEF2541B2167AE22603E825AEA7A95B1 DUP8 DUP8 DUP7 DUP7 TIMESTAMP PUSH1 0x40 MLOAD PUSH2 0x1DE5 SWAP6 SWAP5 SWAP4 SWAP3 SWAP2 SWAP1 PUSH2 0x3EDF JUMP JUMPDEST PUSH1 0x40 MLOAD DUP1 SWAP2 SUB SWAP1 LOG3 POP POP POP PUSH2 0x1DF8 PUSH2 0x2637 JUMP JUMPDEST POP POP JUMP JUMPDEST PUSH1 0x0 PUSH1 0x1 PUSH1 0x0 SWAP1 SLOAD SWAP1 PUSH2 0x100 EXP SWAP1 DIV PUSH20 0xFFFFFFFFFFFFFFFFFFFFFFFFFFFFFFFFFFFFFFFF AND SWAP1 POP SWAP1 JUMP JUMPDEST PUSH1 0x4 DUP2 DUP1 MLOAD PUSH1 0x20 DUP2 ADD DUP3 ADD DUP1 MLOAD DUP5 DUP3 MSTORE PUSH1 0x20 DUP4 ADD PUSH1 0x20 DUP6 ADD KECCAK256 DUP2 DUP4 MSTORE DUP1 SWAP6 POP POP POP POP POP POP PUSH1 0x0 SWAP2 POP SLOAD SWAP1 PUSH2 0x100 EXP SWAP1 DIV PUSH1 0xFF AND DUP2 JUMP JUMPDEST PUSH2 0x1E64 PUSH2 0x2AA5 JUMP JUMPDEST PUSH1 0x4 DUP3 PUSH1 0x40 MLOAD PUSH2 0x1E74 SWAP2 SWAP1 PUSH2 0x33D5 JUMP JUMPDEST SWAP1 DUP2 MSTORE PUSH1 0x20 ADD PUSH1 0x40 MLOAD DUP1 SWAP2 SUB SWAP1 KECCAK256 PUSH1 0x0 SWAP1 SLOAD SWAP1 PUSH2 0x100 EXP SWAP1 DIV PUSH1 0xFF AND PUSH2 0x1ECF JUMPI PUSH1 0x40 MLOAD PUSH32 0x8C379A000000000000000000000000000000000000000000000000000000000 DUP2 MSTORE PUSH1 0x4 ADD PUSH2 0x1EC6 SWAP1 PUSH2 0x38B1 JUMP JUMPDEST PUSH1 0x40 MLOAD DUP1 SWAP2 SUB SWAP1 REVERT JUMPDEST PUSH1 0x3 DUP3 PUSH1 0x40 MLOAD PUSH2 0x1EDF SWAP2 SWAP1 PUSH2 0x33D5 JUMP JUMPDEST SWAP1 DUP2 MSTORE PUSH1 0x20 ADD PUSH1 0x40 MLOAD DUP1 SWAP2 SUB SWAP1 KECCAK256 PUSH1 0x40 MLOAD DUP1 PUSH1 0xC0 ADD PUSH1 0x40 MSTORE SWAP1 DUP2 PUSH1 0x0 DUP3 ADD PUSH1 0x0 SWAP1 SLOAD SWAP1 PUSH2 0x100 EXP SWAP1 DIV PUSH20 0xFFFFFFFFFFFFFFFFFFFFFFFFFFFFFFFFFFFFFFFF AND PUSH20 0xFFFFFFFFFFFFFFFFFFFFFFFFFFFFFFFFFFFFFFFF AND PUSH20 0xFFFFFFFFFFFFFFFFFFFFFFFFFFFFFFFFFFFFFFFF AND DUP2 MSTORE PUSH1 0x20 ADD PUSH1 0x1 DUP3 ADD PUSH1 0x0 SWAP1 SLOAD SWAP1 PUSH2 0x100 EXP SWAP1 DIV PUSH20 0xFFFFFFFFFFFFFFFFFFFFFFFFFFFFFFFFFFFFFFFF AND PUSH20 0xFFFFFFFFFFFFFFFFFFFFFFFFFFFFFFFFFFFFFFFF AND PUSH20 0xFFFFFFFFFFFFFFFFFFFFFFFFFFFFFFFFFFFFFFFF AND DUP2 MSTORE PUSH1 0x20 ADD PUSH1 0x2 DUP3 ADD SLOAD DUP2 MSTORE PUSH1 0x20 ADD PUSH1 0x3 DUP3 ADD SLOAD DUP2 MSTORE PUSH1 0x20 ADD PUSH1 0x4 DUP3 ADD PUSH1 0x0 SWAP1 SLOAD SWAP1 PUSH2 0x100 EXP SWAP1 DIV PUSH1 0xFF AND PUSH1 0x2 DUP2 GT ISZERO PUSH2 0x1FDD JUMPI PUSH2 0x1FDC PUSH2 0x2D16 JUMP JUMPDEST JUMPDEST PUSH1 0x2 DUP2 GT ISZERO PUSH2 0x1FEF JUMPI PUSH2 0x1FEE PUSH2 0x2D16 JUMP JUMPDEST JUMPDEST DUP2 MSTORE PUSH1 0x20 ADD PUSH1 0x5 DUP3 ADD DUP1 SLOAD PUSH2 0x2003 SWAP1 PUSH2 0x3285 JUMP JUMPDEST DUP1 PUSH1 0x1F ADD PUSH1 0x20 DUP1 SWAP2 DIV MUL PUSH1 0x20 ADD PUSH1 0x40 MLOAD SWAP1 DUP2 ADD PUSH1 0x40 MSTORE DUP1 SWAP3 SWAP2 SWAP1 DUP2 DUP2 MSTORE PUSH1 0x20 ADD DUP3 DUP1 SLOAD PUSH2 0x202F SWAP1 PUSH2 0x3285 JUMP JUMPDEST DUP1 ISZERO PUSH2 0x207C JUMPI DUP1 PUSH1 0x1F LT PUSH2 0x2051 JUMPI PUSH2 0x100 DUP1 DUP4 SLOAD DIV MUL DUP4 MSTORE SWAP2 PUSH1 0x20 ADD SWAP2 PUSH2 0x207C JUMP JUMPDEST DUP3 ADD SWAP2 SWAP1 PUSH1 0x0 MSTORE PUSH1 0x20 PUSH1 0x0 KECCAK256 SWAP1 JUMPDEST DUP2 SLOAD DUP2 MSTORE SWAP1 PUSH1 0x1 ADD SWAP1 PUSH1 0x20 ADD DUP1 DUP4 GT PUSH2 0x205F JUMPI DUP3 SWAP1 SUB PUSH1 0x1F AND DUP3 ADD SWAP2 JUMPDEST POP POP POP POP POP DUP2 MSTORE POP POP SWAP1 POP SWAP2 SWAP1 POP JUMP JUMPDEST PUSH1 0x5 PUSH1 0x20 MSTORE DUP2 PUSH1 0x0 MSTORE PUSH1 0x40 PUSH1 0x0 KECCAK256 DUP2 DUP2 SLOAD DUP2 LT PUSH2 0x20A8 JUMPI PUSH1 0x0 DUP1 REVERT JUMPDEST SWAP1 PUSH1 0x0 MSTORE PUSH1 0x20 PUSH1 0x0 KECCAK256 ADD PUSH1 0x0 SWAP2 POP SWAP2 POP POP DUP1 SLOAD PUSH2 0x20C4 SWAP1 PUSH2 0x3285 JUMP JUMPDEST DUP1 PUSH1 0x1F ADD PUSH1 0x20 DUP1 SWAP2 DIV MUL PUSH1 0x20 ADD PUSH1 0x40 MLOAD SWAP1 DUP2 ADD PUSH1 0x40 MSTORE DUP1 SWAP3 SWAP2 SWAP1 DUP2 DUP2 MSTORE PUSH1 0x20 ADD DUP3 DUP1 SLOAD PUSH2 0x20F0 SWAP1 PUSH2 0x3285 JUMP JUMPDEST DUP1 ISZERO PUSH2 0x213D JUMPI DUP1 PUSH1 0x1F LT PUSH2 0x2112 JUMPI PUSH2 0x100 DUP1 DUP4 SLOAD DIV MUL DUP4 MSTORE SWAP2 PUSH1 0x20 ADD SWAP2 PUSH2 0x213D JUMP JUMPDEST DUP3 ADD SWAP2 SWAP1 PUSH1 0x0 MSTORE PUSH1 0x20 PUSH1 0x0 KECCAK256 SWAP1 JUMPDEST DUP2 SLOAD DUP2 MSTORE SWAP1 PUSH1 0x1 ADD SWAP1 PUSH1 0x20 ADD DUP1 DUP4 GT PUSH2 0x2120 JUMPI DUP3 SWAP1 SUB PUSH1 0x1F AND DUP3 ADD SWAP2 JUMPDEST POP POP POP POP POP DUP2 JUMP JUMPDEST PUSH32 0x0 DUP2 JUMP JUMPDEST PUSH1 0x2 SLOAD DUP2 JUMP JUMPDEST PUSH32 0x0 DUP2 JUMP JUMPDEST PUSH2 0x219B PUSH2 0x246A JUMP JUMPDEST PUSH1 0x0 SELFBALANCE SWAP1 POP PUSH1 0x0 DUP2 GT PUSH2 0x21E3 JUMPI PUSH1 0x40 MLOAD PUSH32 0x8C379A000000000000000000000000000000000000000000000000000000000 DUP2 MSTORE PUSH1 0x4 ADD PUSH2 0x21DA SWAP1 PUSH2 0x3F98 JUMP JUMPDEST PUSH1 0x40 MLOAD DUP1 SWAP2 SUB SWAP1 REVERT JUMPDEST PUSH2 0x21EB PUSH2 0x1DFC JUMP JUMPDEST PUSH20 0xFFFFFFFFFFFFFFFFFFFFFFFFFFFFFFFFFFFFFFFF AND PUSH2 0x8FC DUP3 SWAP1 DUP2 ISZERO MUL SWAP1 PUSH1 0x40 MLOAD PUSH1 0x0 PUSH1 0x40 MLOAD DUP1 DUP4 SUB DUP2 DUP6 DUP9 DUP9 CALL SWAP4 POP POP POP POP ISZERO DUP1 ISZERO PUSH2 0x2230 JUMPI RETURNDATASIZE PUSH1 0x0 DUP1 RETURNDATACOPY RETURNDATASIZE PUSH1 0x0 REVERT JUMPDEST POP POP JUMP JUMPDEST PUSH2 0x223C PUSH2 0x246A JUMP JUMPDEST PUSH2 0x3E8 DUP2 GT ISZERO PUSH2 0x2281 JUMPI PUSH1 0x40 MLOAD PUSH32 0x8C379A000000000000000000000000000000000000000000000000000000000 DUP2 MSTORE PUSH1 0x4 ADD PUSH2 0x2278 SWAP1 PUSH2 0x4004 JUMP JUMPDEST PUSH1 0x40 MLOAD DUP1 SWAP2 SUB SWAP1 REVERT JUMPDEST PUSH1 0x0 PUSH1 0x6 SLOAD SWAP1 POP DUP2 PUSH1 0x6 DUP2 SWAP1 SSTORE POP PUSH32 0x1CA55B9B495432F493ED407421D75B86E66AC74606327F97FDD727DD647CC69C DUP2 DUP4 PUSH1 0x40 MLOAD PUSH2 0x22C0 SWAP3 SWAP2 SWAP1 PUSH2 0x4024 JUMP JUMPDEST PUSH1 0x40 MLOAD DUP1 SWAP2 SUB SWAP1 LOG1 POP POP JUMP JUMPDEST PUSH1 0x60 PUSH1 0x5 PUSH1 0x0 DUP4 PUSH20 0xFFFFFFFFFFFFFFFFFFFFFFFFFFFFFFFFFFFFFFFF AND PUSH20 0xFFFFFFFFFFFFFFFFFFFFFFFFFFFFFFFFFFFFFFFF AND DUP2 MSTORE PUSH1 0x20 ADD SWAP1 DUP2 MSTORE PUSH1 0x20 ADD PUSH1 0x0 KECCAK256 DUP1 SLOAD DUP1 PUSH1 0x20 MUL PUSH1 0x20 ADD PUSH1 0x40 MLOAD SWAP1 DUP2 ADD PUSH1 0x40 MSTORE DUP1 SWAP3 SWAP2 SWAP1 DUP2 DUP2 MSTORE PUSH1 0x20 ADD PUSH1 0x0 SWAP1 JUMPDEST DUP3 DUP3 LT ISZERO PUSH2 0x23D9 JUMPI DUP4 DUP3 SWAP1 PUSH1 0x0 MSTORE PUSH1 0x20 PUSH1 0x0 KECCAK256 ADD DUP1 SLOAD PUSH2 0x234C SWAP1 PUSH2 0x3285 JUMP JUMPDEST DUP1 PUSH1 0x1F ADD PUSH1 0x20 DUP1 SWAP2 DIV MUL PUSH1 0x20 ADD PUSH1 0x40 MLOAD SWAP1 DUP2 ADD PUSH1 0x40 MSTORE DUP1 SWAP3 SWAP2 SWAP1 DUP2 DUP2 MSTORE PUSH1 0x20 ADD DUP3 DUP1 SLOAD PUSH2 0x2378 SWAP1 PUSH2 0x3285 JUMP JUMPDEST DUP1 ISZERO PUSH2 0x23C5 JUMPI DUP1 PUSH1 0x1F LT PUSH2 0x239A JUMPI PUSH2 0x100 DUP1 DUP4 SLOAD DIV MUL DUP4 MSTORE SWAP2 PUSH1 0x20 ADD SWAP2 PUSH2 0x23C5 JUMP JUMPDEST DUP3 ADD SWAP2 SWAP1 PUSH1 0x0 MSTORE PUSH1 0x20 PUSH1 0x0 KECCAK256 SWAP1 JUMPDEST DUP2 SLOAD DUP2 MSTORE SWAP1 PUSH1 0x1 ADD SWAP1 PUSH1 0x20 ADD DUP1 DUP4 GT PUSH2 0x23A8 JUMPI DUP3 SWAP1 SUB PUSH1 0x1F AND DUP3 ADD SWAP2 JUMPDEST POP POP POP POP POP DUP2 MSTORE PUSH1 0x20 ADD SWAP1 PUSH1 0x1 ADD SWAP1 PUSH2 0x232D JUMP JUMPDEST POP POP POP POP SWAP1 POP SWAP2 SWAP1 POP JUMP JUMPDEST PUSH2 0x23EC PUSH2 0x246A JUMP JUMPDEST PUSH1 0x0 PUSH20 0xFFFFFFFFFFFFFFFFFFFFFFFFFFFFFFFFFFFFFFFF AND DUP2 PUSH20 0xFFFFFFFFFFFFFFFFFFFFFFFFFFFFFFFFFFFFFFFF AND SUB PUSH2 0x245E JUMPI PUSH1 0x0 PUSH1 0x40 MLOAD PUSH32 0x1E4FBDF700000000000000000000000000000000000000000000000000000000 DUP2 MSTORE PUSH1 0x4 ADD PUSH2 0x2455 SWAP2 SWAP1 PUSH2 0x2E74 JUMP JUMPDEST PUSH1 0x40 MLOAD DUP1 SWAP2 SUB SWAP1 REVERT JUMPDEST PUSH2 0x2467 DUP2 PUSH2 0x2641 JUMP JUMPDEST POP JUMP JUMPDEST PUSH2 0x2472 PUSH2 0x2769 JUMP JUMPDEST PUSH20 0xFFFFFFFFFFFFFFFFFFFFFFFFFFFFFFFFFFFFFFFF AND PUSH2 0x2490 PUSH2 0x1DFC JUMP JUMPDEST PUSH20 0xFFFFFFFFFFFFFFFFFFFFFFFFFFFFFFFFFFFFFFFF AND EQ PUSH2 0x24EF JUMPI PUSH2 0x24B3 PUSH2 0x2769 JUMP JUMPDEST PUSH1 0x40 MLOAD PUSH32 0x118CDAA700000000000000000000000000000000000000000000000000000000 DUP2 MSTORE PUSH1 0x4 ADD PUSH2 0x24E6 SWAP2 SWAP1 PUSH2 0x2E74 JUMP JUMPDEST PUSH1 0x40 MLOAD DUP1 SWAP2 SUB SWAP1 REVERT JUMPDEST JUMP JUMPDEST PUSH2 0x24F9 PUSH2 0x2771 JUMP JUMPDEST PUSH1 0x0 PUSH1 0x1 PUSH1 0x14 PUSH2 0x100 EXP DUP2 SLOAD DUP2 PUSH1 0xFF MUL NOT AND SWAP1 DUP4 ISZERO ISZERO MUL OR SWAP1 SSTORE POP PUSH32 0x5DB9EE0A495BF2E6FF9C91A7834C1BA4FDD244A5E8AA4E537BD38AEAE4B073AA PUSH2 0x253D PUSH2 0x2769 JUMP JUMPDEST PUSH1 0x40 MLOAD PUSH2 0x254A SWAP2 SWAP1 PUSH2 0x2E74 JUMP JUMPDEST PUSH1 0x40 MLOAD DUP1 SWAP2 SUB SWAP1 LOG1 JUMP JUMPDEST PUSH1 0x2 PUSH1 0x0 SLOAD SUB PUSH2 0x2590 JUMPI PUSH1 0x40 MLOAD PUSH32 0x3EE5AEB500000000000000000000000000000000000000000000000000000000 DUP2 MSTORE PUSH1 0x4 ADD PUSH1 0x40 MLOAD DUP1 SWAP2 SUB SWAP1 REVERT JUMPDEST PUSH1 0x2 PUSH1 0x0 DUP2 SWAP1 SSTORE POP JUMP JUMPDEST PUSH2 0x25A2 PUSH2 0xAA0 JUMP JUMPDEST ISZERO PUSH2 0x25D9 JUMPI PUSH1 0x40 MLOAD PUSH32 0xD93C066500000000000000000000000000000000000000000000000000000000 DUP2 MSTORE PUSH1 0x4 ADD PUSH1 0x40 MLOAD DUP1 SWAP2 SUB SWAP1 REVERT JUMPDEST JUMP JUMPDEST PUSH1 0x60 PUSH2 0x260D DUP7 DUP7 DUP7 DUP7 DUP7 PUSH1 0x40 MLOAD PUSH1 0x20 ADD PUSH2 0x25F9 SWAP6 SWAP5 SWAP4 SWAP3 SWAP2 SWAP1 PUSH2 0x40B6 JUMP JUMPDEST PUSH1 0x40 MLOAD PUSH1 0x20 DUP2 DUP4 SUB SUB DUP2 MSTORE SWAP1 PUSH1 0x40 MSTORE PUSH2 0x27B1 JUMP JUMPDEST PUSH1 0x40 MLOAD PUSH1 0x20 ADD PUSH2 0x261D SWAP2 SWAP1 PUSH2 0x4161 JUMP JUMPDEST PUSH1 0x40 MLOAD PUSH1 0x20 DUP2 DUP4 SUB SUB DUP2 MSTORE SWAP1 PUSH1 0x40 MSTORE SWAP1 POP SWAP6 SWAP5 POP POP POP POP POP JUMP JUMPDEST PUSH1 0x1 PUSH1 0x0 DUP2 SWAP1 SSTORE POP JUMP JUMPDEST PUSH1 0x0 PUSH1 0x1 PUSH1 0x0 SWAP1 SLOAD SWAP1 PUSH2 0x100 EXP SWAP1 DIV PUSH20 0xFFFFFFFFFFFFFFFFFFFFFFFFFFFFFFFFFFFFFFFF AND SWAP1 POP DUP2 PUSH1 0x1 PUSH1 0x0 PUSH2 0x100 EXP DUP2 SLOAD DUP2 PUSH20 0xFFFFFFFFFFFFFFFFFFFFFFFFFFFFFFFFFFFFFFFF MUL NOT AND SWAP1 DUP4 PUSH20 0xFFFFFFFFFFFFFFFFFFFFFFFFFFFFFFFFFFFFFFFF AND MUL OR SWAP1 SSTORE POP DUP2 PUSH20 0xFFFFFFFFFFFFFFFFFFFFFFFFFFFFFFFFFFFFFFFF AND DUP2 PUSH20 0xFFFFFFFFFFFFFFFFFFFFFFFFFFFFFFFFFFFFFFFF AND PUSH32 0x8BE0079C531659141344CD1FD0A4F28419497F9722A3DAAFE3B4186F6B6457E0 PUSH1 0x40 MLOAD PUSH1 0x40 MLOAD DUP1 SWAP2 SUB SWAP1 LOG3 POP POP JUMP JUMPDEST PUSH2 0x270F PUSH2 0x259A JUMP JUMPDEST PUSH1 0x1 DUP1 PUSH1 0x14 PUSH2 0x100 EXP DUP2 SLOAD DUP2 PUSH1 0xFF MUL NOT AND SWAP1 DUP4 ISZERO ISZERO MUL OR SWAP1 SSTORE POP PUSH32 0x62E78CEA01BEE320CD4E420270B5EA74000D11B0C9F74754EBDBFC544B05A258 PUSH2 0x2752 PUSH2 0x2769 JUMP JUMPDEST PUSH1 0x40 MLOAD PUSH2 0x275F SWAP2 SWAP1 PUSH2 0x2E74 JUMP JUMPDEST PUSH1 0x40 MLOAD DUP1 SWAP2 SUB SWAP1 LOG1 JUMP JUMPDEST PUSH1 0x0 CALLER SWAP1 POP SWAP1 JUMP JUMPDEST PUSH2 0x2779 PUSH2 0xAA0 JUMP JUMPDEST PUSH2 0x27AF JUMPI PUSH1 0x40 MLOAD PUSH32 0x8DFC202B00000000000000000000000000000000000000000000000000000000 DUP2 MSTORE PUSH1 0x4 ADD PUSH1 0x40 MLOAD DUP1 SWAP2 SUB SWAP1 REVERT JUMPDEST JUMP JUMPDEST PUSH1 0x60 PUSH1 0x0 PUSH1 0x40 MLOAD DUP1 PUSH1 0x40 ADD PUSH1 0x40 MSTORE DUP1 PUSH1 0x10 DUP2 MSTORE PUSH1 0x20 ADD PUSH32 0x3031323334353637383961626364656600000000000000000000000000000000 DUP2 MSTORE POP SWAP1 POP PUSH1 0x0 PUSH1 0x2 DUP5 MLOAD PUSH2 0x27FD SWAP2 SWAP1 PUSH2 0x36D6 JUMP JUMPDEST PUSH1 0x2 PUSH2 0x2809 SWAP2 SWAP1 PUSH2 0x3778 JUMP JUMPDEST PUSH8 0xFFFFFFFFFFFFFFFF DUP2 GT ISZERO PUSH2 0x2822 JUMPI PUSH2 0x2821 PUSH2 0x2B48 JUMP JUMPDEST JUMPDEST PUSH1 0x40 MLOAD SWAP1 DUP1 DUP3 MSTORE DUP1 PUSH1 0x1F ADD PUSH1 0x1F NOT AND PUSH1 0x20 ADD DUP3 ADD PUSH1 0x40 MSTORE DUP1 ISZERO PUSH2 0x2854 JUMPI DUP2 PUSH1 0x20 ADD PUSH1 0x1 DUP3 MUL DUP1 CALLDATASIZE DUP4 CALLDATACOPY DUP1 DUP3 ADD SWAP2 POP POP SWAP1 POP JUMPDEST POP SWAP1 POP PUSH32 0x3000000000000000000000000000000000000000000000000000000000000000 DUP2 PUSH1 0x0 DUP2 MLOAD DUP2 LT PUSH2 0x288C JUMPI PUSH2 0x288B PUSH2 0x4183 JUMP JUMPDEST JUMPDEST PUSH1 0x20 ADD ADD SWAP1 PUSH31 0xFFFFFFFFFFFFFFFFFFFFFFFFFFFFFFFFFFFFFFFFFFFFFFFFFFFFFFFFFFFFFF NOT AND SWAP1 DUP2 PUSH1 0x0 BYTE SWAP1 MSTORE8 POP PUSH32 0x7800000000000000000000000000000000000000000000000000000000000000 DUP2 PUSH1 0x1 DUP2 MLOAD DUP2 LT PUSH2 0x28F0 JUMPI PUSH2 0x28EF PUSH2 0x4183 JUMP JUMPDEST JUMPDEST PUSH1 0x20 ADD ADD SWAP1 PUSH31 0xFFFFFFFFFFFFFFFFFFFFFFFFFFFFFFFFFFFFFFFFFFFFFFFFFFFFFFFFFFFFFF NOT AND SWAP1 DUP2 PUSH1 0x0 BYTE SWAP1 MSTORE8 POP PUSH1 0x0 JUMPDEST DUP5 MLOAD DUP2 LT ISZERO PUSH2 0x2A9A JUMPI DUP3 PUSH1 0x4 DUP7 DUP4 DUP2 MLOAD DUP2 LT PUSH2 0x2941 JUMPI PUSH2 0x2940 PUSH2 0x4183 JUMP JUMPDEST JUMPDEST PUSH1 0x20 ADD ADD MLOAD PUSH1 0xF8 SHR PUSH1 0xF8 SHL PUSH31 0xFFFFFFFFFFFFFFFFFFFFFFFFFFFFFFFFFFFFFFFFFFFFFFFFFFFFFFFFFFFFFF NOT AND SWAP1 SHR PUSH1 0xF8 SHR PUSH1 0xFF AND DUP2 MLOAD DUP2 LT PUSH2 0x2987 JUMPI PUSH2 0x2986 PUSH2 0x4183 JUMP JUMPDEST JUMPDEST PUSH1 0x20 ADD ADD MLOAD PUSH1 0xF8 SHR PUSH1 0xF8 SHL DUP3 PUSH1 0x2 DUP4 PUSH2 0x29A0 SWAP2 SWAP1 PUSH2 0x36D6 JUMP JUMPDEST PUSH1 0x2 PUSH2 0x29AC SWAP2 SWAP1 PUSH2 0x3778 JUMP JUMPDEST DUP2 MLOAD DUP2 LT PUSH2 0x29BD JUMPI PUSH2 0x29BC PUSH2 0x4183 JUMP JUMPDEST JUMPDEST PUSH1 0x20 ADD ADD SWAP1 PUSH31 0xFFFFFFFFFFFFFFFFFFFFFFFFFFFFFFFFFFFFFFFFFFFFFFFFFFFFFFFFFFFFFF NOT AND SWAP1 DUP2 PUSH1 0x0 BYTE SWAP1 MSTORE8 POP DUP3 PUSH1 0xF PUSH1 0xF8 SHL DUP7 DUP4 DUP2 MLOAD DUP2 LT PUSH2 0x2A05 JUMPI PUSH2 0x2A04 PUSH2 0x4183 JUMP JUMPDEST JUMPDEST PUSH1 0x20 ADD ADD MLOAD PUSH1 0xF8 SHR PUSH1 0xF8 SHL AND PUSH1 0xF8 SHR PUSH1 0xFF AND DUP2 MLOAD DUP2 LT PUSH2 0x2A28 JUMPI PUSH2 0x2A27 PUSH2 0x4183 JUMP JUMPDEST JUMPDEST PUSH1 0x20 ADD ADD MLOAD PUSH1 0xF8 SHR PUSH1 0xF8 SHL DUP3 PUSH1 0x2 DUP4 PUSH2 0x2A41 SWAP2 SWAP1 PUSH2 0x36D6 JUMP JUMPDEST PUSH1 0x1 PUSH2 0x2A4D SWAP2 SWAP1 PUSH2 0x3778 JUMP JUMPDEST DUP2 MLOAD DUP2 LT PUSH2 0x2A5E JUMPI PUSH2 0x2A5D PUSH2 0x4183 JUMP JUMPDEST JUMPDEST PUSH1 0x20 ADD ADD SWAP1 PUSH31 0xFFFFFFFFFFFFFFFFFFFFFFFFFFFFFFFFFFFFFFFFFFFFFFFFFFFFFFFFFFFFFF NOT AND SWAP1 DUP2 PUSH1 0x0 BYTE SWAP1 MSTORE8 POP DUP1 DUP1 PUSH1 0x1 ADD SWAP2 POP POP PUSH2 0x2922 JUMP JUMPDEST POP DUP1 SWAP3 POP POP POP SWAP2 SWAP1 POP JUMP JUMPDEST PUSH1 0x40 MLOAD DUP1 PUSH1 0xC0 ADD PUSH1 0x40 MSTORE DUP1 PUSH1 0x0 PUSH20 0xFFFFFFFFFFFFFFFFFFFFFFFFFFFFFFFFFFFFFFFF AND DUP2 MSTORE PUSH1 0x20 ADD PUSH1 0x0 PUSH20 0xFFFFFFFFFFFFFFFFFFFFFFFFFFFFFFFFFFFFFFFF AND DUP2 MSTORE PUSH1 0x20 ADD PUSH1 0x0 DUP2 MSTORE PUSH1 0x20 ADD PUSH1 0x0 DUP2 MSTORE PUSH1 0x20 ADD PUSH1 0x0 PUSH1 0x2 DUP2 GT ISZERO PUSH2 0x2B0C JUMPI PUSH2 0x2B0B PUSH2 0x2D16 JUMP JUMPDEST JUMPDEST DUP2 MSTORE PUSH1 0x20 ADD PUSH1 0x60 DUP2 MSTORE POP SWAP1 JUMP JUMPDEST PUSH1 0x0 PUSH1 0x40 MLOAD SWAP1 POP SWAP1 JUMP JUMPDEST PUSH1 0x0 DUP1 REVERT JUMPDEST PUSH1 0x0 DUP1 REVERT JUMPDEST PUSH1 0x0 DUP1 REVERT JUMPDEST PUSH1 0x0 DUP1 REVERT JUMPDEST PUSH1 0x0 PUSH1 0x1F NOT PUSH1 0x1F DUP4 ADD AND SWAP1 POP SWAP2 SWAP1 POP JUMP JUMPDEST PUSH32 0x4E487B7100000000000000000000000000000000000000000000000000000000 PUSH1 0x0 MSTORE PUSH1 0x41 PUSH1 0x4 MSTORE PUSH1 0x24 PUSH1 0x0 REVERT JUMPDEST PUSH2 0x2B80 DUP3 PUSH2 0x2B37 JUMP JUMPDEST DUP2 ADD DUP2 DUP2 LT PUSH8 0xFFFFFFFFFFFFFFFF DUP3 GT OR ISZERO PUSH2 0x2B9F JUMPI PUSH2 0x2B9E PUSH2 0x2B48 JUMP JUMPDEST JUMPDEST DUP1 PUSH1 0x40 MSTORE POP POP POP JUMP JUMPDEST PUSH1 0x0 PUSH2 0x2BB2 PUSH2 0x2B19 JUMP JUMPDEST SWAP1 POP PUSH2 0x2BBE DUP3 DUP3 PUSH2 0x2B77 JUMP JUMPDEST SWAP2 SWAP1 POP JUMP JUMPDEST PUSH1 0x0 PUSH8 0xFFFFFFFFFFFFFFFF DUP3 GT ISZERO PUSH2 0x2BDE JUMPI PUSH2 0x2BDD PUSH2 0x2B48 JUMP JUMPDEST JUMPDEST PUSH2 0x2BE7 DUP3 PUSH2 0x2B37 JUMP JUMPDEST SWAP1 POP PUSH1 0x20 DUP2 ADD SWAP1 POP SWAP2 SWAP1 POP JUMP JUMPDEST DUP3 DUP2 DUP4 CALLDATACOPY PUSH1 0x0 DUP4 DUP4 ADD MSTORE POP POP POP JUMP JUMPDEST PUSH1 0x0 PUSH2 0x2C16 PUSH2 0x2C11 DUP5 PUSH2 0x2BC3 JUMP JUMPDEST PUSH2 0x2BA8 JUMP JUMPDEST SWAP1 POP DUP3 DUP2 MSTORE PUSH1 0x20 DUP2 ADD DUP5 DUP5 DUP5 ADD GT ISZERO PUSH2 0x2C32 JUMPI PUSH2 0x2C31 PUSH2 0x2B32 JUMP JUMPDEST JUMPDEST PUSH2 0x2C3D DUP5 DUP3 DUP6 PUSH2 0x2BF4 JUMP JUMPDEST POP SWAP4 SWAP3 POP POP POP JUMP JUMPDEST PUSH1 0x0 DUP3 PUSH1 0x1F DUP4 ADD SLT PUSH2 0x2C5A JUMPI PUSH2 0x2C59 PUSH2 0x2B2D JUMP JUMPDEST JUMPDEST DUP2 CALLDATALOAD PUSH2 0x2C6A DUP5 DUP3 PUSH1 0x20 DUP7 ADD PUSH2 0x2C03 JUMP JUMPDEST SWAP2 POP POP SWAP3 SWAP2 POP POP JUMP JUMPDEST PUSH1 0x0 PUSH1 0x20 DUP3 DUP5 SUB SLT ISZERO PUSH2 0x2C89 JUMPI PUSH2 0x2C88 PUSH2 0x2B23 JUMP JUMPDEST JUMPDEST PUSH1 0x0 DUP3 ADD CALLDATALOAD PUSH8 0xFFFFFFFFFFFFFFFF DUP2 GT ISZERO PUSH2 0x2CA7 JUMPI PUSH2 0x2CA6 PUSH2 0x2B28 JUMP JUMPDEST JUMPDEST PUSH2 0x2CB3 DUP5 DUP3 DUP6 ADD PUSH2 0x2C45 JUMP JUMPDEST SWAP2 POP POP SWAP3 SWAP2 POP POP JUMP JUMPDEST PUSH1 0x0 PUSH20 0xFFFFFFFFFFFFFFFFFFFFFFFFFFFFFFFFFFFFFFFF DUP3 AND SWAP1 POP SWAP2 SWAP1 POP JUMP JUMPDEST PUSH1 0x0 PUSH2 0x2CE7 DUP3 PUSH2 0x2CBC JUMP JUMPDEST SWAP1 POP SWAP2 SWAP1 POP JUMP JUMPDEST PUSH2 0x2CF7 DUP2 PUSH2 0x2CDC JUMP JUMPDEST DUP3 MSTORE POP POP JUMP JUMPDEST PUSH1 0x0 DUP2 SWAP1 POP SWAP2 SWAP1 POP JUMP JUMPDEST PUSH2 0x2D10 DUP2 PUSH2 0x2CFD JUMP JUMPDEST DUP3 MSTORE POP POP JUMP JUMPDEST PUSH32 0x4E487B7100000000000000000000000000000000000000000000000000000000 PUSH1 0x0 MSTORE PUSH1 0x21 PUSH1 0x4 MSTORE PUSH1 0x24 PUSH1 0x0 REVERT JUMPDEST PUSH1 0x3 DUP2 LT PUSH2 0x2D56 JUMPI PUSH2 0x2D55 PUSH2 0x2D16 JUMP JUMPDEST JUMPDEST POP JUMP JUMPDEST PUSH1 0x0 DUP2 SWAP1 POP PUSH2 0x2D67 DUP3 PUSH2 0x2D45 JUMP JUMPDEST SWAP2 SWAP1 POP JUMP JUMPDEST PUSH1 0x0 PUSH2 0x2D77 DUP3 PUSH2 0x2D59 JUMP JUMPDEST SWAP1 POP SWAP2 SWAP1 POP JUMP JUMPDEST PUSH2 0x2D87 DUP2 PUSH2 0x2D6C JUMP JUMPDEST DUP3 MSTORE POP POP JUMP JUMPDEST PUSH1 0x0 DUP2 MLOAD SWAP1 POP SWAP2 SWAP1 POP JUMP JUMPDEST PUSH1 0x0 DUP3 DUP3 MSTORE PUSH1 0x20 DUP3 ADD SWAP1 POP SWAP3 SWAP2 POP POP JUMP JUMPDEST PUSH1 0x0 JUMPDEST DUP4 DUP2 LT ISZERO PUSH2 0x2DC7 JUMPI DUP1 DUP3 ADD MLOAD DUP2 DUP5 ADD MSTORE PUSH1 0x20 DUP2 ADD SWAP1 POP PUSH2 0x2DAC JUMP JUMPDEST PUSH1 0x0 DUP5 DUP5 ADD MSTORE POP POP POP POP JUMP JUMPDEST PUSH1 0x0 PUSH2 0x2DDE DUP3 PUSH2 0x2D8D JUMP JUMPDEST PUSH2 0x2DE8 DUP2 DUP6 PUSH2 0x2D98 JUMP JUMPDEST SWAP4 POP PUSH2 0x2DF8 DUP2 DUP6 PUSH1 0x20 DUP7 ADD PUSH2 0x2DA9 JUMP JUMPDEST PUSH2 0x2E01 DUP2 PUSH2 0x2B37 JUMP JUMPDEST DUP5 ADD SWAP2 POP POP SWAP3 SWAP2 POP POP JUMP JUMPDEST PUSH1 0x0 PUSH1 0xC0 DUP3 ADD SWAP1 POP PUSH2 0x2E21 PUSH1 0x0 DUP4 ADD DUP10 PUSH2 0x2CEE JUMP JUMPDEST PUSH2 0x2E2E PUSH1 0x20 DUP4 ADD DUP9 PUSH2 0x2CEE JUMP JUMPDEST PUSH2 0x2E3B PUSH1 0x40 DUP4 ADD DUP8 PUSH2 0x2D07 JUMP JUMPDEST PUSH2 0x2E48 PUSH1 0x60 DUP4 ADD DUP7 PUSH2 0x2D07 JUMP JUMPDEST PUSH2 0x2E55 PUSH1 0x80 DUP4 ADD DUP6 PUSH2 0x2D7E JUMP JUMPDEST DUP2 DUP2 SUB PUSH1 0xA0 DUP4 ADD MSTORE PUSH2 0x2E67 DUP2 DUP5 PUSH2 0x2DD3 JUMP JUMPDEST SWAP1 POP SWAP8 SWAP7 POP POP POP POP POP POP POP JUMP JUMPDEST PUSH1 0x0 PUSH1 0x20 DUP3 ADD SWAP1 POP PUSH2 0x2E89 PUSH1 0x0 DUP4 ADD DUP5 PUSH2 0x2CEE JUMP JUMPDEST SWAP3 SWAP2 POP POP JUMP JUMPDEST PUSH1 0x0 PUSH1 0x20 DUP3 ADD SWAP1 POP PUSH2 0x2EA4 PUSH1 0x0 DUP4 ADD DUP5 PUSH2 0x2D07 JUMP JUMPDEST SWAP3 SWAP2 POP POP JUMP JUMPDEST PUSH1 0x0 DUP2 ISZERO ISZERO SWAP1 POP SWAP2 SWAP1 POP JUMP JUMPDEST PUSH2 0x2EBF DUP2 PUSH2 0x2EAA JUMP JUMPDEST DUP3 MSTORE POP POP JUMP JUMPDEST PUSH1 0x0 PUSH1 0x20 DUP3 ADD SWAP1 POP PUSH2 0x2EDA PUSH1 0x0 DUP4 ADD DUP5 PUSH2 0x2EB6 JUMP JUMPDEST SWAP3 SWAP2 POP POP JUMP JUMPDEST PUSH2 0x2EE9 DUP2 PUSH2 0x2CFD JUMP JUMPDEST DUP2 EQ PUSH2 0x2EF4 JUMPI PUSH1 0x0 DUP1 REVERT JUMPDEST POP JUMP JUMPDEST PUSH1 0x0 DUP2 CALLDATALOAD SWAP1 POP PUSH2 0x2F06 DUP2 PUSH2 0x2EE0 JUMP JUMPDEST SWAP3 SWAP2 POP POP JUMP JUMPDEST PUSH1 0x0 DUP1 PUSH1 0x40 DUP4 DUP6 SUB SLT ISZERO PUSH2 0x2F23 JUMPI PUSH2 0x2F22 PUSH2 0x2B23 JUMP JUMPDEST JUMPDEST PUSH1 0x0 DUP4 ADD CALLDATALOAD PUSH8 0xFFFFFFFFFFFFFFFF DUP2 GT ISZERO PUSH2 0x2F41 JUMPI PUSH2 0x2F40 PUSH2 0x2B28 JUMP JUMPDEST JUMPDEST PUSH2 0x2F4D DUP6 DUP3 DUP7 ADD PUSH2 0x2C45 JUMP JUMPDEST SWAP3 POP POP PUSH1 0x20 PUSH2 0x2F5E DUP6 DUP3 DUP7 ADD PUSH2 0x2EF7 JUMP JUMPDEST SWAP2 POP POP SWAP3 POP SWAP3 SWAP1 POP JUMP JUMPDEST PUSH2 0x2F71 DUP2 PUSH2 0x2CDC JUMP JUMPDEST DUP2 EQ PUSH2 0x2F7C JUMPI PUSH1 0x0 DUP1 REVERT JUMPDEST POP JUMP JUMPDEST PUSH1 0x0 DUP2 CALLDATALOAD SWAP1 POP PUSH2 0x2F8E DUP2 PUSH2 0x2F68 JUMP JUMPDEST SWAP3 SWAP2 POP POP JUMP JUMPDEST PUSH1 0x0 PUSH1 0x20 DUP3 DUP5 SUB SLT ISZERO PUSH2 0x2FAA JUMPI PUSH2 0x2FA9 PUSH2 0x2B23 JUMP JUMPDEST JUMPDEST PUSH1 0x0 PUSH2 0x2FB8 DUP5 DUP3 DUP6 ADD PUSH2 0x2F7F JUMP JUMPDEST SWAP2 POP POP SWAP3 SWAP2 POP POP JUMP JUMPDEST PUSH2 0x2FCA DUP2 PUSH2 0x2CDC JUMP JUMPDEST DUP3 MSTORE POP POP JUMP JUMPDEST PUSH2 0x2FD9 DUP2 PUSH2 0x2CFD JUMP JUMPDEST DUP3 MSTORE POP POP JUMP JUMPDEST PUSH2 0x2FE8 DUP2 PUSH2 0x2D6C JUMP JUMPDEST DUP3 MSTORE POP POP JUMP JUMPDEST PUSH1 0x0 DUP3 DUP3 MSTORE PUSH1 0x20 DUP3 ADD SWAP1 POP SWAP3 SWAP2 POP POP JUMP JUMPDEST PUSH1 0x0 PUSH2 0x300A DUP3 PUSH2 0x2D8D JUMP JUMPDEST PUSH2 0x3014 DUP2 DUP6 PUSH2 0x2FEE JUMP JUMPDEST SWAP4 POP PUSH2 0x3024 DUP2 DUP6 PUSH1 0x20 DUP7 ADD PUSH2 0x2DA9 JUMP JUMPDEST PUSH2 0x302D DUP2 PUSH2 0x2B37 JUMP JUMPDEST DUP5 ADD SWAP2 POP POP SWAP3 SWAP2 POP POP JUMP JUMPDEST PUSH1 0x0 PUSH1 0xC0 DUP4 ADD PUSH1 0x0 DUP4 ADD MLOAD PUSH2 0x3050 PUSH1 0x0 DUP7 ADD DUP3 PUSH2 0x2FC1 JUMP JUMPDEST POP PUSH1 0x20 DUP4 ADD MLOAD PUSH2 0x3063 PUSH1 0x20 DUP7 ADD DUP3 PUSH2 0x2FC1 JUMP JUMPDEST POP PUSH1 0x40 DUP4 ADD MLOAD PUSH2 0x3076 PUSH1 0x40 DUP7 ADD DUP3 PUSH2 0x2FD0 JUMP JUMPDEST POP PUSH1 0x60 DUP4 ADD MLOAD PUSH2 0x3089 PUSH1 0x60 DUP7 ADD DUP3 PUSH2 0x2FD0 JUMP JUMPDEST POP PUSH1 0x80 DUP4 ADD MLOAD PUSH2 0x309C PUSH1 0x80 DUP7 ADD DUP3 PUSH2 0x2FDF JUMP JUMPDEST POP PUSH1 0xA0 DUP4 ADD MLOAD DUP5 DUP3 SUB PUSH1 0xA0 DUP7 ADD MSTORE PUSH2 0x30B4 DUP3 DUP3 PUSH2 0x2FFF JUMP JUMPDEST SWAP2 POP POP DUP1 SWAP2 POP POP SWAP3 SWAP2 POP POP JUMP JUMPDEST PUSH1 0x0 PUSH1 0x20 DUP3 ADD SWAP1 POP DUP2 DUP2 SUB PUSH1 0x0 DUP4 ADD MSTORE PUSH2 0x30DB DUP2 DUP5 PUSH2 0x3038 JUMP JUMPDEST SWAP1 POP SWAP3 SWAP2 POP POP JUMP JUMPDEST PUSH1 0x0 DUP1 PUSH1 0x40 DUP4 DUP6 SUB SLT ISZERO PUSH2 0x30FA JUMPI PUSH2 0x30F9 PUSH2 0x2B23 JUMP JUMPDEST JUMPDEST PUSH1 0x0 PUSH2 0x3108 DUP6 DUP3 DUP7 ADD PUSH2 0x2F7F JUMP JUMPDEST SWAP3 POP POP PUSH1 0x20 PUSH2 0x3119 DUP6 DUP3 DUP7 ADD PUSH2 0x2EF7 JUMP JUMPDEST SWAP2 POP POP SWAP3 POP SWAP3 SWAP1 POP JUMP JUMPDEST PUSH1 0x0 PUSH1 0x20 DUP3 ADD SWAP1 POP DUP2 DUP2 SUB PUSH1 0x0 DUP4 ADD MSTORE PUSH2 0x313D DUP2 DUP5 PUSH2 0x2DD3 JUMP JUMPDEST SWAP1 POP SWAP3 SWAP2 POP POP JUMP JUMPDEST PUSH1 0x0 PUSH1 0x20 DUP3 DUP5 SUB SLT ISZERO PUSH2 0x315B JUMPI PUSH2 0x315A PUSH2 0x2B23 JUMP JUMPDEST JUMPDEST PUSH1 0x0 PUSH2 0x3169 DUP5 DUP3 DUP6 ADD PUSH2 0x2EF7 JUMP JUMPDEST SWAP2 POP POP SWAP3 SWAP2 POP POP JUMP JUMPDEST PUSH1 0x0 DUP2 MLOAD SWAP1 POP SWAP2 SWAP1 POP JUMP JUMPDEST PUSH1 0x0 DUP3 DUP3 MSTORE PUSH1 0x20 DUP3 ADD SWAP1 POP SWAP3 SWAP2 POP POP JUMP JUMPDEST PUSH1 0x0 DUP2 SWAP1 POP PUSH1 0x20 DUP3 ADD SWAP1 POP SWAP2 SWAP1 POP JUMP JUMPDEST PUSH1 0x0 PUSH2 0x31AA DUP4 DUP4 PUSH2 0x2FFF JUMP JUMPDEST SWAP1 POP SWAP3 SWAP2 POP POP JUMP JUMPDEST PUSH1 0x0 PUSH1 0x20 DUP3 ADD SWAP1 POP SWAP2 SWAP1 POP JUMP JUMPDEST PUSH1 0x0 PUSH2 0x31CA DUP3 PUSH2 0x3172 JUMP JUMPDEST PUSH2 0x31D4 DUP2 DUP6 PUSH2 0x317D JUMP JUMPDEST SWAP4 POP DUP4 PUSH1 0x20 DUP3 MUL DUP6 ADD PUSH2 0x31E6 DUP6 PUSH2 0x318E JUMP JUMPDEST DUP1 PUSH1 0x0 JUMPDEST DUP6 DUP2 LT ISZERO PUSH2 0x3222 JUMPI DUP5 DUP5 SUB DUP10 MSTORE DUP2 MLOAD PUSH2 0x3203 DUP6 DUP3 PUSH2 0x319E JUMP JUMPDEST SWAP5 POP PUSH2 0x320E DUP4 PUSH2 0x31B2 JUMP JUMPDEST SWAP3 POP PUSH1 0x20 DUP11 ADD SWAP10 POP POP PUSH1 0x1 DUP2 ADD SWAP1 POP PUSH2 0x31EA JUMP JUMPDEST POP DUP3 SWAP8 POP DUP8 SWAP6 POP POP POP POP POP POP SWAP3 SWAP2 POP POP JUMP JUMPDEST PUSH1 0x0 PUSH1 0x20 DUP3 ADD SWAP1 POP DUP2 DUP2 SUB PUSH1 0x0 DUP4 ADD MSTORE PUSH2 0x324E DUP2 DUP5 PUSH2 0x31BF JUMP JUMPDEST SWAP1 POP SWAP3 SWAP2 POP POP JUMP JUMPDEST PUSH32 0x4E487B7100000000000000000000000000000000000000000000000000000000 PUSH1 0x0 MSTORE PUSH1 0x22 PUSH1 0x4 MSTORE PUSH1 0x24 PUSH1 0x0 REVERT JUMPDEST PUSH1 0x0 PUSH1 0x2 DUP3 DIV SWAP1 POP PUSH1 0x1 DUP3 AND DUP1 PUSH2 0x329D JUMPI PUSH1 0x7F DUP3 AND SWAP2 POP JUMPDEST PUSH1 0x20 DUP3 LT DUP2 SUB PUSH2 0x32B0 JUMPI PUSH2 0x32AF PUSH2 0x3256 JUMP JUMPDEST JUMPDEST POP SWAP2 SWAP1 POP JUMP JUMPDEST PUSH32 0x4D7573742073656E642045544800000000000000000000000000000000000000 PUSH1 0x0 DUP3 ADD MSTORE POP JUMP JUMPDEST PUSH1 0x0 PUSH2 0x32EC PUSH1 0xD DUP4 PUSH2 0x2D98 JUMP JUMPDEST SWAP2 POP PUSH2 0x32F7 DUP3 PUSH2 0x32B6 JUMP JUMPDEST PUSH1 0x20 DUP3 ADD SWAP1 POP SWAP2 SWAP1 POP JUMP JUMPDEST PUSH1 0x0 PUSH1 0x20 DUP3 ADD SWAP1 POP DUP2 DUP2 SUB PUSH1 0x0 DUP4 ADD MSTORE PUSH2 0x331B DUP2 PUSH2 0x32DF JUMP JUMPDEST SWAP1 POP SWAP2 SWAP1 POP JUMP JUMPDEST PUSH32 0x4E487B7100000000000000000000000000000000000000000000000000000000 PUSH1 0x0 MSTORE PUSH1 0x11 PUSH1 0x4 MSTORE PUSH1 0x24 PUSH1 0x0 REVERT JUMPDEST PUSH1 0x0 PUSH2 0x335C DUP3 PUSH2 0x2CFD JUMP JUMPDEST SWAP2 POP PUSH32 0xFFFFFFFFFFFFFFFFFFFFFFFFFFFFFFFFFFFFFFFFFFFFFFFFFFFFFFFFFFFFFFFF DUP3 SUB PUSH2 0x338E JUMPI PUSH2 0x338D PUSH2 0x3322 JUMP JUMPDEST JUMPDEST PUSH1 0x1 DUP3 ADD SWAP1 POP SWAP2 SWAP1 POP JUMP JUMPDEST PUSH1 0x0 DUP2 SWAP1 POP SWAP3 SWAP2 POP POP JUMP JUMPDEST PUSH1 0x0 PUSH2 0x33AF DUP3 PUSH2 0x2D8D JUMP JUMPDEST PUSH2 0x33B9 DUP2 DUP6 PUSH2 0x3399 JUMP JUMPDEST SWAP4 POP PUSH2 0x33C9 DUP2 DUP6 PUSH1 0x20 DUP7 ADD PUSH2 0x2DA9 JUMP JUMPDEST DUP1 DUP5 ADD SWAP2 POP POP SWAP3 SWAP2 POP POP JUMP JUMPDEST PUSH1 0x0 PUSH2 0x33E1 DUP3 DUP5 PUSH2 0x33A4 JUMP JUMPDEST SWAP2 POP DUP2 SWAP1 POP SWAP3 SWAP2 POP POP JUMP JUMPDEST PUSH32 0x5472616E73616374696F6E20494420636F6C6C6973696F6E0000000000000000 PUSH1 0x0 DUP3 ADD MSTORE POP JUMP JUMPDEST PUSH1 0x0 PUSH2 0x3422 PUSH1 0x18 DUP4 PUSH2 0x2D98 JUMP JUMPDEST SWAP2 POP PUSH2 0x342D DUP3 PUSH2 0x33EC JUMP JUMPDEST PUSH1 0x20 DUP3 ADD SWAP1 POP SWAP2 SWAP1 POP JUMP JUMPDEST PUSH1 0x0 PUSH1 0x20 DUP3 ADD SWAP1 POP DUP2 DUP2 SUB PUSH1 0x0 DUP4 ADD MSTORE PUSH2 0x3451 DUP2 PUSH2 0x3415 JUMP JUMPDEST SWAP1 POP SWAP2 SWAP1 POP JUMP JUMPDEST PUSH1 0x0 DUP2 SWAP1 POP DUP2 PUSH1 0x0 MSTORE PUSH1 0x20 PUSH1 0x0 KECCAK256 SWAP1 POP SWAP2 SWAP1 POP JUMP JUMPDEST PUSH1 0x0 PUSH1 0x20 PUSH1 0x1F DUP4 ADD DIV SWAP1 POP SWAP2 SWAP1 POP JUMP JUMPDEST PUSH1 0x0 DUP3 DUP3 SHL SWAP1 POP SWAP3 SWAP2 POP POP JUMP JUMPDEST PUSH1 0x0 PUSH1 0x8 DUP4 MUL PUSH2 0x34BA PUSH32 0xFFFFFFFFFFFFFFFFFFFFFFFFFFFFFFFFFFFFFFFFFFFFFFFFFFFFFFFFFFFFFFFF DUP3 PUSH2 0x347D JUMP JUMPDEST PUSH2 0x34C4 DUP7 DUP4 PUSH2 0x347D JUMP JUMPDEST SWAP6 POP DUP1 NOT DUP5 AND SWAP4 POP DUP1 DUP7 AND DUP5 OR SWAP3 POP POP POP SWAP4 SWAP3 POP POP POP JUMP JUMPDEST PUSH1 0x0 DUP2 SWAP1 POP SWAP2 SWAP1 POP JUMP JUMPDEST PUSH1 0x0 PUSH2 0x3501 PUSH2 0x34FC PUSH2 0x34F7 DUP5 PUSH2 0x2CFD JUMP JUMPDEST PUSH2 0x34DC JUMP JUMPDEST PUSH2 0x2CFD JUMP JUMPDEST SWAP1 POP SWAP2 SWAP1 POP JUMP JUMPDEST PUSH1 0x0 DUP2 SWAP1 POP SWAP2 SWAP1 POP JUMP JUMPDEST PUSH2 0x351B DUP4 PUSH2 0x34E6 JUMP JUMPDEST PUSH2 0x352F PUSH2 0x3527 DUP3 PUSH2 0x3508 JUMP JUMPDEST DUP5 DUP5 SLOAD PUSH2 0x348A JUMP JUMPDEST DUP3 SSTORE POP POP POP POP JUMP JUMPDEST PUSH1 0x0 SWAP1 JUMP JUMPDEST PUSH2 0x3544 PUSH2 0x3537 JUMP JUMPDEST PUSH2 0x354F DUP2 DUP5 DUP5 PUSH2 0x3512 JUMP JUMPDEST POP POP POP JUMP JUMPDEST JUMPDEST DUP2 DUP2 LT ISZERO PUSH2 0x3573 JUMPI PUSH2 0x3568 PUSH1 0x0 DUP3 PUSH2 0x353C JUMP JUMPDEST PUSH1 0x1 DUP2 ADD SWAP1 POP PUSH2 0x3555 JUMP JUMPDEST POP POP JUMP JUMPDEST PUSH1 0x1F DUP3 GT ISZERO PUSH2 0x35B8 JUMPI PUSH2 0x3589 DUP2 PUSH2 0x3458 JUMP JUMPDEST PUSH2 0x3592 DUP5 PUSH2 0x346D JUMP JUMPDEST DUP2 ADD PUSH1 0x20 DUP6 LT ISZERO PUSH2 0x35A1 JUMPI DUP2 SWAP1 POP JUMPDEST PUSH2 0x35B5 PUSH2 0x35AD DUP6 PUSH2 0x346D JUMP JUMPDEST DUP4 ADD DUP3 PUSH2 0x3554 JUMP JUMPDEST POP POP JUMPDEST POP POP POP JUMP JUMPDEST PUSH1 0x0 DUP3 DUP3 SHR SWAP1 POP SWAP3 SWAP2 POP POP JUMP JUMPDEST PUSH1 0x0 PUSH2 0x35DB PUSH1 0x0 NOT DUP5 PUSH1 0x8 MUL PUSH2 0x35BD JUMP JUMPDEST NOT DUP1 DUP4 AND SWAP2 POP POP SWAP3 SWAP2 POP POP JUMP JUMPDEST PUSH1 0x0 PUSH2 0x35F4 DUP4 DUP4 PUSH2 0x35CA JUMP JUMPDEST SWAP2 POP DUP3 PUSH1 0x2 MUL DUP3 OR SWAP1 POP SWAP3 SWAP2 POP POP JUMP JUMPDEST PUSH2 0x360D DUP3 PUSH2 0x2D8D JUMP JUMPDEST PUSH8 0xFFFFFFFFFFFFFFFF DUP2 GT ISZERO PUSH2 0x3626 JUMPI PUSH2 0x3625 PUSH2 0x2B48 JUMP JUMPDEST JUMPDEST PUSH2 0x3630 DUP3 SLOAD PUSH2 0x3285 JUMP JUMPDEST PUSH2 0x363B DUP3 DUP3 DUP6 PUSH2 0x3577 JUMP JUMPDEST PUSH1 0x0 PUSH1 0x20 SWAP1 POP PUSH1 0x1F DUP4 GT PUSH1 0x1 DUP2 EQ PUSH2 0x366E JUMPI PUSH1 0x0 DUP5 ISZERO PUSH2 0x365C JUMPI DUP3 DUP8 ADD MLOAD SWAP1 POP JUMPDEST PUSH2 0x3666 DUP6 DUP3 PUSH2 0x35E8 JUMP JUMPDEST DUP7 SSTORE POP PUSH2 0x36CE JUMP JUMPDEST PUSH1 0x1F NOT DUP5 AND PUSH2 0x367C DUP7 PUSH2 0x3458 JUMP JUMPDEST PUSH1 0x0 JUMPDEST DUP3 DUP2 LT ISZERO PUSH2 0x36A4 JUMPI DUP5 DUP10 ADD MLOAD DUP3 SSTORE PUSH1 0x1 DUP3 ADD SWAP2 POP PUSH1 0x20 DUP6 ADD SWAP5 POP PUSH1 0x20 DUP2 ADD SWAP1 POP PUSH2 0x367F JUMP JUMPDEST DUP7 DUP4 LT ISZERO PUSH2 0x36C1 JUMPI DUP5 DUP10 ADD MLOAD PUSH2 0x36BD PUSH1 0x1F DUP10 AND DUP3 PUSH2 0x35CA JUMP JUMPDEST DUP4 SSTORE POP JUMPDEST PUSH1 0x1 PUSH1 0x2 DUP9 MUL ADD DUP9 SSTORE POP POP POP JUMPDEST POP POP POP POP POP POP JUMP JUMPDEST PUSH1 0x0 PUSH2 0x36E1 DUP3 PUSH2 0x2CFD JUMP JUMPDEST SWAP2 POP PUSH2 0x36EC DUP4 PUSH2 0x2CFD JUMP JUMPDEST SWAP3 POP DUP3 DUP3 MUL PUSH2 0x36FA DUP2 PUSH2 0x2CFD JUMP JUMPDEST SWAP2 POP DUP3 DUP3 DIV DUP5 EQ DUP4 ISZERO OR PUSH2 0x3711 JUMPI PUSH2 0x3710 PUSH2 0x3322 JUMP JUMPDEST JUMPDEST POP SWAP3 SWAP2 POP POP JUMP JUMPDEST PUSH32 0x4E487B7100000000000000000000000000000000000000000000000000000000 PUSH1 0x0 MSTORE PUSH1 0x12 PUSH1 0x4 MSTORE PUSH1 0x24 PUSH1 0x0 REVERT JUMPDEST PUSH1 0x0 PUSH2 0x3752 DUP3 PUSH2 0x2CFD JUMP JUMPDEST SWAP2 POP PUSH2 0x375D DUP4 PUSH2 0x2CFD JUMP JUMPDEST SWAP3 POP DUP3 PUSH2 0x376D JUMPI PUSH2 0x376C PUSH2 0x3718 JUMP JUMPDEST JUMPDEST DUP3 DUP3 DIV SWAP1 POP SWAP3 SWAP2 POP POP JUMP JUMPDEST PUSH1 0x0 PUSH2 0x3783 DUP3 PUSH2 0x2CFD JUMP JUMPDEST SWAP2 POP PUSH2 0x378E DUP4 PUSH2 0x2CFD JUMP JUMPDEST SWAP3 POP DUP3 DUP3 ADD SWAP1 POP DUP1 DUP3 GT ISZERO PUSH2 0x37A6 JUMPI PUSH2 0x37A5 PUSH2 0x3322 JUMP JUMPDEST JUMPDEST SWAP3 SWAP2 POP POP JUMP JUMPDEST PUSH32 0x4554480000000000000000000000000000000000000000000000000000000000 PUSH1 0x0 DUP3 ADD MSTORE POP JUMP JUMPDEST PUSH1 0x0 PUSH2 0x37E2 PUSH1 0x3 DUP4 PUSH2 0x2D98 JUMP JUMPDEST SWAP2 POP PUSH2 0x37ED DUP3 PUSH2 0x37AC JUMP JUMPDEST PUSH1 0x20 DUP3 ADD SWAP1 POP SWAP2 SWAP1 POP JUMP JUMPDEST PUSH1 0x0 PUSH1 0xC0 DUP3 ADD SWAP1 POP DUP2 DUP2 SUB PUSH1 0x0 DUP4 ADD MSTORE PUSH2 0x3812 DUP2 DUP9 PUSH2 0x2DD3 JUMP JUMPDEST SWAP1 POP PUSH2 0x3821 PUSH1 0x20 DUP4 ADD DUP8 PUSH2 0x2D07 JUMP JUMPDEST PUSH2 0x382E PUSH1 0x40 DUP4 ADD DUP7 PUSH2 0x2D07 JUMP JUMPDEST PUSH2 0x383B PUSH1 0x60 DUP4 ADD DUP6 PUSH2 0x2D07 JUMP JUMPDEST DUP2 DUP2 SUB PUSH1 0x80 DUP4 ADD MSTORE PUSH2 0x384C DUP2 PUSH2 0x37D5 JUMP JUMPDEST SWAP1 POP PUSH2 0x385B PUSH1 0xA0 DUP4 ADD DUP5 PUSH2 0x2D07 JUMP JUMPDEST SWAP7 SWAP6 POP POP POP POP POP POP JUMP JUMPDEST PUSH32 0x5472616E73616374696F6E20646F6573206E6F74206578697374000000000000 PUSH1 0x0 DUP3 ADD MSTORE POP JUMP JUMPDEST PUSH1 0x0 PUSH2 0x389B PUSH1 0x1A DUP4 PUSH2 0x2D98 JUMP JUMPDEST SWAP2 POP PUSH2 0x38A6 DUP3 PUSH2 0x3865 JUMP JUMPDEST PUSH1 0x20 DUP3 ADD SWAP1 POP SWAP2 SWAP1 POP JUMP JUMPDEST PUSH1 0x0 PUSH1 0x20 DUP3 ADD SWAP1 POP DUP2 DUP2 SUB PUSH1 0x0 DUP4 ADD MSTORE PUSH2 0x38CA DUP2 PUSH2 0x388E JUMP JUMPDEST SWAP1 POP SWAP2 SWAP1 POP JUMP JUMPDEST PUSH32 0x5472616E73616374696F6E206973206E6F742070656E64696E67000000000000 PUSH1 0x0 DUP3 ADD MSTORE POP JUMP JUMPDEST PUSH1 0x0 PUSH2 0x3907 PUSH1 0x1A DUP4 PUSH2 0x2D98 JUMP JUMPDEST SWAP2 POP PUSH2 0x3912 DUP3 PUSH2 0x38D1 JUMP JUMPDEST PUSH1 0x20 DUP3 ADD SWAP1 POP SWAP2 SWAP1 POP JUMP JUMPDEST PUSH1 0x0 PUSH1 0x20 DUP3 ADD SWAP1 POP DUP2 DUP2 SUB PUSH1 0x0 DUP4 ADD MSTORE PUSH2 0x3936 DUP2 PUSH2 0x38FA JUMP JUMPDEST SWAP1 POP SWAP2 SWAP1 POP JUMP JUMPDEST PUSH32 0x4F6E6C792076657269666965722063616E20636F6D706C657465207472616E73 PUSH1 0x0 DUP3 ADD MSTORE PUSH32 0x616374696F6E7300000000000000000000000000000000000000000000000000 PUSH1 0x20 DUP3 ADD MSTORE POP JUMP JUMPDEST PUSH1 0x0 PUSH2 0x3999 PUSH1 0x27 DUP4 PUSH2 0x2D98 JUMP JUMPDEST SWAP2 POP PUSH2 0x39A4 DUP3 PUSH2 0x393D JUMP JUMPDEST PUSH1 0x40 DUP3 ADD SWAP1 POP SWAP2 SWAP1 POP JUMP JUMPDEST PUSH1 0x0 PUSH1 0x20 DUP3 ADD SWAP1 POP DUP2 DUP2 SUB PUSH1 0x0 DUP4 ADD MSTORE PUSH2 0x39C8 DUP2 PUSH2 0x398C JUMP JUMPDEST SWAP1 POP SWAP2 SWAP1 POP JUMP JUMPDEST PUSH1 0x0 PUSH2 0x39DC PUSH1 0x3 DUP4 PUSH2 0x3399 JUMP JUMPDEST SWAP2 POP PUSH2 0x39E7 DUP3 PUSH2 0x37AC JUMP JUMPDEST PUSH1 0x3 DUP3 ADD SWAP1 POP SWAP2 SWAP1 POP JUMP JUMPDEST PUSH1 0x0 PUSH2 0x39FD DUP3 PUSH2 0x39CF JUMP JUMPDEST SWAP2 POP DUP2 SWAP1 POP SWAP2 SWAP1 POP JUMP JUMPDEST PUSH1 0x0 DUP2 SLOAD PUSH2 0x3A14 DUP2 PUSH2 0x3285 JUMP JUMPDEST PUSH2 0x3A1E DUP2 DUP7 PUSH2 0x3399 JUMP JUMPDEST SWAP5 POP PUSH1 0x1 DUP3 AND PUSH1 0x0 DUP2 EQ PUSH2 0x3A39 JUMPI PUSH1 0x1 DUP2 EQ PUSH2 0x3A4E JUMPI PUSH2 0x3A81 JUMP JUMPDEST PUSH1 0xFF NOT DUP4 AND DUP7 MSTORE DUP2 ISZERO ISZERO DUP3 MUL DUP7 ADD SWAP4 POP PUSH2 0x3A81 JUMP JUMPDEST PUSH2 0x3A57 DUP6 PUSH2 0x3458 JUMP JUMPDEST PUSH1 0x0 JUMPDEST DUP4 DUP2 LT ISZERO PUSH2 0x3A79 JUMPI DUP2 SLOAD DUP2 DUP10 ADD MSTORE PUSH1 0x1 DUP3 ADD SWAP2 POP PUSH1 0x20 DUP2 ADD SWAP1 POP PUSH2 0x3A5A JUMP JUMPDEST DUP4 DUP9 ADD SWAP6 POP POP POP JUMPDEST POP POP POP SWAP3 SWAP2 POP POP JUMP JUMPDEST PUSH1 0x0 PUSH2 0x3A96 DUP3 DUP5 PUSH2 0x3A07 JUMP JUMPDEST SWAP2 POP DUP2 SWAP1 POP SWAP3 SWAP2 POP POP JUMP JUMPDEST PUSH1 0x0 PUSH1 0x40 DUP3 ADD SWAP1 POP PUSH2 0x3AB6 PUSH1 0x0 DUP4 ADD DUP6 PUSH2 0x2CEE JUMP JUMPDEST PUSH2 0x3AC3 PUSH1 0x20 DUP4 ADD DUP5 PUSH2 0x2D07 JUMP JUMPDEST SWAP4 SWAP3 POP POP POP JUMP JUMPDEST PUSH2 0x3AD3 DUP2 PUSH2 0x2EAA JUMP JUMPDEST DUP2 EQ PUSH2 0x3ADE JUMPI PUSH1 0x0 DUP1 REVERT JUMPDEST POP JUMP JUMPDEST PUSH1 0x0 DUP2 MLOAD SWAP1 POP PUSH2 0x3AF0 DUP2 PUSH2 0x3ACA JUMP JUMPDEST SWAP3 SWAP2 POP POP JUMP JUMPDEST PUSH1 0x0 PUSH1 0x20 DUP3 DUP5 SUB SLT ISZERO PUSH2 0x3B0C JUMPI PUSH2 0x3B0B PUSH2 0x2B23 JUMP JUMPDEST JUMPDEST PUSH1 0x0 PUSH2 0x3B1A DUP5 DUP3 DUP6 ADD PUSH2 0x3AE1 JUMP JUMPDEST SWAP2 POP POP SWAP3 SWAP2 POP POP JUMP JUMPDEST PUSH1 0x0 DUP2 SLOAD PUSH2 0x3B30 DUP2 PUSH2 0x3285 JUMP JUMPDEST PUSH2 0x3B3A DUP2 DUP7 PUSH2 0x2D98 JUMP JUMPDEST SWAP5 POP PUSH1 0x1 DUP3 AND PUSH1 0x0 DUP2 EQ PUSH2 0x3B55 JUMPI PUSH1 0x1 DUP2 EQ PUSH2 0x3B6B JUMPI PUSH2 0x3B9E JUMP JUMPDEST PUSH1 0xFF NOT DUP4 AND DUP7 MSTORE DUP2 ISZERO ISZERO PUSH1 0x20 MUL DUP7 ADD SWAP4 POP PUSH2 0x3B9E JUMP JUMPDEST PUSH2 0x3B74 DUP6 PUSH2 0x3458 JUMP JUMPDEST PUSH1 0x0 JUMPDEST DUP4 DUP2 LT ISZERO PUSH2 0x3B96 JUMPI DUP2 SLOAD DUP2 DUP10 ADD MSTORE PUSH1 0x1 DUP3 ADD SWAP2 POP PUSH1 0x20 DUP2 ADD SWAP1 POP PUSH2 0x3B77 JUMP JUMPDEST DUP1 DUP9 ADD SWAP6 POP POP POP JUMPDEST POP POP POP SWAP3 SWAP2 POP POP JUMP JUMPDEST PUSH1 0x0 PUSH1 0x40 DUP3 ADD SWAP1 POP PUSH2 0x3BBC PUSH1 0x0 DUP4 ADD DUP6 PUSH2 0x2D07 JUMP JUMPDEST DUP2 DUP2 SUB PUSH1 0x20 DUP4 ADD MSTORE PUSH2 0x3BCE DUP2 DUP5 PUSH2 0x3B23 JUMP JUMPDEST SWAP1 POP SWAP4 SWAP3 POP POP POP JUMP JUMPDEST PUSH32 0x416D6F756E74206D7573742062652067726561746572207468616E2030000000 PUSH1 0x0 DUP3 ADD MSTORE POP JUMP JUMPDEST PUSH1 0x0 PUSH2 0x3C0D PUSH1 0x1D DUP4 PUSH2 0x2D98 JUMP JUMPDEST SWAP2 POP PUSH2 0x3C18 DUP3 PUSH2 0x3BD7 JUMP JUMPDEST PUSH1 0x20 DUP3 ADD SWAP1 POP SWAP2 SWAP1 POP JUMP JUMPDEST PUSH1 0x0 PUSH1 0x20 DUP3 ADD SWAP1 POP DUP2 DUP2 SUB PUSH1 0x0 DUP4 ADD MSTORE PUSH2 0x3C3C DUP2 PUSH2 0x3C00 JUMP JUMPDEST SWAP1 POP SWAP2 SWAP1 POP JUMP JUMPDEST PUSH1 0x0 PUSH1 0x60 DUP3 ADD SWAP1 POP PUSH2 0x3C58 PUSH1 0x0 DUP4 ADD DUP7 PUSH2 0x2CEE JUMP JUMPDEST PUSH2 0x3C65 PUSH1 0x20 DUP4 ADD DUP6 PUSH2 0x2CEE JUMP JUMPDEST PUSH2 0x3C72 PUSH1 0x40 DUP4 ADD DUP5 PUSH2 0x2D07 JUMP JUMPDEST SWAP5 SWAP4 POP POP POP POP JUMP JUMPDEST PUSH32 0x5553444300000000000000000000000000000000000000000000000000000000 PUSH1 0x0 DUP3 ADD MSTORE POP JUMP JUMPDEST PUSH1 0x0 PUSH2 0x3CB0 PUSH1 0x4 DUP4 PUSH2 0x2D98 JUMP JUMPDEST SWAP2 POP PUSH2 0x3CBB DUP3 PUSH2 0x3C7A JUMP JUMPDEST PUSH1 0x20 DUP3 ADD SWAP1 POP SWAP2 SWAP1 POP JUMP JUMPDEST PUSH1 0x0 PUSH1 0xC0 DUP3 ADD SWAP1 POP DUP2 DUP2 SUB PUSH1 0x0 DUP4 ADD MSTORE PUSH2 0x3CE0 DUP2 DUP9 PUSH2 0x2DD3 JUMP JUMPDEST SWAP1 POP PUSH2 0x3CEF PUSH1 0x20 DUP4 ADD DUP8 PUSH2 0x2D07 JUMP JUMPDEST PUSH2 0x3CFC PUSH1 0x40 DUP4 ADD DUP7 PUSH2 0x2D07 JUMP JUMPDEST PUSH2 0x3D09 PUSH1 0x60 DUP4 ADD DUP6 PUSH2 0x2D07 JUMP JUMPDEST DUP2 DUP2 SUB PUSH1 0x80 DUP4 ADD MSTORE PUSH2 0x3D1A DUP2 PUSH2 0x3CA3 JUMP JUMPDEST SWAP1 POP PUSH2 0x3D29 PUSH1 0xA0 DUP4 ADD DUP5 PUSH2 0x2D07 JUMP JUMPDEST SWAP7 SWAP6 POP POP POP POP POP POP JUMP JUMPDEST PUSH1 0x0 DUP2 SWAP1 POP SWAP3 SWAP2 POP POP JUMP JUMPDEST POP JUMP JUMPDEST PUSH1 0x0 PUSH2 0x3D4E PUSH1 0x0 DUP4 PUSH2 0x3D33 JUMP JUMPDEST SWAP2 POP PUSH2 0x3D59 DUP3 PUSH2 0x3D3E JUMP JUMPDEST PUSH1 0x0 DUP3 ADD SWAP1 POP SWAP2 SWAP1 POP JUMP JUMPDEST PUSH1 0x0 PUSH2 0x3D6F DUP3 PUSH2 0x3D41 JUMP JUMPDEST SWAP2 POP DUP2 SWAP1 POP SWAP2 SWAP1 POP JUMP JUMPDEST PUSH32 0x455448207472616E7366657220746F206F776E6572206661696C656400000000 PUSH1 0x0 DUP3 ADD MSTORE POP JUMP JUMPDEST PUSH1 0x0 PUSH2 0x3DAF PUSH1 0x1C DUP4 PUSH2 0x2D98 JUMP JUMPDEST SWAP2 POP PUSH2 0x3DBA DUP3 PUSH2 0x3D79 JUMP JUMPDEST PUSH1 0x20 DUP3 ADD SWAP1 POP SWAP2 SWAP1 POP JUMP JUMPDEST PUSH1 0x0 PUSH1 0x20 DUP3 ADD SWAP1 POP DUP2 DUP2 SUB PUSH1 0x0 DUP4 ADD MSTORE PUSH2 0x3DDE DUP2 PUSH2 0x3DA2 JUMP JUMPDEST SWAP1 POP SWAP2 SWAP1 POP JUMP JUMPDEST PUSH1 0x0 DUP2 MLOAD SWAP1 POP PUSH2 0x3DF4 DUP2 PUSH2 0x2EE0 JUMP JUMPDEST SWAP3 SWAP2 POP POP JUMP JUMPDEST PUSH1 0x0 PUSH1 0x20 DUP3 DUP5 SUB SLT ISZERO PUSH2 0x3E10 JUMPI PUSH2 0x3E0F PUSH2 0x2B23 JUMP JUMPDEST JUMPDEST PUSH1 0x0 PUSH2 0x3E1E DUP5 DUP3 DUP6 ADD PUSH2 0x3DE5 JUMP JUMPDEST SWAP2 POP POP SWAP3 SWAP2 POP POP JUMP JUMPDEST PUSH32 0x4E6F20746F6B656E7320746F2077697468647261770000000000000000000000 PUSH1 0x0 DUP3 ADD MSTORE POP JUMP JUMPDEST PUSH1 0x0 PUSH2 0x3E5D PUSH1 0x15 DUP4 PUSH2 0x2D98 JUMP JUMPDEST SWAP2 POP PUSH2 0x3E68 DUP3 PUSH2 0x3E27 JUMP JUMPDEST PUSH1 0x20 DUP3 ADD SWAP1 POP SWAP2 SWAP1 POP JUMP JUMPDEST PUSH1 0x0 PUSH1 0x20 DUP3 ADD SWAP1 POP DUP2 DUP2 SUB PUSH1 0x0 DUP4 ADD MSTORE PUSH2 0x3E8C DUP2 PUSH2 0x3E50 JUMP JUMPDEST SWAP1 POP SWAP2 SWAP1 POP JUMP JUMPDEST PUSH32 0x5045505500000000000000000000000000000000000000000000000000000000 PUSH1 0x0 DUP3 ADD MSTORE POP JUMP JUMPDEST PUSH1 0x0 PUSH2 0x3EC9 PUSH1 0x4 DUP4 PUSH2 0x2D98 JUMP JUMPDEST SWAP2 POP PUSH2 0x3ED4 DUP3 PUSH2 0x3E93 JUMP JUMPDEST PUSH1 0x20 DUP3 ADD SWAP1 POP SWAP2 SWAP1 POP JUMP JUMPDEST PUSH1 0x0 PUSH1 0xC0 DUP3 ADD SWAP1 POP DUP2 DUP2 SUB PUSH1 0x0 DUP4 ADD MSTORE PUSH2 0x3EF9 DUP2 DUP9 PUSH2 0x2DD3 JUMP JUMPDEST SWAP1 POP PUSH2 0x3F08 PUSH1 0x20 DUP4 ADD DUP8 PUSH2 0x2D07 JUMP JUMPDEST PUSH2 0x3F15 PUSH1 0x40 DUP4 ADD DUP7 PUSH2 0x2D07 JUMP JUMPDEST PUSH2 0x3F22 PUSH1 0x60 DUP4 ADD DUP6 PUSH2 0x2D07 JUMP JUMPDEST DUP2 DUP2 SUB PUSH1 0x80 DUP4 ADD MSTORE PUSH2 0x3F33 DUP2 PUSH2 0x3EBC JUMP JUMPDEST SWAP1 POP PUSH2 0x3F42 PUSH1 0xA0 DUP4 ADD DUP5 PUSH2 0x2D07 JUMP JUMPDEST SWAP7 SWAP6 POP POP POP POP POP POP JUMP JUMPDEST PUSH32 0x4E6F2045544820746F2077697468647261770000000000000000000000000000 PUSH1 0x0 DUP3 ADD MSTORE POP JUMP JUMPDEST PUSH1 0x0 PUSH2 0x3F82 PUSH1 0x12 DUP4 PUSH2 0x2D98 JUMP JUMPDEST SWAP2 POP PUSH2 0x3F8D DUP3 PUSH2 0x3F4C JUMP JUMPDEST PUSH1 0x20 DUP3 ADD SWAP1 POP SWAP2 SWAP1 POP JUMP JUMPDEST PUSH1 0x0 PUSH1 0x20 DUP3 ADD SWAP1 POP DUP2 DUP2 SUB PUSH1 0x0 DUP4 ADD MSTORE PUSH2 0x3FB1 DUP2 PUSH2 0x3F75 JUMP JUMPDEST SWAP1 POP SWAP2 SWAP1 POP JUMP JUMPDEST PUSH32 0x50656E6B426F6E75732063616E6E6F7420657863656564203130250000000000 PUSH1 0x0 DUP3 ADD MSTORE POP JUMP JUMPDEST PUSH1 0x0 PUSH2 0x3FEE PUSH1 0x1B DUP4 PUSH2 0x2D98 JUMP JUMPDEST SWAP2 POP PUSH2 0x3FF9 DUP3 PUSH2 0x3FB8 JUMP JUMPDEST PUSH1 0x20 DUP3 ADD SWAP1 POP SWAP2 SWAP1 POP JUMP JUMPDEST PUSH1 0x0 PUSH1 0x20 DUP3 ADD SWAP1 POP DUP2 DUP2 SUB PUSH1 0x0 DUP4 ADD MSTORE PUSH2 0x401D DUP2 PUSH2 0x3FE1 JUMP JUMPDEST SWAP1 POP SWAP2 SWAP1 POP JUMP JUMPDEST PUSH1 0x0 PUSH1 0x40 DUP3 ADD SWAP1 POP PUSH2 0x4039 PUSH1 0x0 DUP4 ADD DUP6 PUSH2 0x2D07 JUMP JUMPDEST PUSH2 0x4046 PUSH1 0x20 DUP4 ADD DUP5 PUSH2 0x2D07 JUMP JUMPDEST SWAP4 SWAP3 POP POP POP JUMP JUMPDEST PUSH1 0x0 DUP2 PUSH1 0x60 SHL SWAP1 POP SWAP2 SWAP1 POP JUMP JUMPDEST PUSH1 0x0 PUSH2 0x4065 DUP3 PUSH2 0x404D JUMP JUMPDEST SWAP1 POP SWAP2 SWAP1 POP JUMP JUMPDEST PUSH1 0x0 PUSH2 0x4077 DUP3 PUSH2 0x405A JUMP JUMPDEST SWAP1 POP SWAP2 SWAP1 POP JUMP JUMPDEST PUSH2 0x408F PUSH2 0x408A DUP3 PUSH2 0x2CDC JUMP JUMPDEST PUSH2 0x406C JUMP JUMPDEST DUP3 MSTORE POP POP JUMP JUMPDEST PUSH1 0x0 DUP2 SWAP1 POP SWAP2 SWAP1 POP JUMP JUMPDEST PUSH2 0x40B0 PUSH2 0x40AB DUP3 PUSH2 0x2CFD JUMP JUMPDEST PUSH2 0x4095 JUMP JUMPDEST DUP3 MSTORE POP POP JUMP JUMPDEST PUSH1 0x0 PUSH2 0x40C2 DUP3 DUP9 PUSH2 0x407E JUMP JUMPDEST PUSH1 0x14 DUP3 ADD SWAP2 POP PUSH2 0x40D2 DUP3 DUP8 PUSH2 0x409F JUMP JUMPDEST PUSH1 0x20 DUP3 ADD SWAP2 POP PUSH2 0x40E2 DUP3 DUP7 PUSH2 0x407E JUMP JUMPDEST PUSH1 0x14 DUP3 ADD SWAP2 POP PUSH2 0x40F2 DUP3 DUP6 PUSH2 0x409F JUMP JUMPDEST PUSH1 0x20 DUP3 ADD SWAP2 POP PUSH2 0x4102 DUP3 DUP5 PUSH2 0x409F JUMP JUMPDEST PUSH1 0x20 DUP3 ADD SWAP2 POP DUP2 SWAP1 POP SWAP7 SWAP6 POP POP POP POP POP POP JUMP JUMPDEST PUSH32 0x3078000000000000000000000000000000000000000000000000000000000000 PUSH1 0x0 DUP3 ADD MSTORE POP JUMP JUMPDEST PUSH1 0x0 PUSH2 0x414B PUSH1 0x2 DUP4 PUSH2 0x3399 JUMP JUMPDEST SWAP2 POP PUSH2 0x4156 DUP3 PUSH2 0x4115 JUMP JUMPDEST PUSH1 0x2 DUP3 ADD SWAP1 POP SWAP2 SWAP1 POP JUMP JUMPDEST PUSH1 0x0 PUSH2 0x416C DUP3 PUSH2 0x413E JUMP JUMPDEST SWAP2 POP PUSH2 0x4178 DUP3 DUP5 PUSH2 0x33A4 JUMP JUMPDEST SWAP2 POP DUP2 SWAP1 POP SWAP3 SWAP2 POP POP JUMP JUMPDEST PUSH32 0x4E487B7100000000000000000000000000000000000000000000000000000000 PUSH1 0x0 MSTORE PUSH1 0x32 PUSH1 0x4 MSTORE PUSH1 0x24 PUSH1 0x0 REVERT INVALID LOG2 PUSH5 0x6970667358 0x22 SLT KECCAK256 SAR 0x49 PUSH9 0x9FAA143235252A9CD5 0xE7 SELFBALANCE PUSH6 0x1BCF93505188 ADDMOD 0xCA 0xF8 0xA6 BYTE DIV 0x2F MLOAD DUP6 0xA9 PUSH11 0x64736F6C63430008160033 "},"methodIdentifiers":{"PEPU_ADDRESS()":"0393ff74","USDC_ADDRESS()":"bb09d9b7","VERIFIER_ADDRESS()":"d8a34405","buy(string)":"492cc769","buyWithPEPU(string,uint256)":"8d78735a","buyWithUSDC(string,uint256)":"81abb055","completeTransaction(string)":"8438e7ea","getTransaction(string)":"ac2ccd07","getUserTransactions(address)":"ef925399","owner()":"8da5cb5b","pause()":"8456cb59","paused()":"5c975abb","penkBonusBasisPoints()":"0b6b7d9b","refundTransaction(string)":"7c9d5de9","renounceOwnership()":"715018a6","setPenkBonus(uint256)":"e2596ca3","transactionNonce()":"c7944ca1","transactions(string)":"022236f4","transferOwnership(address)":"f2fde38b","txidExists(string)":"aaf56ca5","unpause()":"3f4ba83a","userTransactions(address,uint256)":"b842ec44","withdrawETH()":"e086e5ec","withdrawToken(address)":"89476069"}},"storageLayout":{"storage":[{"astId":374,"contract":"contracts/L1.sol:PenkMarketL1","label":"_status","offset":0,"slot":"0","type":"t_uint256"},{"astId":8,"contract":"contracts/L1.sol:PenkMarketL1","label":"_owner","offset":0,"slot":"1","type":"t_address"},{"astId":264,"contract":"contracts/L1.sol:PenkMarketL1","label":"_paused","offset":20,"slot":"1","type":"t_bool"},{"astId":470,"contract":"contracts/L1.sol:PenkMarketL1","label":"transactionNonce","offset":0,"slot":"2","type":"t_uint256"},{"astId":475,"contract":"contracts/L1.sol:PenkMarketL1","label":"transactions","offset":0,"slot":"3","type":"t_mapping(t_string_memory_ptr,t_struct(Transaction)468_storage)"},{"astId":479,"contract":"contracts/L1.sol:PenkMarketL1","label":"txidExists","offset":0,"slot":"4","type":"t_mapping(t_string_memory_ptr,t_bool)"},{"astId":484,"contract":"contracts/L1.sol:PenkMarketL1","label":"userTransactions","offset":0,"slot":"5","type":"t_mapping(t_address,t_array(t_string_storage)dyn_storage)"},{"astId":487,"contract":"contracts/L1.sol:PenkMarketL1","label":"penkBonusBasisPoints","offset":0,"slot":"6","type":"t_uint256"}],"types":{"t_address":{"encoding":"inplace","label":"address","numberOfBytes":"20"},"t_array(t_string_storage)dyn_storage":{"base":"t_string_storage","encoding":"dynamic_array","label":"string[]","numberOfBytes":"32"},"t_bool":{"encoding":"inplace","label":"bool","numberOfBytes":"1"},"t_enum(TransactionStatus)454":{"encoding":"inplace","label":"enum PenkMarketL1.TransactionStatus","numberOfBytes":"1"},"t_mapping(t_address,t_array(t_string_storage)dyn_storage)":{"encoding":"mapping","key":"t_address","label":"mapping(address => string[])","numberOfBytes":"32","value":"t_array(t_string_storage)dyn_storage"},"t_mapping(t_string_memory_ptr,t_bool)":{"encoding":"mapping","key":"t_string_memory_ptr","label":"mapping(string => bool)","numberOfBytes":"32","value":"t_bool"},"t_mapping(t_string_memory_ptr,t_struct(Transaction)468_storage)":{"encoding":"mapping","key":"t_string_memory_ptr","label":"mapping(string => struct PenkMarketL1.Transaction)","numberOfBytes":"32","value":"t_struct(Transaction)468_storage"},"t_string_memory_ptr":{"encoding":"bytes","label":"string","numberOfBytes":"32"},"t_string_storage":{"encoding":"bytes","label":"string","numberOfBytes":"32"},"t_struct(Transaction)468_storage":{"encoding":"inplace","label":"struct PenkMarketL1.Transaction","members":[{"astId":456,"contract":"contracts/L1.sol:PenkMarketL1","label":"user","offset":0,"slot":"0","type":"t_address"},{"astId":458,"contract":"contracts/L1.sol:PenkMarketL1","label":"tokenAddress","offset":0,"slot":"1","type":"t_address"},{"astId":460,"contract":"contracts/L1.sol:PenkMarketL1","label":"amount","offset":0,"slot":"2","type":"t_uint256"},{"astId":462,"contract":"contracts/L1.sol:PenkMarketL1","label":"timestamp","offset":0,"slot":"3","type":"t_uint256"},{"astId":465,"contract":"contracts/L1.sol:PenkMarketL1","label":"status","offset":0,"slot":"4","type":"t_enum(TransactionStatus)454"},{"astId":467,"contract":"contracts/L1.sol:PenkMarketL1","label":"tokenType","offset":0,"slot":"5","type":"t_string_storage"}],"numberOfBytes":"192"},"t_uint256":{"encoding":"inplace","label":"uint256","numberOfBytes":"32"}}}}}}