{
  "_format": "hh-sol-artifact-1",
  "contractName": "PenkMarketL2",
  "sourceName": "contracts/L2.sol",
  "abi": [
    {
      "inputs": [
        {
          "internalType": "address",
          "name": "_verifierAddress",
          "type": "address"
        }
      ],
      "stateMutability": "nonpayable",
      "type": "constructor"
    },
    {
      "inputs": [],
      "name": "EnforcedPause",
      "type": "error"
    },
    {
      "inputs": [],
      "name": "ExpectedPause",
      "type": "error"
    },
    {
      "inputs": [
        {
          "internalType": "address",
          "name": "owner",
          "type": "address"
        }
      ],
      "name": "OwnableInvalidOwner",
      "type": "error"
    },
    {
      "inputs": [
        {
          "internalType": "address",
          "name": "account",
          "type": "address"
        }
      ],
      "name": "OwnableUnauthorizedAccount",
      "type": "error"
    },
    {
      "inputs": [],
      "name": "ReentrancyGuardReentrantCall",
      "type": "error"
    },
    {
      "anonymous": false,
      "inputs": [
        {
          "indexed": true,
          "internalType": "address",
          "name": "user",
          "type": "address"
        },
        {
          "indexed": false,
          "internalType": "uint256",
          "name": "amount",
          "type": "uint256"
        },
        {
          "indexed": false,
          "internalType": "uint256",
          "name": "timestamp",
          "type": "uint256"
        }
      ],
      "name": "Deposited",
      "type": "event"
    },
    {
      "anonymous": false,
      "inputs": [
        {
          "indexed": true,
          "internalType": "address",
          "name": "previousOwner",
          "type": "address"
        },
        {
          "indexed": true,
          "internalType": "address",
          "name": "newOwner",
          "type": "address"
        }
      ],
      "name": "OwnershipTransferred",
      "type": "event"
    },
    {
      "anonymous": false,
      "inputs": [
        {
          "indexed": false,
          "internalType": "address",
          "name": "account",
          "type": "address"
        }
      ],
      "name": "Paused",
      "type": "event"
    },
    {
      "anonymous": false,
      "inputs": [
        {
          "indexed": false,
          "internalType": "uint256",
          "name": "oldBasisPoints",
          "type": "uint256"
        },
        {
          "indexed": false,
          "internalType": "uint256",
          "name": "newBasisPoints",
          "type": "uint256"
        }
      ],
      "name": "SlippageUpdated",
      "type": "event"
    },
    {
      "anonymous": false,
      "inputs": [
        {
          "indexed": true,
          "internalType": "address",
          "name": "tokenOut",
          "type": "address"
        },
        {
          "indexed": false,
          "internalType": "uint256",
          "name": "pepuAmountIn",
          "type": "uint256"
        },
        {
          "indexed": false,
          "internalType": "uint256",
          "name": "tokenAmountOut",
          "type": "uint256"
        },
        {
          "indexed": true,
          "internalType": "address",
          "name": "recipient",
          "type": "address"
        },
        {
          "indexed": true,
          "internalType": "address",
          "name": "initiator",
          "type": "address"
        },
        {
          "indexed": false,
          "internalType": "uint24",
          "name": "fee",
          "type": "uint24"
        },
        {
          "indexed": false,
          "internalType": "uint256",
          "name": "timestamp",
          "type": "uint256"
        }
      ],
      "name": "Swapped",
      "type": "event"
    },
    {
      "anonymous": false,
      "inputs": [
        {
          "indexed": false,
          "internalType": "address",
          "name": "account",
          "type": "address"
        }
      ],
      "name": "Unpaused",
      "type": "event"
    },
    {
      "anonymous": false,
      "inputs": [
        {
          "indexed": true,
          "internalType": "address",
          "name": "by",
          "type": "address"
        },
        {
          "indexed": false,
          "internalType": "uint256",
          "name": "amount",
          "type": "uint256"
        },
        {
          "indexed": false,
          "internalType": "uint256",
          "name": "timestamp",
          "type": "uint256"
        }
      ],
      "name": "Withdrawn",
      "type": "event"
    },
    {
      "stateMutability": "payable",
      "type": "fallback"
    },
    {
      "inputs": [],
      "name": "QUOTER_ADDRESS",
      "outputs": [
        {
          "internalType": "address",
          "name": "",
          "type": "address"
        }
      ],
      "stateMutability": "view",
      "type": "function"
    },
    {
      "inputs": [],
      "name": "SWAP_ROUTER_ADDRESS",
      "outputs": [
        {
          "internalType": "address",
          "name": "",
          "type": "address"
        }
      ],
      "stateMutability": "view",
      "type": "function"
    },
    {
      "inputs": [],
      "name": "VERIFIER_ADDRESS",
      "outputs": [
        {
          "internalType": "address",
          "name": "",
          "type": "address"
        }
      ],
      "stateMutability": "view",
      "type": "function"
    },
    {
      "inputs": [],
      "name": "WPEPU_ADDRESS",
      "outputs": [
        {
          "internalType": "address",
          "name": "",
          "type": "address"
        }
      ],
      "stateMutability": "view",
      "type": "function"
    },
    {
      "inputs": [],
      "name": "deposit",
      "outputs": [],
      "stateMutability": "payable",
      "type": "function"
    },
    {
      "inputs": [],
      "name": "emergencyPause",
      "outputs": [],
      "stateMutability": "nonpayable",
      "type": "function"
    },
    {
      "inputs": [],
      "name": "emergencyUnpause",
      "outputs": [],
      "stateMutability": "nonpayable",
      "type": "function"
    },
    {
      "inputs": [],
      "name": "emergencyWithdrawAll",
      "outputs": [],
      "stateMutability": "nonpayable",
      "type": "function"
    },
    {
      "inputs": [
        {
          "internalType": "uint256",
          "name": "",
          "type": "uint256"
        }
      ],
      "name": "feeTiers",
      "outputs": [
        {
          "internalType": "uint24",
          "name": "",
          "type": "uint24"
        }
      ],
      "stateMutability": "view",
      "type": "function"
    },
    {
      "inputs": [],
      "name": "getContractBalance",
      "outputs": [
        {
          "internalType": "uint256",
          "name": "",
          "type": "uint256"
        }
      ],
      "stateMutability": "view",
      "type": "function"
    },
    {
      "inputs": [
        {
          "internalType": "uint256",
          "name": "amountIn",
          "type": "uint256"
        },
        {
          "internalType": "address",
          "name": "tokenOut",
          "type": "address"
        }
      ],
      "name": "getQuote",
      "outputs": [
        {
          "internalType": "uint256",
          "name": "amountOut",
          "type": "uint256"
        },
        {
          "internalType": "uint24",
          "name": "fee",
          "type": "uint24"
        }
      ],
      "stateMutability": "nonpayable",
      "type": "function"
    },
    {
      "inputs": [],
      "name": "owner",
      "outputs": [
        {
          "internalType": "address",
          "name": "",
          "type": "address"
        }
      ],
      "stateMutability": "view",
      "type": "function"
    },
    {
      "inputs": [],
      "name": "paused",
      "outputs": [
        {
          "internalType": "bool",
          "name": "",
          "type": "bool"
        }
      ],
      "stateMutability": "view",
      "type": "function"
    },
    {
      "inputs": [],
      "name": "renounceOwnership",
      "outputs": [],
      "stateMutability": "nonpayable",
      "type": "function"
    },
    {
      "inputs": [],
      "name": "slippageBasisPoints",
      "outputs": [
        {
          "internalType": "uint256",
          "name": "",
          "type": "uint256"
        }
      ],
      "stateMutability": "view",
      "type": "function"
    },
    {
      "inputs": [
        {
          "internalType": "uint256",
          "name": "amount",
          "type": "uint256"
        },
        {
          "internalType": "address",
          "name": "tokenAddress",
          "type": "address"
        },
        {
          "internalType": "address",
          "name": "userAddress",
          "type": "address"
        }
      ],
      "name": "swap",
      "outputs": [],
      "stateMutability": "nonpayable",
      "type": "function"
    },
    {
      "inputs": [
        {
          "internalType": "address",
          "name": "newOwner",
          "type": "address"
        }
      ],
      "name": "transferOwnership",
      "outputs": [],
      "stateMutability": "nonpayable",
      "type": "function"
    },
    {
      "inputs": [
        {
          "internalType": "uint256",
          "name": "newBasisPoints",
          "type": "uint256"
        }
      ],
      "name": "updateSlippage",
      "outputs": [],
      "stateMutability": "nonpayable",
      "type": "function"
    },
    {
      "inputs": [
        {
          "internalType": "uint256",
          "name": "amount",
          "type": "uint256"
        }
      ],
      "name": "withdraw",
      "outputs": [],
      "stateMutability": "nonpayable",
      "type": "function"
    },
    {
      "stateMutability": "payable",
      "type": "receive"
    }
  ],
  "bytecode": "0x60a060405260405180606001604052806101f461ffff168152602001610bb861ffff16815260200161271061ffff168152506002906003620000439291906200027f565b5060326003553480156200005657600080fd5b5060405162002d4338038062002d4383398181016040528101906200007c9190620003ae565b336001600081905550600073ffffffffffffffffffffffffffffffffffffffff168173ffffffffffffffffffffffffffffffffffffffff1603620000fa5760006040517f1e4fbdf7000000000000000000000000000000000000000000000000000000008152600401620000f19190620003f1565b60405180910390fd5b6200010b81620001b960201b60201c565b50600073ffffffffffffffffffffffffffffffffffffffff168173ffffffffffffffffffffffffffffffffffffffff16036200017e576040517f08c379a000000000000000000000000000000000000000000000000000000000815260040162000175906200046f565b60405180910390fd5b8073ffffffffffffffffffffffffffffffffffffffff1660808173ffffffffffffffffffffffffffffffffffffffff16815250505062000491565b6000600160009054906101000a900473ffffffffffffffffffffffffffffffffffffffff16905081600160006101000a81548173ffffffffffffffffffffffffffffffffffffffff021916908373ffffffffffffffffffffffffffffffffffffffff1602179055508173ffffffffffffffffffffffffffffffffffffffff168173ffffffffffffffffffffffffffffffffffffffff167f8be0079c531659141344cd1fd0a4f28419497f9722a3daafe3b4186f6b6457e060405160405180910390a35050565b826003600901600a90048101928215620003125791602002820160005b83821115620002df57835183826101000a81548162ffffff021916908361ffff16021790555092602001926003016020816002010492830192600103026200029c565b8015620003105782816101000a81549062ffffff0219169055600301602081600201049283019260010302620002df565b505b50905062000321919062000325565b5090565b5b808211156200034057600081600090555060010162000326565b5090565b600080fd5b600073ffffffffffffffffffffffffffffffffffffffff82169050919050565b6000620003768262000349565b9050919050565b620003888162000369565b81146200039457600080fd5b50565b600081519050620003a8816200037d565b92915050565b600060208284031215620003c757620003c662000344565b5b6000620003d78482850162000397565b91505092915050565b620003eb8162000369565b82525050565b6000602082019050620004086000830184620003e0565b92915050565b600082825260208201905092915050565b7f496e76616c696420766572696669657220616464726573730000000000000000600082015250565b6000620004576018836200040e565b915062000464826200041f565b602082019050919050565b600060208201905081810360008301526200048a8162000448565b9050919050565b608051612888620004bb6000396000818161058c015281816109710152610d1201526128886000f3fe6080604052600436106101185760003560e01c80635c975abb116100a0578063ba86003311610064578063ba860033146103d4578063d0e30db014610412578063d8a344051461041c578063dd19171914610447578063f2fde38b1461045e5761016f565b80635c975abb146103115780636f9fb98a1461033c578063715018a6146103675780638da5cb5b1461037e5780639194da63146103a95761016f565b80634a4e3bd5116100e75780634a4e3bd5146102625780634cfed62d1461027957806351858e27146102a457806352ef1da9146102bb5780635880c7eb146102e65761016f565b806315b0d496146101aa578063230ed44a146101d35780632b7f0923146102105780632e1a7d4d146102395761016f565b3661016f573373ffffffffffffffffffffffffffffffffffffffff167f73a19dd210f1a7f902193214c0ee91dd35ee5b4d920cba8d519eca65a7b488ca3442604051610165929190611713565b60405180910390a2005b6040517f08c379a00000000000000000000000000000000000000000000000000000000081526004016101a190611799565b60405180910390fd5b3480156101b657600080fd5b506101d160048036038101906101cc91906117f9565b610487565b005b3480156101df57600080fd5b506101fa60048036038101906101f591906117f9565b61051f565b6040516102079190611844565b60405180910390f35b34801561021c57600080fd5b50610237600480360381019061023291906118bd565b61054e565b005b34801561024557600080fd5b50610260600480360381019061025b91906117f9565b610933565b005b34801561026e57600080fd5b50610277610b94565b005b34801561028557600080fd5b5061028e610ba6565b60405161029b919061191f565b60405180910390f35b3480156102b057600080fd5b506102b9610bbe565b005b3480156102c757600080fd5b506102d0610bd0565b6040516102dd919061193a565b60405180910390f35b3480156102f257600080fd5b506102fb610bd6565b604051610308919061191f565b60405180910390f35b34801561031d57600080fd5b50610326610bee565b6040516103339190611970565b60405180910390f35b34801561034857600080fd5b50610351610c05565b60405161035e919061193a565b60405180910390f35b34801561037357600080fd5b5061037c610c0d565b005b34801561038a57600080fd5b50610393610c21565b6040516103a0919061191f565b60405180910390f35b3480156103b557600080fd5b506103be610c4b565b6040516103cb919061191f565b60405180910390f35b3480156103e057600080fd5b506103fb60048036038101906103f6919061198b565b610c63565b6040516104099291906119cb565b60405180910390f35b61041a610c7b565b005b34801561042857600080fd5b50610431610d10565b60405161043e919061191f565b60405180910390f35b34801561045357600080fd5b5061045c610d34565b005b34801561046a57600080fd5b50610485600480360381019061048091906119f4565b610e9b565b005b61048f610f21565b6103e88111156104d4576040517f08c379a00000000000000000000000000000000000000000000000000000000081526004016104cb90611a6d565b60405180910390fd5b60006003549050816003819055507f07af09e2b23ebab5dd29fa2271d6ca4795031f308caf26ca605f4a719ffeed618183604051610513929190611713565b60405180910390a15050565b6002816003811061052f57600080fd5b600a9182820401919006600302915054906101000a900462ffffff1681565b610556610c21565b73ffffffffffffffffffffffffffffffffffffffff163373ffffffffffffffffffffffffffffffffffffffff1614806105da57507f000000000000000000000000000000000000000000000000000000000000000073ffffffffffffffffffffffffffffffffffffffff163373ffffffffffffffffffffffffffffffffffffffff16145b610619576040517f08c379a000000000000000000000000000000000000000000000000000000000815260040161061090611aff565b60405180910390fd5b610621610fa8565b610629610fee565b6000831161066c576040517f08c379a000000000000000000000000000000000000000000000000000000000815260040161066390611b6b565b60405180910390fd5b600073ffffffffffffffffffffffffffffffffffffffff168273ffffffffffffffffffffffffffffffffffffffff16036106db576040517f08c379a00000000000000000000000000000000000000000000000000000000081526004016106d290611bd7565b60405180910390fd5b600073ffffffffffffffffffffffffffffffffffffffff168173ffffffffffffffffffffffffffffffffffffffff160361074a576040517f08c379a000000000000000000000000000000000000000000000000000000000815260040161074190611c43565b60405180910390fd5b8247101561078d576040517f08c379a000000000000000000000000000000000000000000000000000000000815260040161078490611cd5565b60405180910390fd5b73f9cf4a16d26979b929be7176bac4e7084975fcb873ffffffffffffffffffffffffffffffffffffffff168273ffffffffffffffffffffffffffffffffffffffff160361080f576040517f08c379a000000000000000000000000000000000000000000000000000000000815260040161080690611d41565b60405180910390fd5b60008061081c858561102f565b9150915060008211610863576040517f08c379a000000000000000000000000000000000000000000000000000000000815260040161085a90611dd3565b60405180910390fd5b60006127106003546127106108789190611e22565b846108839190611e56565b61088d9190611ec7565b9050600061089e878787868661120f565b90503373ffffffffffffffffffffffffffffffffffffffff168573ffffffffffffffffffffffffffffffffffffffff168773ffffffffffffffffffffffffffffffffffffffff167fe172ec5934c8d910607dcc11b22870cca678b519df70870e92b74a520bcaec9c8a85884260405161091a9493929190611ef8565b60405180910390a45050505061092e61151d565b505050565b61093b610c21565b73ffffffffffffffffffffffffffffffffffffffff163373ffffffffffffffffffffffffffffffffffffffff1614806109bf57507f000000000000000000000000000000000000000000000000000000000000000073ffffffffffffffffffffffffffffffffffffffff163373ffffffffffffffffffffffffffffffffffffffff16145b6109fe576040517f08c379a00000000000000000000000000000000000000000000000000000000081526004016109f590611aff565b60405180910390fd5b610a06610fa8565b60008111610a49576040517f08c379a0000000000000000000000000000000000000000000000000000000008152600401610a4090611b6b565b60405180910390fd5b80471015610a8c576040517f08c379a0000000000000000000000000000000000000000000000000000000008152600401610a8390611f89565b60405180910390fd5b60003373ffffffffffffffffffffffffffffffffffffffff1682604051610ab290611fda565b60006040518083038185875af1925050503d8060008114610aef576040519150601f19603f3d011682016040523d82523d6000602084013e610af4565b606091505b5050905080610b38576040517f08c379a0000000000000000000000000000000000000000000000000000000008152600401610b2f9061203b565b60405180910390fd5b3373ffffffffffffffffffffffffffffffffffffffff167f92ccf450a286a957af52509bc1c9939d1a6a481783e142e41e2499f0bb66ebc68342604051610b80929190611713565b60405180910390a250610b9161151d565b50565b610b9c610f21565b610ba4611527565b565b73f9cf4a16d26979b929be7176bac4e7084975fcb881565b610bc6610f21565b610bce61158a565b565b60035481565b73d647b2d80b48e93613aa6982b85f8909578b482981565b6000600160149054906101000a900460ff16905090565b600047905090565b610c15610f21565b610c1f60006115ec565b565b6000600160009054906101000a900473ffffffffffffffffffffffffffffffffffffffff16905090565b73150c3f0f16c3d9eb34351d7af9c961fedc97a0fb81565b600080610c70848461102f565b915091509250929050565b60003411610cbe576040517f08c379a0000000000000000000000000000000000000000000000000000000008152600401610cb5906120a7565b60405180910390fd5b3373ffffffffffffffffffffffffffffffffffffffff167f73a19dd210f1a7f902193214c0ee91dd35ee5b4d920cba8d519eca65a7b488ca3442604051610d06929190611713565b60405180910390a2565b7f000000000000000000000000000000000000000000000000000000000000000081565b610d3c610f21565b610d44610fa8565b600047905060008111610d8c576040517f08c379a0000000000000000000000000000000000000000000000000000000008152600401610d8390612113565b60405180910390fd5b6000610d96610c21565b73ffffffffffffffffffffffffffffffffffffffff1682604051610db990611fda565b60006040518083038185875af1925050503d8060008114610df6576040519150601f19603f3d011682016040523d82523d6000602084013e610dfb565b606091505b5050905080610e3f576040517f08c379a0000000000000000000000000000000000000000000000000000000008152600401610e369061217f565b60405180910390fd5b3373ffffffffffffffffffffffffffffffffffffffff167f92ccf450a286a957af52509bc1c9939d1a6a481783e142e41e2499f0bb66ebc68342604051610e87929190611713565b60405180910390a25050610e9961151d565b565b610ea3610f21565b600073ffffffffffffffffffffffffffffffffffffffff168173ffffffffffffffffffffffffffffffffffffffff1603610f155760006040517f1e4fbdf7000000000000000000000000000000000000000000000000000000008152600401610f0c919061191f565b60405180910390fd5b610f1e816115ec565b50565b610f296116b2565b73ffffffffffffffffffffffffffffffffffffffff16610f47610c21565b73ffffffffffffffffffffffffffffffffffffffff1614610fa657610f6a6116b2565b6040517f118cdaa7000000000000000000000000000000000000000000000000000000008152600401610f9d919061191f565b60405180910390fd5b565b600260005403610fe4576040517f3ee5aeb500000000000000000000000000000000000000000000000000000000815260040160405180910390fd5b6002600081905550565b610ff6610bee565b1561102d576040517fd93c066500000000000000000000000000000000000000000000000000000000815260040160405180910390fd5b565b600080600073d647b2d80b48e93613aa6982b85f8909578b482990506000925060026001600381106110645761106361219f565b5b600a91828204019190066003029054906101000a900462ffffff16915060005b6003811015611206578173ffffffffffffffffffffffffffffffffffffffff1663c6a5026a6040518060a0016040528073f9cf4a16d26979b929be7176bac4e7084975fcb873ffffffffffffffffffffffffffffffffffffffff1681526020018873ffffffffffffffffffffffffffffffffffffffff1681526020018981526020016002856003811061111a5761111961219f565b5b600a91828204019190066003029054906101000a900462ffffff1662ffffff168152602001600073ffffffffffffffffffffffffffffffffffffffff168152506040518263ffffffff1660e01b81526004016111769190612272565b6080604051808303816000875af19250505080156111b257506040513d601f19601f820116820180604052508101906111af919061230a565b60015b156111f957878411156111f457839750600285600381106111d6576111d561219f565b5b600a91828204019190066003029054906101000a900462ffffff1696505b505050505b8080600101915050611084565b50509250929050565b60008073150c3f0f16c3d9eb34351d7af9c961fedc97a0fb905060006040518060e0016040528073f9cf4a16d26979b929be7176bac4e7084975fcb873ffffffffffffffffffffffffffffffffffffffff1681526020018873ffffffffffffffffffffffffffffffffffffffff1681526020018662ffffff1681526020018773ffffffffffffffffffffffffffffffffffffffff168152602001898152602001858152602001600073ffffffffffffffffffffffffffffffffffffffff1681525090506000600267ffffffffffffffff8111156112ef576112ee612371565b5b60405190808252806020026020018201604052801561132257816020015b606081526020019060019003908161130d5790505b5090506304e45aaf60e01b8260405160240161133e919061242e565b604051602081830303815290604052907bffffffffffffffffffffffffffffffffffffffffffffffffffffffff19166020820180517bffffffffffffffffffffffffffffffffffffffffffffffffffffffff8381831617835250505050816000815181106113af576113ae61219f565b5b60200260200101819052506312210e8a60e01b604051602401604051602081830303815290604052907bffffffffffffffffffffffffffffffffffffffffffffffffffffffff19166020820180517bffffffffffffffffffffffffffffffffffffffffffffffffffffffff8381831617835250505050816001815181106114395761143861219f565b5b602002602001018190525060006104b0426114549190612449565b905060008473ffffffffffffffffffffffffffffffffffffffff16635ae401dc8c84866040518463ffffffff1660e01b81526004016114949291906125cf565b60006040518083038185885af11580156114b2573d6000803e3d6000fd5b50505050506040513d6000823e3d601f19601f820116820180604052508101906114dc91906127dc565b9050806000815181106114f2576114f161219f565b5b602002602001015180602001905181019061150d9190612825565b9550505050505095945050505050565b6001600081905550565b61152f6116ba565b6000600160146101000a81548160ff0219169083151502179055507f5db9ee0a495bf2e6ff9c91a7834c1ba4fdd244a5e8aa4e537bd38aeae4b073aa6115736116b2565b604051611580919061191f565b60405180910390a1565b611592610fee565b60018060146101000a81548160ff0219169083151502179055507f62e78cea01bee320cd4e420270b5ea74000d11b0c9f74754ebdbfc544b05a2586115d56116b2565b6040516115e2919061191f565b60405180910390a1565b6000600160009054906101000a900473ffffffffffffffffffffffffffffffffffffffff16905081600160006101000a81548173ffffffffffffffffffffffffffffffffffffffff021916908373ffffffffffffffffffffffffffffffffffffffff1602179055508173ffffffffffffffffffffffffffffffffffffffff168173ffffffffffffffffffffffffffffffffffffffff167f8be0079c531659141344cd1fd0a4f28419497f9722a3daafe3b4186f6b6457e060405160405180910390a35050565b600033905090565b6116c2610bee565b6116f8576040517f8dfc202b00000000000000000000000000000000000000000000000000000000815260040160405180910390fd5b565b6000819050919050565b61170d816116fa565b82525050565b60006040820190506117286000830185611704565b6117356020830184611704565b9392505050565b600082825260208201905092915050565b7f46756e6374696f6e206e6f7420666f756e640000000000000000000000000000600082015250565b600061178360128361173c565b915061178e8261174d565b602082019050919050565b600060208201905081810360008301526117b281611776565b9050919050565b6000604051905090565b600080fd5b600080fd5b6117d6816116fa565b81146117e157600080fd5b50565b6000813590506117f3816117cd565b92915050565b60006020828403121561180f5761180e6117c3565b5b600061181d848285016117e4565b91505092915050565b600062ffffff82169050919050565b61183e81611826565b82525050565b60006020820190506118596000830184611835565b92915050565b600073ffffffffffffffffffffffffffffffffffffffff82169050919050565b600061188a8261185f565b9050919050565b61189a8161187f565b81146118a557600080fd5b50565b6000813590506118b781611891565b92915050565b6000806000606084860312156118d6576118d56117c3565b5b60006118e4868287016117e4565b93505060206118f5868287016118a8565b9250506040611906868287016118a8565b9150509250925092565b6119198161187f565b82525050565b60006020820190506119346000830184611910565b92915050565b600060208201905061194f6000830184611704565b92915050565b60008115159050919050565b61196a81611955565b82525050565b60006020820190506119856000830184611961565b92915050565b600080604083850312156119a2576119a16117c3565b5b60006119b0858286016117e4565b92505060206119c1858286016118a8565b9150509250929050565b60006040820190506119e06000830185611704565b6119ed6020830184611835565b9392505050565b600060208284031215611a0a57611a096117c3565b5b6000611a18848285016118a8565b91505092915050565b7f536c6970706167652063616e6e6f742065786365656420313025000000000000600082015250565b6000611a57601a8361173c565b9150611a6282611a21565b602082019050919050565b60006020820190508181036000830152611a8681611a4a565b9050919050565b7f4f6e6c79206f776e6572206f722076657269666965722063616e2063616c6c2060008201527f746869732066756e6374696f6e00000000000000000000000000000000000000602082015250565b6000611ae9602d8361173c565b9150611af482611a8d565b604082019050919050565b60006020820190508181036000830152611b1881611adc565b9050919050565b7f416d6f756e74206d7573742062652067726561746572207468616e2030000000600082015250565b6000611b55601d8361173c565b9150611b6082611b1f565b602082019050919050565b60006020820190508181036000830152611b8481611b48565b9050919050565b7f496e76616c696420746f6b656e20616464726573730000000000000000000000600082015250565b6000611bc160158361173c565b9150611bcc82611b8b565b602082019050919050565b60006020820190508181036000830152611bf081611bb4565b9050919050565b7f496e76616c696420757365722061646472657373000000000000000000000000600082015250565b6000611c2d60148361173c565b9150611c3882611bf7565b602082019050919050565b60006020820190508181036000830152611c5c81611c20565b9050919050565b7f496e73756666696369656e7420504550552062616c616e636520696e20636f6e60008201527f7472616374000000000000000000000000000000000000000000000000000000602082015250565b6000611cbf60258361173c565b9150611cca82611c63565b604082019050919050565b60006020820190508181036000830152611cee81611cb2565b9050919050565b7f43616e6e6f74207377617020746f205750455055206469726563746c79000000600082015250565b6000611d2b601d8361173c565b9150611d3682611cf5565b602082019050919050565b60006020820190508181036000830152611d5a81611d1e565b9050919050565b7f4e6f206c697175696469747920617661696c61626c6520666f7220746869732060008201527f746f6b656e000000000000000000000000000000000000000000000000000000602082015250565b6000611dbd60258361173c565b9150611dc882611d61565b604082019050919050565b60006020820190508181036000830152611dec81611db0565b9050919050565b7f4e487b7100000000000000000000000000000000000000000000000000000000600052601160045260246000fd5b6000611e2d826116fa565b9150611e38836116fa565b9250828203905081811115611e5057611e4f611df3565b5b92915050565b6000611e61826116fa565b9150611e6c836116fa565b9250828202611e7a816116fa565b91508282048414831517611e9157611e90611df3565b5b5092915050565b7f4e487b7100000000000000000000000000000000000000000000000000000000600052601260045260246000fd5b6000611ed2826116fa565b9150611edd836116fa565b925082611eed57611eec611e98565b5b828204905092915050565b6000608082019050611f0d6000830187611704565b611f1a6020830186611704565b611f276040830185611835565b611f346060830184611704565b95945050505050565b7f496e73756666696369656e7420636f6e74726163742062616c616e6365000000600082015250565b6000611f73601d8361173c565b9150611f7e82611f3d565b602082019050919050565b60006020820190508181036000830152611fa281611f66565b9050919050565b600081905092915050565b50565b6000611fc4600083611fa9565b9150611fcf82611fb4565b600082019050919050565b6000611fe582611fb7565b9150819050919050565b7f50455055207472616e73666572206661696c6564000000000000000000000000600082015250565b600061202560148361173c565b915061203082611fef565b602082019050919050565b6000602082019050818103600083015261205481612018565b9050919050565b7f4d7573742073656e642050455055000000000000000000000000000000000000600082015250565b6000612091600e8361173c565b915061209c8261205b565b602082019050919050565b600060208201905081810360008301526120c081612084565b9050919050565b7f4e6f205045505520746f20776974686472617700000000000000000000000000600082015250565b60006120fd60138361173c565b9150612108826120c7565b602082019050919050565b6000602082019050818103600083015261212c816120f0565b9050919050565b7f456d657267656e6379207769746864726177616c206661696c65640000000000600082015250565b6000612169601b8361173c565b915061217482612133565b602082019050919050565b600060208201905081810360008301526121988161215c565b9050919050565b7f4e487b7100000000000000000000000000000000000000000000000000000000600052603260045260246000fd5b6121d78161187f565b82525050565b6121e6816116fa565b82525050565b6121f581611826565b82525050565b6122048161185f565b82525050565b60a08201600082015161222060008501826121ce565b50602082015161223360208501826121ce565b50604082015161224660408501826121dd565b50606082015161225960608501826121ec565b50608082015161226c60808501826121fb565b50505050565b600060a082019050612287600083018461220a565b92915050565b60008151905061229c816117cd565b92915050565b6122ab8161185f565b81146122b657600080fd5b50565b6000815190506122c8816122a2565b92915050565b600063ffffffff82169050919050565b6122e7816122ce565b81146122f257600080fd5b50565b600081519050612304816122de565b92915050565b60008060008060808587031215612324576123236117c3565b5b60006123328782880161228d565b9450506020612343878288016122b9565b9350506040612354878288016122f5565b92505060606123658782880161228d565b91505092959194509250565b7f4e487b7100000000000000000000000000000000000000000000000000000000600052604160045260246000fd5b60e0820160008201516123b660008501826121ce565b5060208201516123c960208501826121ce565b5060408201516123dc60408501826121ec565b5060608201516123ef60608501826121ce565b50608082015161240260808501826121dd565b5060a082015161241560a08501826121dd565b5060c082015161242860c08501826121fb565b50505050565b600060e08201905061244360008301846123a0565b92915050565b6000612454826116fa565b915061245f836116fa565b925082820190508082111561247757612476611df3565b5b92915050565b600081519050919050565b600082825260208201905092915050565b6000819050602082019050919050565b600081519050919050565b600082825260208201905092915050565b60005b838110156124e35780820151818401526020810190506124c8565b60008484015250505050565b6000601f19601f8301169050919050565b600061250b826124a9565b61251581856124b4565b93506125258185602086016124c5565b61252e816124ef565b840191505092915050565b60006125458383612500565b905092915050565b6000602082019050919050565b60006125658261247d565b61256f8185612488565b93508360208202850161258185612499565b8060005b858110156125bd578484038952815161259e8582612539565b94506125a98361254d565b925060208a01995050600181019050612585565b50829750879550505050505092915050565b60006040820190506125e46000830185611704565b81810360208301526125f6818461255a565b90509392505050565b600080fd5b61260d826124ef565b810181811067ffffffffffffffff8211171561262c5761262b612371565b5b80604052505050565b600061263f6117b9565b905061264b8282612604565b919050565b600067ffffffffffffffff82111561266b5761266a612371565b5b602082029050602081019050919050565b600080fd5b600080fd5b600067ffffffffffffffff8211156126a1576126a0612371565b5b6126aa826124ef565b9050602081019050919050565b60006126ca6126c584612686565b612635565b9050828152602081018484840111156126e6576126e5612681565b5b6126f18482856124c5565b509392505050565b600082601f83011261270e5761270d6125ff565b5b815161271e8482602086016126b7565b91505092915050565b600061273a61273584612650565b612635565b9050808382526020820190506020840283018581111561275d5761275c61267c565b5b835b818110156127a457805167ffffffffffffffff811115612782576127816125ff565b5b80860161278f89826126f9565b8552602085019450505060208101905061275f565b5050509392505050565b600082601f8301126127c3576127c26125ff565b5b81516127d3848260208601612727565b91505092915050565b6000602082840312156127f2576127f16117c3565b5b600082015167ffffffffffffffff8111156128105761280f6117c8565b5b61281c848285016127ae565b91505092915050565b60006020828403121561283b5761283a6117c3565b5b60006128498482850161228d565b9150509291505056fea264697066735822122058038af59e807a3b31156258518884dc3a2dae58ea84f8f52d9fa5f4abe5fc0464736f6c63430008180033",
  "linkReferences": {},
  "deployedLinkReferences": {}
}