{
  "_format": "hh-sol-artifact-1",
  "contractName": "PenkMarketL2",
  "sourceName": "contracts/L2.sol",
  "abi": [
    {
      "inputs": [
        {
          "internalType": "address",
          "name": "_verifierAddress",
          "type": "address"
        }
      ],
      "stateMutability": "nonpayable",
      "type": "constructor"
    },
    {
      "inputs": [],
      "name": "EnforcedPause",
      "type": "error"
    },
    {
      "inputs": [],
      "name": "ExpectedPause",
      "type": "error"
    },
    {
      "inputs": [
        {
          "internalType": "address",
          "name": "owner",
          "type": "address"
        }
      ],
      "name": "OwnableInvalidOwner",
      "type": "error"
    },
    {
      "inputs": [
        {
          "internalType": "address",
          "name": "account",
          "type": "address"
        }
      ],
      "name": "OwnableUnauthorizedAccount",
      "type": "error"
    },
    {
      "inputs": [],
      "name": "ReentrancyGuardReentrantCall",
      "type": "error"
    },
    {
      "anonymous": false,
      "inputs": [
        {
          "indexed": true,
          "internalType": "address",
          "name": "user",
          "type": "address"
        },
        {
          "indexed": false,
          "internalType": "uint256",
          "name": "amount",
          "type": "uint256"
        },
        {
          "indexed": false,
          "internalType": "uint256",
          "name": "timestamp",
          "type": "uint256"
        }
      ],
      "name": "Deposited",
      "type": "event"
    },
    {
      "anonymous": false,
      "inputs": [
        {
          "indexed": true,
          "internalType": "address",
          "name": "previousOwner",
          "type": "address"
        },
        {
          "indexed": true,
          "internalType": "address",
          "name": "newOwner",
          "type": "address"
        }
      ],
      "name": "OwnershipTransferred",
      "type": "event"
    },
    {
      "anonymous": false,
      "inputs": [
        {
          "indexed": false,
          "internalType": "address",
          "name": "account",
          "type": "address"
        }
      ],
      "name": "Paused",
      "type": "event"
    },
    {
      "anonymous": false,
      "inputs": [
        {
          "indexed": false,
          "internalType": "uint256",
          "name": "amount",
          "type": "uint256"
        },
        {
          "indexed": true,
          "internalType": "address",
          "name": "recipient",
          "type": "address"
        },
        {
          "indexed": true,
          "internalType": "address",
          "name": "initiator",
          "type": "address"
        },
        {
          "indexed": false,
          "internalType": "uint256",
          "name": "timestamp",
          "type": "uint256"
        },
        {
          "indexed": false,
          "internalType": "string",
          "name": "txid",
          "type": "string"
        }
      ],
      "name": "Swapped",
      "type": "event"
    },
    {
      "anonymous": false,
      "inputs": [
        {
          "indexed": false,
          "internalType": "address",
          "name": "account",
          "type": "address"
        }
      ],
      "name": "Unpaused",
      "type": "event"
    },
    {
      "anonymous": false,
      "inputs": [
        {
          "indexed": true,
          "internalType": "address",
          "name": "by",
          "type": "address"
        },
        {
          "indexed": false,
          "internalType": "uint256",
          "name": "amount",
          "type": "uint256"
        },
        {
          "indexed": false,
          "internalType": "uint256",
          "name": "timestamp",
          "type": "uint256"
        }
      ],
      "name": "Withdrawn",
      "type": "event"
    },
    {
      "stateMutability": "payable",
      "type": "fallback"
    },
    {
      "inputs": [],
      "name": "VERIFIER_ADDRESS",
      "outputs": [
        {
          "internalType": "address",
          "name": "",
          "type": "address"
        }
      ],
      "stateMutability": "view",
      "type": "function"
    },
    {
      "inputs": [],
      "name": "deposit",
      "outputs": [],
      "stateMutability": "payable",
      "type": "function"
    },
    {
      "inputs": [],
      "name": "emergencyPause",
      "outputs": [],
      "stateMutability": "nonpayable",
      "type": "function"
    },
    {
      "inputs": [],
      "name": "emergencyUnpause",
      "outputs": [],
      "stateMutability": "nonpayable",
      "type": "function"
    },
    {
      "inputs": [],
      "name": "emergencyWithdrawAll",
      "outputs": [],
      "stateMutability": "nonpayable",
      "type": "function"
    },
    {
      "inputs": [],
      "name": "getContractBalance",
      "outputs": [
        {
          "internalType": "uint256",
          "name": "",
          "type": "uint256"
        }
      ],
      "stateMutability": "view",
      "type": "function"
    },
    {
      "inputs": [],
      "name": "owner",
      "outputs": [
        {
          "internalType": "address",
          "name": "",
          "type": "address"
        }
      ],
      "stateMutability": "view",
      "type": "function"
    },
    {
      "inputs": [],
      "name": "paused",
      "outputs": [
        {
          "internalType": "bool",
          "name": "",
          "type": "bool"
        }
      ],
      "stateMutability": "view",
      "type": "function"
    },
    {
      "inputs": [],
      "name": "renounceOwnership",
      "outputs": [],
      "stateMutability": "nonpayable",
      "type": "function"
    },
    {
      "inputs": [
        {
          "internalType": "uint256",
          "name": "amount",
          "type": "uint256"
        },
        {
          "internalType": "string",
          "name": "txid",
          "type": "string"
        }
      ],
      "name": "swap",
      "outputs": [],
      "stateMutability": "nonpayable",
      "type": "function"
    },
    {
      "inputs": [
        {
          "internalType": "address",
          "name": "newOwner",
          "type": "address"
        }
      ],
      "name": "transferOwnership",
      "outputs": [],
      "stateMutability": "nonpayable",
      "type": "function"
    },
    {
      "inputs": [
        {
          "internalType": "uint256",
          "name": "amount",
          "type": "uint256"
        }
      ],
      "name": "withdraw",
      "outputs": [],
      "stateMutability": "nonpayable",
      "type": "function"
    },
    {
      "stateMutability": "payable",
      "type": "receive"
    }
  ],
  "bytecode": "0x60a06040523480156200001157600080fd5b5060405162001ac938038062001ac98339818101604052810190620000379190620002a4565b336001600081905550600073ffffffffffffffffffffffffffffffffffffffff168173ffffffffffffffffffffffffffffffffffffffff1603620000b55760006040517f1e4fbdf7000000000000000000000000000000000000000000000000000000008152600401620000ac9190620002e7565b60405180910390fd5b620000c6816200017460201b60201c565b50600073ffffffffffffffffffffffffffffffffffffffff168173ffffffffffffffffffffffffffffffffffffffff160362000139576040517f08c379a0000000000000000000000000000000000000000000000000000000008152600401620001309062000365565b60405180910390fd5b8073ffffffffffffffffffffffffffffffffffffffff1660808173ffffffffffffffffffffffffffffffffffffffff16815250505062000387565b6000600160009054906101000a900473ffffffffffffffffffffffffffffffffffffffff16905081600160006101000a81548173ffffffffffffffffffffffffffffffffffffffff021916908373ffffffffffffffffffffffffffffffffffffffff1602179055508173ffffffffffffffffffffffffffffffffffffffff168173ffffffffffffffffffffffffffffffffffffffff167f8be0079c531659141344cd1fd0a4f28419497f9722a3daafe3b4186f6b6457e060405160405180910390a35050565b600080fd5b600073ffffffffffffffffffffffffffffffffffffffff82169050919050565b60006200026c826200023f565b9050919050565b6200027e816200025f565b81146200028a57600080fd5b50565b6000815190506200029e8162000273565b92915050565b600060208284031215620002bd57620002bc6200023a565b5b6000620002cd848285016200028d565b91505092915050565b620002e1816200025f565b82525050565b6000602082019050620002fe6000830184620002d6565b92915050565b600082825260208201905092915050565b7f496e76616c696420766572696669657220616464726573730000000000000000600082015250565b60006200034d60188362000304565b91506200035a8262000315565b602082019050919050565b6000602082019050818103600083015262000380816200033e565b9050919050565b608051611718620003b16000396000818161030801528181610643015261080a01526117186000f3fe6080604052600436106100ab5760003560e01c80638da5cb5b116100645780638da5cb5b14610201578063d0e30db01461022c578063d8a3440514610236578063dd19171914610261578063deb4a6d214610278578063f2fde38b146102a157610102565b80632e1a7d4d1461013d5780634a4e3bd51461016657806351858e271461017d5780635c975abb146101945780636f9fb98a146101bf578063715018a6146101ea57610102565b36610102573373ffffffffffffffffffffffffffffffffffffffff167f73a19dd210f1a7f902193214c0ee91dd35ee5b4d920cba8d519eca65a7b488ca34426040516100f8929190610e1d565b60405180910390a2005b6040517f08c379a000000000000000000000000000000000000000000000000000000000815260040161013490610ea3565b60405180910390fd5b34801561014957600080fd5b50610164600480360381019061015f9190610f03565b6102ca565b005b34801561017257600080fd5b5061017b61052b565b005b34801561018957600080fd5b5061019261053d565b005b3480156101a057600080fd5b506101a961054f565b6040516101b69190610f4b565b60405180910390f35b3480156101cb57600080fd5b506101d4610566565b6040516101e19190610f66565b60405180910390f35b3480156101f657600080fd5b506101ff61056e565b005b34801561020d57600080fd5b50610216610582565b6040516102239190610fc2565b60405180910390f35b6102346105ac565b005b34801561024257600080fd5b5061024b610641565b6040516102589190610fc2565b60405180910390f35b34801561026d57600080fd5b50610276610665565b005b34801561028457600080fd5b5061029f600480360381019061029a9190611123565b6107cc565b005b3480156102ad57600080fd5b506102c860048036038101906102c391906111ab565b610a93565b005b6102d2610582565b73ffffffffffffffffffffffffffffffffffffffff163373ffffffffffffffffffffffffffffffffffffffff16148061035657507f000000000000000000000000000000000000000000000000000000000000000073ffffffffffffffffffffffffffffffffffffffff163373ffffffffffffffffffffffffffffffffffffffff16145b610395576040517f08c379a000000000000000000000000000000000000000000000000000000000815260040161038c9061124a565b60405180910390fd5b61039d610b19565b600081116103e0576040517f08c379a00000000000000000000000000000000000000000000000000000000081526004016103d7906112b6565b60405180910390fd5b80471015610423576040517f08c379a000000000000000000000000000000000000000000000000000000000815260040161041a90611322565b60405180910390fd5b60003373ffffffffffffffffffffffffffffffffffffffff168260405161044990611373565b60006040518083038185875af1925050503d8060008114610486576040519150601f19603f3d011682016040523d82523d6000602084013e61048b565b606091505b50509050806104cf576040517f08c379a00000000000000000000000000000000000000000000000000000000081526004016104c6906113d4565b60405180910390fd5b3373ffffffffffffffffffffffffffffffffffffffff167f92ccf450a286a957af52509bc1c9939d1a6a481783e142e41e2499f0bb66ebc68342604051610517929190610e1d565b60405180910390a250610528610b5f565b50565b610533610b69565b61053b610bf0565b565b610545610b69565b61054d610c53565b565b6000600160149054906101000a900460ff16905090565b600047905090565b610576610b69565b6105806000610cb5565b565b6000600160009054906101000a900473ffffffffffffffffffffffffffffffffffffffff16905090565b600034116105ef576040517f08c379a00000000000000000000000000000000000000000000000000000000081526004016105e690611440565b60405180910390fd5b3373ffffffffffffffffffffffffffffffffffffffff167f73a19dd210f1a7f902193214c0ee91dd35ee5b4d920cba8d519eca65a7b488ca3442604051610637929190610e1d565b60405180910390a2565b7f000000000000000000000000000000000000000000000000000000000000000081565b61066d610b69565b610675610b19565b6000479050600081116106bd576040517f08c379a00000000000000000000000000000000000000000000000000000000081526004016106b4906114ac565b60405180910390fd5b60006106c7610582565b73ffffffffffffffffffffffffffffffffffffffff16826040516106ea90611373565b60006040518083038185875af1925050503d8060008114610727576040519150601f19603f3d011682016040523d82523d6000602084013e61072c565b606091505b5050905080610770576040517f08c379a000000000000000000000000000000000000000000000000000000000815260040161076790611518565b60405180910390fd5b3373ffffffffffffffffffffffffffffffffffffffff167f92ccf450a286a957af52509bc1c9939d1a6a481783e142e41e2499f0bb66ebc683426040516107b8929190610e1d565b60405180910390a250506107ca610b5f565b565b6107d4610582565b73ffffffffffffffffffffffffffffffffffffffff163373ffffffffffffffffffffffffffffffffffffffff16148061085857507f000000000000000000000000000000000000000000000000000000000000000073ffffffffffffffffffffffffffffffffffffffff163373ffffffffffffffffffffffffffffffffffffffff16145b610897576040517f08c379a000000000000000000000000000000000000000000000000000000000815260040161088e9061124a565b60405180910390fd5b61089f610b19565b6108a7610d7b565b600082116108ea576040517f08c379a00000000000000000000000000000000000000000000000000000000081526004016108e1906112b6565b60405180910390fd5b600081511161092e576040517f08c379a000000000000000000000000000000000000000000000000000000000815260040161092590611584565b60405180910390fd5b81471015610971576040517f08c379a000000000000000000000000000000000000000000000000000000000815260040161096890611616565b60405180910390fd5b60003373ffffffffffffffffffffffffffffffffffffffff168360405161099790611373565b60006040518083038185875af1925050503d80600081146109d4576040519150601f19603f3d011682016040523d82523d6000602084013e6109d9565b606091505b5050905080610a1d576040517f08c379a0000000000000000000000000000000000000000000000000000000008152600401610a14906113d4565b60405180910390fd5b3373ffffffffffffffffffffffffffffffffffffffff163373ffffffffffffffffffffffffffffffffffffffff167f1d599d8864df3594c2e375f0deaaf237a9d2cbcd81237e5d7587d16715e4ccad854286604051610a7e939291906116a4565b60405180910390a350610a8f610b5f565b5050565b610a9b610b69565b600073ffffffffffffffffffffffffffffffffffffffff168173ffffffffffffffffffffffffffffffffffffffff1603610b0d5760006040517f1e4fbdf7000000000000000000000000000000000000000000000000000000008152600401610b049190610fc2565b60405180910390fd5b610b1681610cb5565b50565b600260005403610b55576040517f3ee5aeb500000000000000000000000000000000000000000000000000000000815260040160405180910390fd5b6002600081905550565b6001600081905550565b610b71610dbc565b73ffffffffffffffffffffffffffffffffffffffff16610b8f610582565b73ffffffffffffffffffffffffffffffffffffffff1614610bee57610bb2610dbc565b6040517f118cdaa7000000000000000000000000000000000000000000000000000000008152600401610be59190610fc2565b60405180910390fd5b565b610bf8610dc4565b6000600160146101000a81548160ff0219169083151502179055507f5db9ee0a495bf2e6ff9c91a7834c1ba4fdd244a5e8aa4e537bd38aeae4b073aa610c3c610dbc565b604051610c499190610fc2565b60405180910390a1565b610c5b610d7b565b60018060146101000a81548160ff0219169083151502179055507f62e78cea01bee320cd4e420270b5ea74000d11b0c9f74754ebdbfc544b05a258610c9e610dbc565b604051610cab9190610fc2565b60405180910390a1565b6000600160009054906101000a900473ffffffffffffffffffffffffffffffffffffffff16905081600160006101000a81548173ffffffffffffffffffffffffffffffffffffffff021916908373ffffffffffffffffffffffffffffffffffffffff1602179055508173ffffffffffffffffffffffffffffffffffffffff168173ffffffffffffffffffffffffffffffffffffffff167f8be0079c531659141344cd1fd0a4f28419497f9722a3daafe3b4186f6b6457e060405160405180910390a35050565b610d8361054f565b15610dba576040517fd93c066500000000000000000000000000000000000000000000000000000000815260040160405180910390fd5b565b600033905090565b610dcc61054f565b610e02576040517f8dfc202b00000000000000000000000000000000000000000000000000000000815260040160405180910390fd5b565b6000819050919050565b610e1781610e04565b82525050565b6000604082019050610e326000830185610e0e565b610e3f6020830184610e0e565b9392505050565b600082825260208201905092915050565b7f46756e6374696f6e206e6f7420666f756e640000000000000000000000000000600082015250565b6000610e8d601283610e46565b9150610e9882610e57565b602082019050919050565b60006020820190508181036000830152610ebc81610e80565b9050919050565b6000604051905090565b600080fd5b600080fd5b610ee081610e04565b8114610eeb57600080fd5b50565b600081359050610efd81610ed7565b92915050565b600060208284031215610f1957610f18610ecd565b5b6000610f2784828501610eee565b91505092915050565b60008115159050919050565b610f4581610f30565b82525050565b6000602082019050610f606000830184610f3c565b92915050565b6000602082019050610f7b6000830184610e0e565b92915050565b600073ffffffffffffffffffffffffffffffffffffffff82169050919050565b6000610fac82610f81565b9050919050565b610fbc81610fa1565b82525050565b6000602082019050610fd76000830184610fb3565b92915050565b600080fd5b600080fd5b6000601f19601f8301169050919050565b7f4e487b7100000000000000000000000000000000000000000000000000000000600052604160045260246000fd5b61103082610fe7565b810181811067ffffffffffffffff8211171561104f5761104e610ff8565b5b80604052505050565b6000611062610ec3565b905061106e8282611027565b919050565b600067ffffffffffffffff82111561108e5761108d610ff8565b5b61109782610fe7565b9050602081019050919050565b82818337600083830152505050565b60006110c66110c184611073565b611058565b9050828152602081018484840111156110e2576110e1610fe2565b5b6110ed8482856110a4565b509392505050565b600082601f83011261110a57611109610fdd565b5b813561111a8482602086016110b3565b91505092915050565b6000806040838503121561113a57611139610ecd565b5b600061114885828601610eee565b925050602083013567ffffffffffffffff81111561116957611168610ed2565b5b611175858286016110f5565b9150509250929050565b61118881610fa1565b811461119357600080fd5b50565b6000813590506111a58161117f565b92915050565b6000602082840312156111c1576111c0610ecd565b5b60006111cf84828501611196565b91505092915050565b7f4f6e6c79206f776e6572206f722076657269666965722063616e2063616c6c2060008201527f746869732066756e6374696f6e00000000000000000000000000000000000000602082015250565b6000611234602d83610e46565b915061123f826111d8565b604082019050919050565b6000602082019050818103600083015261126381611227565b9050919050565b7f416d6f756e74206d7573742062652067726561746572207468616e2030000000600082015250565b60006112a0601d83610e46565b91506112ab8261126a565b602082019050919050565b600060208201905081810360008301526112cf81611293565b9050919050565b7f496e73756666696369656e7420636f6e74726163742062616c616e6365000000600082015250565b600061130c601d83610e46565b9150611317826112d6565b602082019050919050565b6000602082019050818103600083015261133b816112ff565b9050919050565b600081905092915050565b50565b600061135d600083611342565b91506113688261134d565b600082019050919050565b600061137e82611350565b9150819050919050565b7f50455055207472616e73666572206661696c6564000000000000000000000000600082015250565b60006113be601483610e46565b91506113c982611388565b602082019050919050565b600060208201905081810360008301526113ed816113b1565b9050919050565b7f4d7573742073656e642050455055000000000000000000000000000000000000600082015250565b600061142a600e83610e46565b9150611435826113f4565b602082019050919050565b600060208201905081810360008301526114598161141d565b9050919050565b7f4e6f205045505520746f20776974686472617700000000000000000000000000600082015250565b6000611496601383610e46565b91506114a182611460565b602082019050919050565b600060208201905081810360008301526114c581611489565b9050919050565b7f456d657267656e6379207769746864726177616c206661696c65640000000000600082015250565b6000611502601b83610e46565b915061150d826114cc565b602082019050919050565b60006020820190508181036000830152611531816114f5565b9050919050565b7f5472616e73616374696f6e204944206973207265717569726564000000000000600082015250565b600061156e601a83610e46565b915061157982611538565b602082019050919050565b6000602082019050818103600083015261159d81611561565b9050919050565b7f496e73756666696369656e7420504550552062616c616e636520696e20636f6e60008201527f7472616374000000000000000000000000000000000000000000000000000000602082015250565b6000611600602583610e46565b915061160b826115a4565b604082019050919050565b6000602082019050818103600083015261162f816115f3565b9050919050565b600081519050919050565b60005b8381101561165f578082015181840152602081019050611644565b60008484015250505050565b600061167682611636565b6116808185610e46565b9350611690818560208601611641565b61169981610fe7565b840191505092915050565b60006060820190506116b96000830186610e0e565b6116c66020830185610e0e565b81810360408301526116d8818461166b565b905094935050505056fea264697066735822122097089c45a400d14ee22ed73e133d21f5d4eab6ec43b75459bcf1d831501c05db64736f6c63430008160033",
  "linkReferences": {},
  "deployedLinkReferences": {}
}