{
  "_format": "hh-sol-artifact-1",
  "contractName": "PenkMarketL1",
  "sourceName": "contracts/L1.sol",
  "abi": [
    {
      "inputs": [
        {
          "internalType": "address",
          "name": "_usdcAddress",
          "type": "address"
        },
        {
          "internalType": "address",
          "name": "_pepuAddress",
          "type": "address"
        },
        {
          "internalType": "address",
          "name": "_verifierAddress",
          "type": "address"
        }
      ],
      "stateMutability": "nonpayable",
      "type": "constructor"
    },
    {
      "inputs": [],
      "name": "EnforcedPause",
      "type": "error"
    },
    {
      "inputs": [],
      "name": "ExpectedPause",
      "type": "error"
    },
    {
      "inputs": [
        {
          "internalType": "address",
          "name": "owner",
          "type": "address"
        }
      ],
      "name": "OwnableInvalidOwner",
      "type": "error"
    },
    {
      "inputs": [
        {
          "internalType": "address",
          "name": "account",
          "type": "address"
        }
      ],
      "name": "OwnableUnauthorizedAccount",
      "type": "error"
    },
    {
      "inputs": [],
      "name": "ReentrancyGuardReentrantCall",
      "type": "error"
    },
    {
      "anonymous": false,
      "inputs": [
        {
          "indexed": true,
          "internalType": "address",
          "name": "previousOwner",
          "type": "address"
        },
        {
          "indexed": true,
          "internalType": "address",
          "name": "newOwner",
          "type": "address"
        }
      ],
      "name": "OwnershipTransferred",
      "type": "event"
    },
    {
      "anonymous": false,
      "inputs": [
        {
          "indexed": false,
          "internalType": "address",
          "name": "account",
          "type": "address"
        }
      ],
      "name": "Paused",
      "type": "event"
    },
    {
      "anonymous": false,
      "inputs": [
        {
          "indexed": false,
          "internalType": "uint256",
          "name": "oldBasisPoints",
          "type": "uint256"
        },
        {
          "indexed": false,
          "internalType": "uint256",
          "name": "newBasisPoints",
          "type": "uint256"
        }
      ],
      "name": "PenkBonusUpdated",
      "type": "event"
    },
    {
      "anonymous": false,
      "inputs": [
        {
          "indexed": true,
          "internalType": "string",
          "name": "txidIndexed",
          "type": "string"
        },
        {
          "indexed": false,
          "internalType": "string",
          "name": "txid",
          "type": "string"
        },
        {
          "indexed": true,
          "internalType": "address",
          "name": "user",
          "type": "address"
        },
        {
          "indexed": false,
          "internalType": "uint256",
          "name": "amount",
          "type": "uint256"
        },
        {
          "indexed": false,
          "internalType": "string",
          "name": "tokenType",
          "type": "string"
        }
      ],
      "name": "TransactionCompleted",
      "type": "event"
    },
    {
      "anonymous": false,
      "inputs": [
        {
          "indexed": true,
          "internalType": "string",
          "name": "txidIndexed",
          "type": "string"
        },
        {
          "indexed": false,
          "internalType": "string",
          "name": "txid",
          "type": "string"
        },
        {
          "indexed": true,
          "internalType": "address",
          "name": "user",
          "type": "address"
        },
        {
          "indexed": false,
          "internalType": "string",
          "name": "providedString",
          "type": "string"
        },
        {
          "indexed": false,
          "internalType": "uint256",
          "name": "amount",
          "type": "uint256"
        },
        {
          "indexed": false,
          "internalType": "uint256",
          "name": "penkBonus",
          "type": "uint256"
        },
        {
          "indexed": false,
          "internalType": "uint256",
          "name": "totalAmount",
          "type": "uint256"
        },
        {
          "indexed": false,
          "internalType": "string",
          "name": "tokenType",
          "type": "string"
        },
        {
          "indexed": false,
          "internalType": "uint256",
          "name": "timestamp",
          "type": "uint256"
        }
      ],
      "name": "TransactionCreated",
      "type": "event"
    },
    {
      "anonymous": false,
      "inputs": [
        {
          "indexed": true,
          "internalType": "string",
          "name": "txidIndexed",
          "type": "string"
        },
        {
          "indexed": false,
          "internalType": "string",
          "name": "txid",
          "type": "string"
        },
        {
          "indexed": true,
          "internalType": "address",
          "name": "user",
          "type": "address"
        },
        {
          "indexed": false,
          "internalType": "uint256",
          "name": "amount",
          "type": "uint256"
        },
        {
          "indexed": false,
          "internalType": "string",
          "name": "tokenType",
          "type": "string"
        }
      ],
      "name": "TransactionRefunded",
      "type": "event"
    },
    {
      "anonymous": false,
      "inputs": [
        {
          "indexed": false,
          "internalType": "address",
          "name": "account",
          "type": "address"
        }
      ],
      "name": "Unpaused",
      "type": "event"
    },
    {
      "inputs": [],
      "name": "PEPU_ADDRESS",
      "outputs": [
        {
          "internalType": "address",
          "name": "",
          "type": "address"
        }
      ],
      "stateMutability": "view",
      "type": "function"
    },
    {
      "inputs": [],
      "name": "USDC_ADDRESS",
      "outputs": [
        {
          "internalType": "address",
          "name": "",
          "type": "address"
        }
      ],
      "stateMutability": "view",
      "type": "function"
    },
    {
      "inputs": [],
      "name": "VERIFIER_ADDRESS",
      "outputs": [
        {
          "internalType": "address",
          "name": "",
          "type": "address"
        }
      ],
      "stateMutability": "view",
      "type": "function"
    },
    {
      "inputs": [
        {
          "internalType": "string",
          "name": "providedString",
          "type": "string"
        }
      ],
      "name": "buy",
      "outputs": [],
      "stateMutability": "payable",
      "type": "function"
    },
    {
      "inputs": [
        {
          "internalType": "string",
          "name": "providedString",
          "type": "string"
        },
        {
          "internalType": "uint256",
          "name": "amount",
          "type": "uint256"
        }
      ],
      "name": "buyWithPEPU",
      "outputs": [],
      "stateMutability": "nonpayable",
      "type": "function"
    },
    {
      "inputs": [
        {
          "internalType": "string",
          "name": "providedString",
          "type": "string"
        },
        {
          "internalType": "uint256",
          "name": "amount",
          "type": "uint256"
        }
      ],
      "name": "buyWithUSDC",
      "outputs": [],
      "stateMutability": "nonpayable",
      "type": "function"
    },
    {
      "inputs": [
        {
          "internalType": "string",
          "name": "txid",
          "type": "string"
        }
      ],
      "name": "completeTransaction",
      "outputs": [],
      "stateMutability": "nonpayable",
      "type": "function"
    },
    {
      "inputs": [
        {
          "internalType": "string",
          "name": "txid",
          "type": "string"
        }
      ],
      "name": "getTransaction",
      "outputs": [
        {
          "components": [
            {
              "internalType": "address",
              "name": "user",
              "type": "address"
            },
            {
              "internalType": "address",
              "name": "tokenAddress",
              "type": "address"
            },
            {
              "internalType": "uint256",
              "name": "amount",
              "type": "uint256"
            },
            {
              "internalType": "uint256",
              "name": "timestamp",
              "type": "uint256"
            },
            {
              "internalType": "enum PenkMarketL1.TransactionStatus",
              "name": "status",
              "type": "uint8"
            },
            {
              "internalType": "string",
              "name": "tokenType",
              "type": "string"
            }
          ],
          "internalType": "struct PenkMarketL1.Transaction",
          "name": "",
          "type": "tuple"
        }
      ],
      "stateMutability": "view",
      "type": "function"
    },
    {
      "inputs": [
        {
          "internalType": "address",
          "name": "user",
          "type": "address"
        }
      ],
      "name": "getUserTransactions",
      "outputs": [
        {
          "internalType": "string[]",
          "name": "",
          "type": "string[]"
        }
      ],
      "stateMutability": "view",
      "type": "function"
    },
    {
      "inputs": [],
      "name": "owner",
      "outputs": [
        {
          "internalType": "address",
          "name": "",
          "type": "address"
        }
      ],
      "stateMutability": "view",
      "type": "function"
    },
    {
      "inputs": [],
      "name": "pause",
      "outputs": [],
      "stateMutability": "nonpayable",
      "type": "function"
    },
    {
      "inputs": [],
      "name": "paused",
      "outputs": [
        {
          "internalType": "bool",
          "name": "",
          "type": "bool"
        }
      ],
      "stateMutability": "view",
      "type": "function"
    },
    {
      "inputs": [],
      "name": "penkBonusBasisPoints",
      "outputs": [
        {
          "internalType": "uint256",
          "name": "",
          "type": "uint256"
        }
      ],
      "stateMutability": "view",
      "type": "function"
    },
    {
      "inputs": [
        {
          "internalType": "string",
          "name": "txid",
          "type": "string"
        }
      ],
      "name": "refundTransaction",
      "outputs": [],
      "stateMutability": "nonpayable",
      "type": "function"
    },
    {
      "inputs": [],
      "name": "renounceOwnership",
      "outputs": [],
      "stateMutability": "nonpayable",
      "type": "function"
    },
    {
      "inputs": [
        {
          "internalType": "uint256",
          "name": "newBasisPoints",
          "type": "uint256"
        }
      ],
      "name": "setPenkBonus",
      "outputs": [],
      "stateMutability": "nonpayable",
      "type": "function"
    },
    {
      "inputs": [],
      "name": "transactionNonce",
      "outputs": [
        {
          "internalType": "uint256",
          "name": "",
          "type": "uint256"
        }
      ],
      "stateMutability": "view",
      "type": "function"
    },
    {
      "inputs": [
        {
          "internalType": "string",
          "name": "",
          "type": "string"
        }
      ],
      "name": "transactions",
      "outputs": [
        {
          "internalType": "address",
          "name": "user",
          "type": "address"
        },
        {
          "internalType": "address",
          "name": "tokenAddress",
          "type": "address"
        },
        {
          "internalType": "uint256",
          "name": "amount",
          "type": "uint256"
        },
        {
          "internalType": "uint256",
          "name": "timestamp",
          "type": "uint256"
        },
        {
          "internalType": "enum PenkMarketL1.TransactionStatus",
          "name": "status",
          "type": "uint8"
        },
        {
          "internalType": "string",
          "name": "tokenType",
          "type": "string"
        }
      ],
      "stateMutability": "view",
      "type": "function"
    },
    {
      "inputs": [
        {
          "internalType": "address",
          "name": "newOwner",
          "type": "address"
        }
      ],
      "name": "transferOwnership",
      "outputs": [],
      "stateMutability": "nonpayable",
      "type": "function"
    },
    {
      "inputs": [
        {
          "internalType": "string",
          "name": "",
          "type": "string"
        }
      ],
      "name": "txidExists",
      "outputs": [
        {
          "internalType": "bool",
          "name": "",
          "type": "bool"
        }
      ],
      "stateMutability": "view",
      "type": "function"
    },
    {
      "inputs": [],
      "name": "unpause",
      "outputs": [],
      "stateMutability": "nonpayable",
      "type": "function"
    },
    {
      "inputs": [
        {
          "internalType": "address",
          "name": "",
          "type": "address"
        },
        {
          "internalType": "uint256",
          "name": "",
          "type": "uint256"
        }
      ],
      "name": "userTransactions",
      "outputs": [
        {
          "internalType": "string",
          "name": "",
          "type": "string"
        }
      ],
      "stateMutability": "view",
      "type": "function"
    },
    {
      "inputs": [],
      "name": "withdrawETH",
      "outputs": [],
      "stateMutability": "nonpayable",
      "type": "function"
    },
    {
      "inputs": [
        {
          "internalType": "address",
          "name": "tokenAddress",
          "type": "address"
        }
      ],
      "name": "withdrawToken",
      "outputs": [],
      "stateMutability": "nonpayable",
      "type": "function"
    },
    {
      "stateMutability": "payable",
      "type": "receive"
    }
  ],
  "bytecode": "0x60e060405260c86006553480156200001657600080fd5b506040516200489e3803806200489e83398181016040528101906200003c9190620003ff565b336001600081905550600073ffffffffffffffffffffffffffffffffffffffff168173ffffffffffffffffffffffffffffffffffffffff1603620000ba5760006040517f1e4fbdf7000000000000000000000000000000000000000000000000000000008152600401620000b191906200046c565b60405180910390fd5b620000cb81620002cf60201b60201c565b50600073ffffffffffffffffffffffffffffffffffffffff168373ffffffffffffffffffffffffffffffffffffffff16036200013e576040517f08c379a00000000000000000000000000000000000000000000000000000000081526004016200013590620004ea565b60405180910390fd5b600073ffffffffffffffffffffffffffffffffffffffff168273ffffffffffffffffffffffffffffffffffffffff1603620001b0576040517f08c379a0000000000000000000000000000000000000000000000000000000008152600401620001a7906200055c565b60405180910390fd5b600073ffffffffffffffffffffffffffffffffffffffff168173ffffffffffffffffffffffffffffffffffffffff160362000222576040517f08c379a00000000000000000000000000000000000000000000000000000000081526004016200021990620005ce565b60405180910390fd5b8273ffffffffffffffffffffffffffffffffffffffff1660808173ffffffffffffffffffffffffffffffffffffffff16815250508173ffffffffffffffffffffffffffffffffffffffff1660a08173ffffffffffffffffffffffffffffffffffffffff16815250508073ffffffffffffffffffffffffffffffffffffffff1660c08173ffffffffffffffffffffffffffffffffffffffff16815250506000600281905550505050620005f0565b6000600160009054906101000a900473ffffffffffffffffffffffffffffffffffffffff16905081600160006101000a81548173ffffffffffffffffffffffffffffffffffffffff021916908373ffffffffffffffffffffffffffffffffffffffff1602179055508173ffffffffffffffffffffffffffffffffffffffff168173ffffffffffffffffffffffffffffffffffffffff167f8be0079c531659141344cd1fd0a4f28419497f9722a3daafe3b4186f6b6457e060405160405180910390a35050565b600080fd5b600073ffffffffffffffffffffffffffffffffffffffff82169050919050565b6000620003c7826200039a565b9050919050565b620003d981620003ba565b8114620003e557600080fd5b50565b600081519050620003f981620003ce565b92915050565b6000806000606084860312156200041b576200041a62000395565b5b60006200042b86828701620003e8565b93505060206200043e86828701620003e8565b92505060406200045186828701620003e8565b9150509250925092565b6200046681620003ba565b82525050565b60006020820190506200048360008301846200045b565b92915050565b600082825260208201905092915050565b7f496e76616c696420555344432061646472657373000000000000000000000000600082015250565b6000620004d260148362000489565b9150620004df826200049a565b602082019050919050565b600060208201905081810360008301526200050581620004c3565b9050919050565b7f496e76616c696420504550552061646472657373000000000000000000000000600082015250565b60006200054460148362000489565b915062000551826200050c565b602082019050919050565b60006020820190508181036000830152620005778162000535565b9050919050565b7f496e76616c696420766572696669657220616464726573730000000000000000600082015250565b6000620005b660188362000489565b9150620005c3826200057e565b602082019050919050565b60006020820190508181036000830152620005e981620005a7565b9050919050565b60805160a05160c0516142466200065860003960008181610bd0015281816114a4015261217b01526000818161067e0152818161199101528181611a510152611b10015260008181610f2c01528181610fec015281816110ab015261215101526142466000f3fe60806040526004361061014f5760003560e01c80638d78735a116100b6578063c7944ca11161006f578063c7944ca114610459578063d8a3440514610484578063e086e5ec146104af578063e2596ca3146104c6578063ef925399146104ef578063f2fde38b1461052c57610156565b80638d78735a146103235780638da5cb5b1461034c578063aaf56ca514610377578063ac2ccd07146103b4578063b842ec44146103f1578063bb09d9b71461042e57610156565b8063715018a611610108578063715018a6146102515780637c9d5de91461026857806381abb055146102915780638438e7ea146102ba5780638456cb59146102e357806389476069146102fa57610156565b8063022236f41461015b5780630393ff741461019d5780630b6b7d9b146101c85780633f4ba83a146101f3578063492cc7691461020a5780635c975abb1461022657610156565b3661015657005b600080fd5b34801561016757600080fd5b50610182600480360381019061017d9190612c7d565b610555565b60405161019496959493929190612e16565b60405180910390f35b3480156101a957600080fd5b506101b261067c565b6040516101bf9190612e7e565b60405180910390f35b3480156101d457600080fd5b506101dd6106a0565b6040516101ea9190612e99565b60405180910390f35b3480156101ff57600080fd5b506102086106a6565b005b610224600480360381019061021f9190612c7d565b6106b8565b005b34801561023257600080fd5b5061023b610aa2565b6040516102489190612ecf565b60405180910390f35b34801561025d57600080fd5b50610266610ab9565b005b34801561027457600080fd5b5061028f600480360381019061028a9190612c7d565b610acd565b005b34801561029d57600080fd5b506102b860048036038101906102b39190612f16565b610ed7565b005b3480156102c657600080fd5b506102e160048036038101906102dc9190612c7d565b6113a1565b005b3480156102ef57600080fd5b506102f86117d7565b005b34801561030657600080fd5b50610321600480360381019061031c9190612f9e565b6117e9565b005b34801561032f57600080fd5b5061034a60048036038101906103459190612f16565b61193c565b005b34801561035857600080fd5b50610361611e06565b60405161036e9190612e7e565b60405180910390f35b34801561038357600080fd5b5061039e60048036038101906103999190612c7d565b611e30565b6040516103ab9190612ecf565b60405180910390f35b3480156103c057600080fd5b506103db60048036038101906103d69190612c7d565b611e66565b6040516103e891906130cb565b60405180910390f35b3480156103fd57600080fd5b50610418600480360381019061041391906130ed565b612096565b604051610425919061312d565b60405180910390f35b34801561043a57600080fd5b5061044361214f565b6040516104509190612e7e565b60405180910390f35b34801561046557600080fd5b5061046e612173565b60405161047b9190612e99565b60405180910390f35b34801561049057600080fd5b50610499612179565b6040516104a69190612e7e565b60405180910390f35b3480156104bb57600080fd5b506104c461219d565b005b3480156104d257600080fd5b506104ed60048036038101906104e8919061314f565b61223e565b005b3480156104fb57600080fd5b5061051660048036038101906105119190612f9e565b6122d6565b604051610523919061323e565b60405180910390f35b34801561053857600080fd5b50610553600480360381019061054e9190612f9e565b6123ee565b005b6003818051602081018201805184825260208301602085012081835280955050505050506000915090508060000160009054906101000a900473ffffffffffffffffffffffffffffffffffffffff16908060010160009054906101000a900473ffffffffffffffffffffffffffffffffffffffff16908060020154908060030154908060040160009054906101000a900460ff16908060050180546105f99061328f565b80601f01602080910402602001604051908101604052809291908181526020018280546106259061328f565b80156106725780601f1061064757610100808354040283529160200191610672565b820191906000526020600020905b81548152906001019060200180831161065557829003601f168201915b5050505050905086565b7f000000000000000000000000000000000000000000000000000000000000000081565b60065481565b6106ae612474565b6106b66124fb565b565b6106c061255e565b6106c86125a4565b6000341161070b576040517f08c379a00000000000000000000000000000000000000000000000000000000081526004016107029061330c565b60405180910390fd5b6002600081548092919061071e9061335b565b9190505550600061073533346000600254426125e5565b905060048160405161074791906133df565b908152602001604051809103902060009054906101000a900460ff16156107a3576040517f08c379a000000000000000000000000000000000000000000000000000000000815260040161079a90613442565b60405180910390fd5b6040518060c001604052803373ffffffffffffffffffffffffffffffffffffffff168152602001600073ffffffffffffffffffffffffffffffffffffffff1681526020013481526020014281526020016000600281111561080757610806612d20565b5b81526020016040518060400160405280600381526020017f455448000000000000000000000000000000000000000000000000000000000081525081525060038260405161085591906133df565b908152602001604051809103902060008201518160000160006101000a81548173ffffffffffffffffffffffffffffffffffffffff021916908373ffffffffffffffffffffffffffffffffffffffff16021790555060208201518160010160006101000a81548173ffffffffffffffffffffffffffffffffffffffff021916908373ffffffffffffffffffffffffffffffffffffffff160217905550604082015181600201556060820151816003015560808201518160040160006101000a81548160ff021916908360028111156109305761092f612d20565b5b021790555060a082015181600501908161094a919061360e565b50905050600160048260405161096091906133df565b908152602001604051809103902060006101000a81548160ff021916908315150217905550600560003373ffffffffffffffffffffffffffffffffffffffff1673ffffffffffffffffffffffffffffffffffffffff168152602001908152602001600020819080600181540180825580915050600190039060005260206000200160009091909190915090816109f6919061360e565b50600061271060065434610a0a91906136e0565b610a149190613751565b905060008134610a249190613782565b90503373ffffffffffffffffffffffffffffffffffffffff1683604051610a4b91906133df565b60405180910390207f804c2918e0ff9732b69302ba3928d4745a3247d3a76f195e66ea0e190bd546cf858734878742604051610a8c96959493929190613802565b60405180910390a3505050610a9f612641565b50565b6000600160149054906101000a900460ff16905090565b610ac1612474565b610acb600061264b565b565b80600481604051610ade91906133df565b908152602001604051809103902060009054906101000a900460ff16610b39576040517f08c379a0000000000000000000000000000000000000000000000000000000008152600401610b30906138d0565b60405180910390fd5b60006002811115610b4d57610b4c612d20565b5b600382604051610b5d91906133df565b908152602001604051809103902060040160009054906101000a900460ff166002811115610b8e57610b8d612d20565b5b14610bce576040517f08c379a0000000000000000000000000000000000000000000000000000000008152600401610bc59061393c565b60405180910390fd5b7f000000000000000000000000000000000000000000000000000000000000000073ffffffffffffffffffffffffffffffffffffffff163373ffffffffffffffffffffffffffffffffffffffff1614610c5c576040517f08c379a0000000000000000000000000000000000000000000000000000000008152600401610c53906139ce565b60405180910390fd5b6000600383604051610c6e91906133df565b9081526020016040518091039020905060028160040160006101000a81548160ff02191690836002811115610ca657610ca5612d20565b5b0217905550604051602001610cba90613a11565b6040516020818303038152906040528051906020012081600501604051602001610ce49190613aa9565b6040516020818303038152906040528051906020012003610d73578060000160009054906101000a900473ffffffffffffffffffffffffffffffffffffffff1673ffffffffffffffffffffffffffffffffffffffff166108fc82600201549081150290604051600060405180830381858888f19350505050158015610d6d573d6000803e3d6000fd5b50610e3f565b8060010160009054906101000a900473ffffffffffffffffffffffffffffffffffffffff1673ffffffffffffffffffffffffffffffffffffffff1663a9059cbb8260000160009054906101000a900473ffffffffffffffffffffffffffffffffffffffff1683600201546040518363ffffffff1660e01b8152600401610dfa929190613ac0565b6020604051808303816000875af1158015610e19573d6000803e3d6000fd5b505050506040513d601f19601f82011682018060405250810190610e3d9190613b15565b505b8060000160009054906101000a900473ffffffffffffffffffffffffffffffffffffffff1673ffffffffffffffffffffffffffffffffffffffff1683604051610e8891906133df565b60405180910390207fb4e402cb4407b5af00679e91de81ddf947c341c5817f6416667db6d505ef140885846002015485600501604051610eca93929190613bc6565b60405180910390a3505050565b610edf61255e565b610ee76125a4565b60008111610f2a576040517f08c379a0000000000000000000000000000000000000000000000000000000008152600401610f2190613c57565b60405180910390fd5b7f000000000000000000000000000000000000000000000000000000000000000073ffffffffffffffffffffffffffffffffffffffff166323b872dd3330846040518463ffffffff1660e01b8152600401610f8793929190613c77565b6020604051808303816000875af1158015610fa6573d6000803e3d6000fd5b505050506040513d601f19601f82011682018060405250810190610fca9190613b15565b5060026000815480929190610fde9061335b565b9190505550600061101433837f0000000000000000000000000000000000000000000000000000000000000000600254426125e5565b905060048160405161102691906133df565b908152602001604051809103902060009054906101000a900460ff1615611082576040517f08c379a000000000000000000000000000000000000000000000000000000000815260040161107990613442565b60405180910390fd5b6040518060c001604052803373ffffffffffffffffffffffffffffffffffffffff1681526020017f000000000000000000000000000000000000000000000000000000000000000073ffffffffffffffffffffffffffffffffffffffff1681526020018381526020014281526020016000600281111561110557611104612d20565b5b81526020016040518060400160405280600481526020017f555344430000000000000000000000000000000000000000000000000000000081525081525060038260405161115391906133df565b908152602001604051809103902060008201518160000160006101000a81548173ffffffffffffffffffffffffffffffffffffffff021916908373ffffffffffffffffffffffffffffffffffffffff16021790555060208201518160010160006101000a81548173ffffffffffffffffffffffffffffffffffffffff021916908373ffffffffffffffffffffffffffffffffffffffff160217905550604082015181600201556060820151816003015560808201518160040160006101000a81548160ff0219169083600281111561122e5761122d612d20565b5b021790555060a0820151816005019081611248919061360e565b50905050600160048260405161125e91906133df565b908152602001604051809103902060006101000a81548160ff021916908315150217905550600560003373ffffffffffffffffffffffffffffffffffffffff1673ffffffffffffffffffffffffffffffffffffffff168152602001908152602001600020819080600181540180825580915050600190039060005260206000200160009091909190915090816112f4919061360e565b5060006127106006548461130891906136e0565b6113129190613751565b9050600081846113229190613782565b90503373ffffffffffffffffffffffffffffffffffffffff168360405161134991906133df565b60405180910390207f804c2918e0ff9732b69302ba3928d4745a3247d3a76f195e66ea0e190bd546cf85888887874260405161138a96959493929190613cfa565b60405180910390a350505061139d612641565b5050565b806004816040516113b291906133df565b908152602001604051809103902060009054906101000a900460ff1661140d576040517f08c379a0000000000000000000000000000000000000000000000000000000008152600401611404906138d0565b60405180910390fd5b6000600281111561142157611420612d20565b5b60038260405161143191906133df565b908152602001604051809103902060040160009054906101000a900460ff16600281111561146257611461612d20565b5b146114a2576040517f08c379a00000000000000000000000000000000000000000000000000000000081526004016114999061393c565b60405180910390fd5b7f000000000000000000000000000000000000000000000000000000000000000073ffffffffffffffffffffffffffffffffffffffff163373ffffffffffffffffffffffffffffffffffffffff1614611530576040517f08c379a0000000000000000000000000000000000000000000000000000000008152600401611527906139ce565b60405180910390fd5b600060038360405161154291906133df565b9081526020016040518091039020905060018160040160006101000a81548160ff0219169083600281111561157a57611579612d20565b5b021790555060405160200161158e90613a11565b60405160208183030381529060405280519060200120816005016040516020016115b89190613aa9565b60405160208183030381529060405280519060200120036116905760006115dd611e06565b73ffffffffffffffffffffffffffffffffffffffff16826002015460405161160490613dad565b60006040518083038185875af1925050503d8060008114611641576040519150601f19603f3d011682016040523d82523d6000602084013e611646565b606091505b505090508061168a576040517f08c379a000000000000000000000000000000000000000000000000000000000815260040161168190613e0e565b60405180910390fd5b5061173f565b8060010160009054906101000a900473ffffffffffffffffffffffffffffffffffffffff1673ffffffffffffffffffffffffffffffffffffffff1663a9059cbb6116d8611e06565b83600201546040518363ffffffff1660e01b81526004016116fa929190613ac0565b6020604051808303816000875af1158015611719573d6000803e3d6000fd5b505050506040513d601f19601f8201168201806040525081019061173d9190613b15565b505b8060000160009054906101000a900473ffffffffffffffffffffffffffffffffffffffff1673ffffffffffffffffffffffffffffffffffffffff168360405161178891906133df565b60405180910390207ffdcb3de4adc5d1ed15a6a4bf25916a7c45dc75989687005a892cf67a64af5c15858460020154856005016040516117ca93929190613bc6565b60405180910390a3505050565b6117df612474565b6117e7612711565b565b6117f1612474565b60008173ffffffffffffffffffffffffffffffffffffffff166370a08231306040518263ffffffff1660e01b815260040161182c9190612e7e565b602060405180830381865afa158015611849573d6000803e3d6000fd5b505050506040513d601f19601f8201168201806040525081019061186d9190613e43565b9050600081116118b2576040517f08c379a00000000000000000000000000000000000000000000000000000000081526004016118a990613ebc565b60405180910390fd5b8173ffffffffffffffffffffffffffffffffffffffff1663a9059cbb6118d6611e06565b836040518363ffffffff1660e01b81526004016118f4929190613ac0565b6020604051808303816000875af1158015611913573d6000803e3d6000fd5b505050506040513d601f19601f820116820180604052508101906119379190613b15565b505050565b61194461255e565b61194c6125a4565b6000811161198f576040517f08c379a000000000000000000000000000000000000000000000000000000000815260040161198690613c57565b60405180910390fd5b7f000000000000000000000000000000000000000000000000000000000000000073ffffffffffffffffffffffffffffffffffffffff166323b872dd3330846040518463ffffffff1660e01b81526004016119ec93929190613c77565b6020604051808303816000875af1158015611a0b573d6000803e3d6000fd5b505050506040513d601f19601f82011682018060405250810190611a2f9190613b15565b5060026000815480929190611a439061335b565b91905055506000611a7933837f0000000000000000000000000000000000000000000000000000000000000000600254426125e5565b9050600481604051611a8b91906133df565b908152602001604051809103902060009054906101000a900460ff1615611ae7576040517f08c379a0000000000000000000000000000000000000000000000000000000008152600401611ade90613442565b60405180910390fd5b6040518060c001604052803373ffffffffffffffffffffffffffffffffffffffff1681526020017f000000000000000000000000000000000000000000000000000000000000000073ffffffffffffffffffffffffffffffffffffffff16815260200183815260200142815260200160006002811115611b6a57611b69612d20565b5b81526020016040518060400160405280600481526020017f5045505500000000000000000000000000000000000000000000000000000000815250815250600382604051611bb891906133df565b908152602001604051809103902060008201518160000160006101000a81548173ffffffffffffffffffffffffffffffffffffffff021916908373ffffffffffffffffffffffffffffffffffffffff16021790555060208201518160010160006101000a81548173ffffffffffffffffffffffffffffffffffffffff021916908373ffffffffffffffffffffffffffffffffffffffff160217905550604082015181600201556060820151816003015560808201518160040160006101000a81548160ff02191690836002811115611c9357611c92612d20565b5b021790555060a0820151816005019081611cad919061360e565b509050506001600482604051611cc391906133df565b908152602001604051809103902060006101000a81548160ff021916908315150217905550600560003373ffffffffffffffffffffffffffffffffffffffff1673ffffffffffffffffffffffffffffffffffffffff16815260200190815260200160002081908060018154018082558091505060019003906000526020600020016000909190919091509081611d59919061360e565b50600061271060065484611d6d91906136e0565b611d779190613751565b905060008184611d879190613782565b90503373ffffffffffffffffffffffffffffffffffffffff1683604051611dae91906133df565b60405180910390207f804c2918e0ff9732b69302ba3928d4745a3247d3a76f195e66ea0e190bd546cf858888878742604051611def96959493929190613f28565b60405180910390a3505050611e02612641565b5050565b6000600160009054906101000a900473ffffffffffffffffffffffffffffffffffffffff16905090565b6004818051602081018201805184825260208301602085012081835280955050505050506000915054906101000a900460ff1681565b611e6e612aaf565b600482604051611e7e91906133df565b908152602001604051809103902060009054906101000a900460ff16611ed9576040517f08c379a0000000000000000000000000000000000000000000000000000000008152600401611ed0906138d0565b60405180910390fd5b600382604051611ee991906133df565b90815260200160405180910390206040518060c00160405290816000820160009054906101000a900473ffffffffffffffffffffffffffffffffffffffff1673ffffffffffffffffffffffffffffffffffffffff1673ffffffffffffffffffffffffffffffffffffffff1681526020016001820160009054906101000a900473ffffffffffffffffffffffffffffffffffffffff1673ffffffffffffffffffffffffffffffffffffffff1673ffffffffffffffffffffffffffffffffffffffff16815260200160028201548152602001600382015481526020016004820160009054906101000a900460ff166002811115611fe757611fe6612d20565b5b6002811115611ff957611ff8612d20565b5b815260200160058201805461200d9061328f565b80601f01602080910402602001604051908101604052809291908181526020018280546120399061328f565b80156120865780601f1061205b57610100808354040283529160200191612086565b820191906000526020600020905b81548152906001019060200180831161206957829003601f168201915b5050505050815250509050919050565b600560205281600052604060002081815481106120b257600080fd5b906000526020600020016000915091505080546120ce9061328f565b80601f01602080910402602001604051908101604052809291908181526020018280546120fa9061328f565b80156121475780601f1061211c57610100808354040283529160200191612147565b820191906000526020600020905b81548152906001019060200180831161212a57829003601f168201915b505050505081565b7f000000000000000000000000000000000000000000000000000000000000000081565b60025481565b7f000000000000000000000000000000000000000000000000000000000000000081565b6121a5612474565b6000479050600081116121ed576040517f08c379a00000000000000000000000000000000000000000000000000000000081526004016121e490613ff6565b60405180910390fd5b6121f5611e06565b73ffffffffffffffffffffffffffffffffffffffff166108fc829081150290604051600060405180830381858888f1935050505015801561223a573d6000803e3d6000fd5b5050565b612246612474565b6103e881111561228b576040517f08c379a000000000000000000000000000000000000000000000000000000000815260040161228290614062565b60405180910390fd5b60006006549050816006819055507f1ca55b9b495432f493ed407421d75b86e66ac74606327f97fdd727dd647cc69c81836040516122ca929190614082565b60405180910390a15050565b6060600560008373ffffffffffffffffffffffffffffffffffffffff1673ffffffffffffffffffffffffffffffffffffffff168152602001908152602001600020805480602002602001604051908101604052809291908181526020016000905b828210156123e35783829060005260206000200180546123569061328f565b80601f01602080910402602001604051908101604052809291908181526020018280546123829061328f565b80156123cf5780601f106123a4576101008083540402835291602001916123cf565b820191906000526020600020905b8154815290600101906020018083116123b257829003601f168201915b505050505081526020019060010190612337565b505050509050919050565b6123f6612474565b600073ffffffffffffffffffffffffffffffffffffffff168173ffffffffffffffffffffffffffffffffffffffff16036124685760006040517f1e4fbdf700000000000000000000000000000000000000000000000000000000815260040161245f9190612e7e565b60405180910390fd5b6124718161264b565b50565b61247c612773565b73ffffffffffffffffffffffffffffffffffffffff1661249a611e06565b73ffffffffffffffffffffffffffffffffffffffff16146124f9576124bd612773565b6040517f118cdaa70000000000000000000000000000000000000000000000000000000081526004016124f09190612e7e565b60405180910390fd5b565b61250361277b565b6000600160146101000a81548160ff0219169083151502179055507f5db9ee0a495bf2e6ff9c91a7834c1ba4fdd244a5e8aa4e537bd38aeae4b073aa612547612773565b6040516125549190612e7e565b60405180910390a1565b60026000540361259a576040517f3ee5aeb500000000000000000000000000000000000000000000000000000000815260040160405180910390fd5b6002600081905550565b6125ac610aa2565b156125e3576040517fd93c066500000000000000000000000000000000000000000000000000000000815260040160405180910390fd5b565b60606126178686868686604051602001612603959493929190614114565b6040516020818303038152906040526127bb565b60405160200161262791906141bf565b604051602081830303815290604052905095945050505050565b6001600081905550565b6000600160009054906101000a900473ffffffffffffffffffffffffffffffffffffffff16905081600160006101000a81548173ffffffffffffffffffffffffffffffffffffffff021916908373ffffffffffffffffffffffffffffffffffffffff1602179055508173ffffffffffffffffffffffffffffffffffffffff168173ffffffffffffffffffffffffffffffffffffffff167f8be0079c531659141344cd1fd0a4f28419497f9722a3daafe3b4186f6b6457e060405160405180910390a35050565b6127196125a4565b60018060146101000a81548160ff0219169083151502179055507f62e78cea01bee320cd4e420270b5ea74000d11b0c9f74754ebdbfc544b05a25861275c612773565b6040516127699190612e7e565b60405180910390a1565b600033905090565b612783610aa2565b6127b9576040517f8dfc202b00000000000000000000000000000000000000000000000000000000815260040160405180910390fd5b565b606060006040518060400160405280601081526020017f3031323334353637383961626364656600000000000000000000000000000000815250905060006002845161280791906136e0565b60026128139190613782565b67ffffffffffffffff81111561282c5761282b612b52565b5b6040519080825280601f01601f19166020018201604052801561285e5781602001600182028036833780820191505090505b5090507f300000000000000000000000000000000000000000000000000000000000000081600081518110612896576128956141e1565b5b60200101907effffffffffffffffffffffffffffffffffffffffffffffffffffffffffffff1916908160001a9053507f7800000000000000000000000000000000000000000000000000000000000000816001815181106128fa576128f96141e1565b5b60200101907effffffffffffffffffffffffffffffffffffffffffffffffffffffffffffff1916908160001a90535060005b8451811015612aa45782600486838151811061294b5761294a6141e1565b5b602001015160f81c60f81b7effffffffffffffffffffffffffffffffffffffffffffffffffffffffffffff1916901c60f81c60ff1681518110612991576129906141e1565b5b602001015160f81c60f81b826002836129aa91906136e0565b60026129b69190613782565b815181106129c7576129c66141e1565b5b60200101907effffffffffffffffffffffffffffffffffffffffffffffffffffffffffffff1916908160001a90535082600f60f81b868381518110612a0f57612a0e6141e1565b5b602001015160f81c60f81b1660f81c60ff1681518110612a3257612a316141e1565b5b602001015160f81c60f81b82600283612a4b91906136e0565b6001612a579190613782565b81518110612a6857612a676141e1565b5b60200101907effffffffffffffffffffffffffffffffffffffffffffffffffffffffffffff1916908160001a905350808060010191505061292c565b508092505050919050565b6040518060c00160405280600073ffffffffffffffffffffffffffffffffffffffff168152602001600073ffffffffffffffffffffffffffffffffffffffff168152602001600081526020016000815260200160006002811115612b1657612b15612d20565b5b8152602001606081525090565b6000604051905090565b600080fd5b600080fd5b600080fd5b600080fd5b6000601f19601f8301169050919050565b7f4e487b7100000000000000000000000000000000000000000000000000000000600052604160045260246000fd5b612b8a82612b41565b810181811067ffffffffffffffff82111715612ba957612ba8612b52565b5b80604052505050565b6000612bbc612b23565b9050612bc88282612b81565b919050565b600067ffffffffffffffff821115612be857612be7612b52565b5b612bf182612b41565b9050602081019050919050565b82818337600083830152505050565b6000612c20612c1b84612bcd565b612bb2565b905082815260208101848484011115612c3c57612c3b612b3c565b5b612c47848285612bfe565b509392505050565b600082601f830112612c6457612c63612b37565b5b8135612c74848260208601612c0d565b91505092915050565b600060208284031215612c9357612c92612b2d565b5b600082013567ffffffffffffffff811115612cb157612cb0612b32565b5b612cbd84828501612c4f565b91505092915050565b600073ffffffffffffffffffffffffffffffffffffffff82169050919050565b6000612cf182612cc6565b9050919050565b612d0181612ce6565b82525050565b6000819050919050565b612d1a81612d07565b82525050565b7f4e487b7100000000000000000000000000000000000000000000000000000000600052602160045260246000fd5b60038110612d6057612d5f612d20565b5b50565b6000819050612d7182612d4f565b919050565b6000612d8182612d63565b9050919050565b612d9181612d76565b82525050565b600081519050919050565b600082825260208201905092915050565b60005b83811015612dd1578082015181840152602081019050612db6565b60008484015250505050565b6000612de882612d97565b612df28185612da2565b9350612e02818560208601612db3565b612e0b81612b41565b840191505092915050565b600060c082019050612e2b6000830189612cf8565b612e386020830188612cf8565b612e456040830187612d11565b612e526060830186612d11565b612e5f6080830185612d88565b81810360a0830152612e718184612ddd565b9050979650505050505050565b6000602082019050612e936000830184612cf8565b92915050565b6000602082019050612eae6000830184612d11565b92915050565b60008115159050919050565b612ec981612eb4565b82525050565b6000602082019050612ee46000830184612ec0565b92915050565b612ef381612d07565b8114612efe57600080fd5b50565b600081359050612f1081612eea565b92915050565b60008060408385031215612f2d57612f2c612b2d565b5b600083013567ffffffffffffffff811115612f4b57612f4a612b32565b5b612f5785828601612c4f565b9250506020612f6885828601612f01565b9150509250929050565b612f7b81612ce6565b8114612f8657600080fd5b50565b600081359050612f9881612f72565b92915050565b600060208284031215612fb457612fb3612b2d565b5b6000612fc284828501612f89565b91505092915050565b612fd481612ce6565b82525050565b612fe381612d07565b82525050565b612ff281612d76565b82525050565b600082825260208201905092915050565b600061301482612d97565b61301e8185612ff8565b935061302e818560208601612db3565b61303781612b41565b840191505092915050565b600060c08301600083015161305a6000860182612fcb565b50602083015161306d6020860182612fcb565b5060408301516130806040860182612fda565b5060608301516130936060860182612fda565b5060808301516130a66080860182612fe9565b5060a083015184820360a08601526130be8282613009565b9150508091505092915050565b600060208201905081810360008301526130e58184613042565b905092915050565b6000806040838503121561310457613103612b2d565b5b600061311285828601612f89565b925050602061312385828601612f01565b9150509250929050565b600060208201905081810360008301526131478184612ddd565b905092915050565b60006020828403121561316557613164612b2d565b5b600061317384828501612f01565b91505092915050565b600081519050919050565b600082825260208201905092915050565b6000819050602082019050919050565b60006131b48383613009565b905092915050565b6000602082019050919050565b60006131d48261317c565b6131de8185613187565b9350836020820285016131f085613198565b8060005b8581101561322c578484038952815161320d85826131a8565b9450613218836131bc565b925060208a019950506001810190506131f4565b50829750879550505050505092915050565b6000602082019050818103600083015261325881846131c9565b905092915050565b7f4e487b7100000000000000000000000000000000000000000000000000000000600052602260045260246000fd5b600060028204905060018216806132a757607f821691505b6020821081036132ba576132b9613260565b5b50919050565b7f4d7573742073656e642045544800000000000000000000000000000000000000600082015250565b60006132f6600d83612da2565b9150613301826132c0565b602082019050919050565b60006020820190508181036000830152613325816132e9565b9050919050565b7f4e487b7100000000000000000000000000000000000000000000000000000000600052601160045260246000fd5b600061336682612d07565b91507fffffffffffffffffffffffffffffffffffffffffffffffffffffffffffffffff82036133985761339761332c565b5b600182019050919050565b600081905092915050565b60006133b982612d97565b6133c381856133a3565b93506133d3818560208601612db3565b80840191505092915050565b60006133eb82846133ae565b915081905092915050565b7f5472616e73616374696f6e20494420636f6c6c6973696f6e0000000000000000600082015250565b600061342c601883612da2565b9150613437826133f6565b602082019050919050565b6000602082019050818103600083015261345b8161341f565b9050919050565b60008190508160005260206000209050919050565b60006020601f8301049050919050565b600082821b905092915050565b6000600883026134c47fffffffffffffffffffffffffffffffffffffffffffffffffffffffffffffffff82613487565b6134ce8683613487565b95508019841693508086168417925050509392505050565b6000819050919050565b600061350b61350661350184612d07565b6134e6565b612d07565b9050919050565b6000819050919050565b613525836134f0565b61353961353182613512565b848454613494565b825550505050565b600090565b61354e613541565b61355981848461351c565b505050565b5b8181101561357d57613572600082613546565b60018101905061355f565b5050565b601f8211156135c25761359381613462565b61359c84613477565b810160208510156135ab578190505b6135bf6135b785613477565b83018261355e565b50505b505050565b600082821c905092915050565b60006135e5600019846008026135c7565b1980831691505092915050565b60006135fe83836135d4565b9150826002028217905092915050565b61361782612d97565b67ffffffffffffffff8111156136305761362f612b52565b5b61363a825461328f565b613645828285613581565b600060209050601f8311600181146136785760008415613666578287015190505b61367085826135f2565b8655506136d8565b601f19841661368686613462565b60005b828110156136ae57848901518255600182019150602085019450602081019050613689565b868310156136cb57848901516136c7601f8916826135d4565b8355505b6001600288020188555050505b505050505050565b60006136eb82612d07565b91506136f683612d07565b925082820261370481612d07565b9150828204841483151761371b5761371a61332c565b5b5092915050565b7f4e487b7100000000000000000000000000000000000000000000000000000000600052601260045260246000fd5b600061375c82612d07565b915061376783612d07565b92508261377757613776613722565b5b828204905092915050565b600061378d82612d07565b915061379883612d07565b92508282019050808211156137b0576137af61332c565b5b92915050565b7f4554480000000000000000000000000000000000000000000000000000000000600082015250565b60006137ec600383612da2565b91506137f7826137b6565b602082019050919050565b600060e082019050818103600083015261381c8189612ddd565b905081810360208301526138308188612ddd565b905061383f6040830187612d11565b61384c6060830186612d11565b6138596080830185612d11565b81810360a083015261386a816137df565b905061387960c0830184612d11565b979650505050505050565b7f5472616e73616374696f6e20646f6573206e6f74206578697374000000000000600082015250565b60006138ba601a83612da2565b91506138c582613884565b602082019050919050565b600060208201905081810360008301526138e9816138ad565b9050919050565b7f5472616e73616374696f6e206973206e6f742070656e64696e67000000000000600082015250565b6000613926601a83612da2565b9150613931826138f0565b602082019050919050565b6000602082019050818103600083015261395581613919565b9050919050565b7f4f6e6c792076657269666965722063616e20636f6d706c657465207472616e7360008201527f616374696f6e7300000000000000000000000000000000000000000000000000602082015250565b60006139b8602783612da2565b91506139c38261395c565b604082019050919050565b600060208201905081810360008301526139e7816139ab565b9050919050565b60006139fb6003836133a3565b9150613a06826137b6565b600382019050919050565b6000613a1c826139ee565b9150819050919050565b60008154613a338161328f565b613a3d81866133a3565b94506001821660008114613a585760018114613a6d57613aa0565b60ff1983168652811515820286019350613aa0565b613a7685613462565b60005b83811015613a9857815481890152600182019150602081019050613a79565b838801955050505b50505092915050565b6000613ab58284613a26565b915081905092915050565b6000604082019050613ad56000830185612cf8565b613ae26020830184612d11565b9392505050565b613af281612eb4565b8114613afd57600080fd5b50565b600081519050613b0f81613ae9565b92915050565b600060208284031215613b2b57613b2a612b2d565b5b6000613b3984828501613b00565b91505092915050565b60008154613b4f8161328f565b613b598186612da2565b94506001821660008114613b745760018114613b8a57613bbd565b60ff198316865281151560200286019350613bbd565b613b9385613462565b60005b83811015613bb557815481890152600182019150602081019050613b96565b808801955050505b50505092915050565b60006060820190508181036000830152613be08186612ddd565b9050613bef6020830185612d11565b8181036040830152613c018184613b42565b9050949350505050565b7f416d6f756e74206d7573742062652067726561746572207468616e2030000000600082015250565b6000613c41601d83612da2565b9150613c4c82613c0b565b602082019050919050565b60006020820190508181036000830152613c7081613c34565b9050919050565b6000606082019050613c8c6000830186612cf8565b613c996020830185612cf8565b613ca66040830184612d11565b949350505050565b7f5553444300000000000000000000000000000000000000000000000000000000600082015250565b6000613ce4600483612da2565b9150613cef82613cae565b602082019050919050565b600060e0820190508181036000830152613d148189612ddd565b90508181036020830152613d288188612ddd565b9050613d376040830187612d11565b613d446060830186612d11565b613d516080830185612d11565b81810360a0830152613d6281613cd7565b9050613d7160c0830184612d11565b979650505050505050565b600081905092915050565b50565b6000613d97600083613d7c565b9150613da282613d87565b600082019050919050565b6000613db882613d8a565b9150819050919050565b7f455448207472616e7366657220746f206f776e6572206661696c656400000000600082015250565b6000613df8601c83612da2565b9150613e0382613dc2565b602082019050919050565b60006020820190508181036000830152613e2781613deb565b9050919050565b600081519050613e3d81612eea565b92915050565b600060208284031215613e5957613e58612b2d565b5b6000613e6784828501613e2e565b91505092915050565b7f4e6f20746f6b656e7320746f2077697468647261770000000000000000000000600082015250565b6000613ea6601583612da2565b9150613eb182613e70565b602082019050919050565b60006020820190508181036000830152613ed581613e99565b9050919050565b7f5045505500000000000000000000000000000000000000000000000000000000600082015250565b6000613f12600483612da2565b9150613f1d82613edc565b602082019050919050565b600060e0820190508181036000830152613f428189612ddd565b90508181036020830152613f568188612ddd565b9050613f656040830187612d11565b613f726060830186612d11565b613f7f6080830185612d11565b81810360a0830152613f9081613f05565b9050613f9f60c0830184612d11565b979650505050505050565b7f4e6f2045544820746f2077697468647261770000000000000000000000000000600082015250565b6000613fe0601283612da2565b9150613feb82613faa565b602082019050919050565b6000602082019050818103600083015261400f81613fd3565b9050919050565b7f50656e6b426f6e75732063616e6e6f7420657863656564203130250000000000600082015250565b600061404c601b83612da2565b915061405782614016565b602082019050919050565b6000602082019050818103600083015261407b8161403f565b9050919050565b60006040820190506140976000830185612d11565b6140a46020830184612d11565b9392505050565b60008160601b9050919050565b60006140c3826140ab565b9050919050565b60006140d5826140b8565b9050919050565b6140ed6140e882612ce6565b6140ca565b82525050565b6000819050919050565b61410e61410982612d07565b6140f3565b82525050565b600061412082886140dc565b60148201915061413082876140fd565b60208201915061414082866140dc565b60148201915061415082856140fd565b60208201915061416082846140fd565b6020820191508190509695505050505050565b7f3078000000000000000000000000000000000000000000000000000000000000600082015250565b60006141a96002836133a3565b91506141b482614173565b600282019050919050565b60006141ca8261419c565b91506141d682846133ae565b915081905092915050565b7f4e487b7100000000000000000000000000000000000000000000000000000000600052603260045260246000fdfea264697066735822122049fb4b7fccfeac9bd31df1d52786dc2831e7cf05e537433e1ecdfdcc861dc8f064736f6c63430008160033",
  "linkReferences": {},
  "deployedLinkReferences": {}
}