{
  "_format": "hh-sol-artifact-1",
  "contractName": "TokenEscrow",
  "sourceName": "contracts/L1.sol",
  "abi": [
    {
      "inputs": [
        {
          "internalType": "address",
          "name": "_usdcAddress",
          "type": "address"
        },
        {
          "internalType": "address",
          "name": "_pepuAddress",
          "type": "address"
        },
        {
          "internalType": "address",
          "name": "_verifierAddress",
          "type": "address"
        }
      ],
      "stateMutability": "nonpayable",
      "type": "constructor"
    },
    {
      "inputs": [],
      "name": "EnforcedPause",
      "type": "error"
    },
    {
      "inputs": [],
      "name": "ExpectedPause",
      "type": "error"
    },
    {
      "inputs": [
        {
          "internalType": "address",
          "name": "owner",
          "type": "address"
        }
      ],
      "name": "OwnableInvalidOwner",
      "type": "error"
    },
    {
      "inputs": [
        {
          "internalType": "address",
          "name": "account",
          "type": "address"
        }
      ],
      "name": "OwnableUnauthorizedAccount",
      "type": "error"
    },
    {
      "inputs": [],
      "name": "ReentrancyGuardReentrantCall",
      "type": "error"
    },
    {
      "anonymous": false,
      "inputs": [
        {
          "indexed": true,
          "internalType": "address",
          "name": "previousOwner",
          "type": "address"
        },
        {
          "indexed": true,
          "internalType": "address",
          "name": "newOwner",
          "type": "address"
        }
      ],
      "name": "OwnershipTransferred",
      "type": "event"
    },
    {
      "anonymous": false,
      "inputs": [
        {
          "indexed": false,
          "internalType": "address",
          "name": "account",
          "type": "address"
        }
      ],
      "name": "Paused",
      "type": "event"
    },
    {
      "anonymous": false,
      "inputs": [
        {
          "indexed": true,
          "internalType": "string",
          "name": "txid",
          "type": "string"
        },
        {
          "indexed": true,
          "internalType": "address",
          "name": "user",
          "type": "address"
        },
        {
          "indexed": false,
          "internalType": "uint256",
          "name": "amount",
          "type": "uint256"
        },
        {
          "indexed": false,
          "internalType": "string",
          "name": "tokenType",
          "type": "string"
        }
      ],
      "name": "TransactionCompleted",
      "type": "event"
    },
    {
      "anonymous": false,
      "inputs": [
        {
          "indexed": true,
          "internalType": "string",
          "name": "txid",
          "type": "string"
        },
        {
          "indexed": true,
          "internalType": "address",
          "name": "user",
          "type": "address"
        },
        {
          "indexed": false,
          "internalType": "string",
          "name": "providedString",
          "type": "string"
        },
        {
          "indexed": false,
          "internalType": "uint256",
          "name": "amount",
          "type": "uint256"
        },
        {
          "indexed": false,
          "internalType": "string",
          "name": "tokenType",
          "type": "string"
        },
        {
          "indexed": false,
          "internalType": "uint256",
          "name": "timestamp",
          "type": "uint256"
        }
      ],
      "name": "TransactionCreated",
      "type": "event"
    },
    {
      "anonymous": false,
      "inputs": [
        {
          "indexed": true,
          "internalType": "string",
          "name": "txid",
          "type": "string"
        },
        {
          "indexed": true,
          "internalType": "address",
          "name": "user",
          "type": "address"
        },
        {
          "indexed": false,
          "internalType": "uint256",
          "name": "amount",
          "type": "uint256"
        },
        {
          "indexed": false,
          "internalType": "string",
          "name": "tokenType",
          "type": "string"
        }
      ],
      "name": "TransactionRefunded",
      "type": "event"
    },
    {
      "anonymous": false,
      "inputs": [
        {
          "indexed": false,
          "internalType": "address",
          "name": "account",
          "type": "address"
        }
      ],
      "name": "Unpaused",
      "type": "event"
    },
    {
      "inputs": [],
      "name": "PEPU_ADDRESS",
      "outputs": [
        {
          "internalType": "address",
          "name": "",
          "type": "address"
        }
      ],
      "stateMutability": "view",
      "type": "function"
    },
    {
      "inputs": [],
      "name": "USDC_ADDRESS",
      "outputs": [
        {
          "internalType": "address",
          "name": "",
          "type": "address"
        }
      ],
      "stateMutability": "view",
      "type": "function"
    },
    {
      "inputs": [],
      "name": "VERIFIER_ADDRESS",
      "outputs": [
        {
          "internalType": "address",
          "name": "",
          "type": "address"
        }
      ],
      "stateMutability": "view",
      "type": "function"
    },
    {
      "inputs": [
        {
          "internalType": "string",
          "name": "providedString",
          "type": "string"
        }
      ],
      "name": "buy",
      "outputs": [],
      "stateMutability": "payable",
      "type": "function"
    },
    {
      "inputs": [
        {
          "internalType": "string",
          "name": "providedString",
          "type": "string"
        },
        {
          "internalType": "uint256",
          "name": "amount",
          "type": "uint256"
        }
      ],
      "name": "buyWithPEPU",
      "outputs": [],
      "stateMutability": "nonpayable",
      "type": "function"
    },
    {
      "inputs": [
        {
          "internalType": "string",
          "name": "providedString",
          "type": "string"
        },
        {
          "internalType": "uint256",
          "name": "amount",
          "type": "uint256"
        }
      ],
      "name": "buyWithUSDC",
      "outputs": [],
      "stateMutability": "nonpayable",
      "type": "function"
    },
    {
      "inputs": [
        {
          "internalType": "string",
          "name": "txid",
          "type": "string"
        }
      ],
      "name": "completeTransaction",
      "outputs": [],
      "stateMutability": "nonpayable",
      "type": "function"
    },
    {
      "inputs": [
        {
          "internalType": "string",
          "name": "txid",
          "type": "string"
        }
      ],
      "name": "getTransaction",
      "outputs": [
        {
          "components": [
            {
              "internalType": "address",
              "name": "user",
              "type": "address"
            },
            {
              "internalType": "address",
              "name": "tokenAddress",
              "type": "address"
            },
            {
              "internalType": "uint256",
              "name": "amount",
              "type": "uint256"
            },
            {
              "internalType": "uint256",
              "name": "timestamp",
              "type": "uint256"
            },
            {
              "internalType": "enum TokenEscrow.TransactionStatus",
              "name": "status",
              "type": "uint8"
            },
            {
              "internalType": "string",
              "name": "tokenType",
              "type": "string"
            }
          ],
          "internalType": "struct TokenEscrow.Transaction",
          "name": "",
          "type": "tuple"
        }
      ],
      "stateMutability": "view",
      "type": "function"
    },
    {
      "inputs": [
        {
          "internalType": "address",
          "name": "user",
          "type": "address"
        }
      ],
      "name": "getUserTransactions",
      "outputs": [
        {
          "internalType": "string[]",
          "name": "",
          "type": "string[]"
        }
      ],
      "stateMutability": "view",
      "type": "function"
    },
    {
      "inputs": [],
      "name": "owner",
      "outputs": [
        {
          "internalType": "address",
          "name": "",
          "type": "address"
        }
      ],
      "stateMutability": "view",
      "type": "function"
    },
    {
      "inputs": [],
      "name": "pause",
      "outputs": [],
      "stateMutability": "nonpayable",
      "type": "function"
    },
    {
      "inputs": [],
      "name": "paused",
      "outputs": [
        {
          "internalType": "bool",
          "name": "",
          "type": "bool"
        }
      ],
      "stateMutability": "view",
      "type": "function"
    },
    {
      "inputs": [
        {
          "internalType": "string",
          "name": "txid",
          "type": "string"
        }
      ],
      "name": "refundTransaction",
      "outputs": [],
      "stateMutability": "nonpayable",
      "type": "function"
    },
    {
      "inputs": [],
      "name": "renounceOwnership",
      "outputs": [],
      "stateMutability": "nonpayable",
      "type": "function"
    },
    {
      "inputs": [],
      "name": "transactionNonce",
      "outputs": [
        {
          "internalType": "uint256",
          "name": "",
          "type": "uint256"
        }
      ],
      "stateMutability": "view",
      "type": "function"
    },
    {
      "inputs": [
        {
          "internalType": "string",
          "name": "",
          "type": "string"
        }
      ],
      "name": "transactions",
      "outputs": [
        {
          "internalType": "address",
          "name": "user",
          "type": "address"
        },
        {
          "internalType": "address",
          "name": "tokenAddress",
          "type": "address"
        },
        {
          "internalType": "uint256",
          "name": "amount",
          "type": "uint256"
        },
        {
          "internalType": "uint256",
          "name": "timestamp",
          "type": "uint256"
        },
        {
          "internalType": "enum TokenEscrow.TransactionStatus",
          "name": "status",
          "type": "uint8"
        },
        {
          "internalType": "string",
          "name": "tokenType",
          "type": "string"
        }
      ],
      "stateMutability": "view",
      "type": "function"
    },
    {
      "inputs": [
        {
          "internalType": "address",
          "name": "newOwner",
          "type": "address"
        }
      ],
      "name": "transferOwnership",
      "outputs": [],
      "stateMutability": "nonpayable",
      "type": "function"
    },
    {
      "inputs": [
        {
          "internalType": "string",
          "name": "",
          "type": "string"
        }
      ],
      "name": "txidExists",
      "outputs": [
        {
          "internalType": "bool",
          "name": "",
          "type": "bool"
        }
      ],
      "stateMutability": "view",
      "type": "function"
    },
    {
      "inputs": [],
      "name": "unpause",
      "outputs": [],
      "stateMutability": "nonpayable",
      "type": "function"
    },
    {
      "inputs": [
        {
          "internalType": "address",
          "name": "",
          "type": "address"
        },
        {
          "internalType": "uint256",
          "name": "",
          "type": "uint256"
        }
      ],
      "name": "userTransactions",
      "outputs": [
        {
          "internalType": "string",
          "name": "",
          "type": "string"
        }
      ],
      "stateMutability": "view",
      "type": "function"
    },
    {
      "inputs": [],
      "name": "withdrawETH",
      "outputs": [],
      "stateMutability": "nonpayable",
      "type": "function"
    },
    {
      "inputs": [
        {
          "internalType": "address",
          "name": "tokenAddress",
          "type": "address"
        }
      ],
      "name": "withdrawToken",
      "outputs": [],
      "stateMutability": "nonpayable",
      "type": "function"
    },
    {
      "stateMutability": "payable",
      "type": "receive"
    }
  ],
  "bytecode": "0x60e06040523480156200001157600080fd5b50604051620042ac380380620042ac8339818101604052810190620000379190620003fa565b336001600081905550600073ffffffffffffffffffffffffffffffffffffffff168173ffffffffffffffffffffffffffffffffffffffff1603620000b55760006040517f1e4fbdf7000000000000000000000000000000000000000000000000000000008152600401620000ac919062000467565b60405180910390fd5b620000c681620002ca60201b60201c565b50600073ffffffffffffffffffffffffffffffffffffffff168373ffffffffffffffffffffffffffffffffffffffff160362000139576040517f08c379a00000000000000000000000000000000000000000000000000000000081526004016200013090620004e5565b60405180910390fd5b600073ffffffffffffffffffffffffffffffffffffffff168273ffffffffffffffffffffffffffffffffffffffff1603620001ab576040517f08c379a0000000000000000000000000000000000000000000000000000000008152600401620001a29062000557565b60405180910390fd5b600073ffffffffffffffffffffffffffffffffffffffff168173ffffffffffffffffffffffffffffffffffffffff16036200021d576040517f08c379a00000000000000000000000000000000000000000000000000000000081526004016200021490620005c9565b60405180910390fd5b8273ffffffffffffffffffffffffffffffffffffffff1660808173ffffffffffffffffffffffffffffffffffffffff16815250508173ffffffffffffffffffffffffffffffffffffffff1660a08173ffffffffffffffffffffffffffffffffffffffff16815250508073ffffffffffffffffffffffffffffffffffffffff1660c08173ffffffffffffffffffffffffffffffffffffffff16815250506000600281905550505050620005eb565b6000600160009054906101000a900473ffffffffffffffffffffffffffffffffffffffff16905081600160006101000a81548173ffffffffffffffffffffffffffffffffffffffff021916908373ffffffffffffffffffffffffffffffffffffffff1602179055508173ffffffffffffffffffffffffffffffffffffffff168173ffffffffffffffffffffffffffffffffffffffff167f8be0079c531659141344cd1fd0a4f28419497f9722a3daafe3b4186f6b6457e060405160405180910390a35050565b600080fd5b600073ffffffffffffffffffffffffffffffffffffffff82169050919050565b6000620003c28262000395565b9050919050565b620003d481620003b5565b8114620003e057600080fd5b50565b600081519050620003f481620003c9565b92915050565b60008060006060848603121562000416576200041562000390565b5b60006200042686828701620003e3565b93505060206200043986828701620003e3565b92505060406200044c86828701620003e3565b9150509250925092565b6200046181620003b5565b82525050565b60006020820190506200047e600083018462000456565b92915050565b600082825260208201905092915050565b7f496e76616c696420555344432061646472657373000000000000000000000000600082015250565b6000620004cd60148362000484565b9150620004da8262000495565b602082019050919050565b600060208201905081810360008301526200050081620004be565b9050919050565b7f496e76616c696420504550552061646472657373000000000000000000000000600082015250565b60006200053f60148362000484565b91506200054c8262000507565b602082019050919050565b60006020820190508181036000830152620005728162000530565b9050919050565b7f496e76616c696420766572696669657220616464726573730000000000000000600082015250565b6000620005b160188362000484565b9150620005be8262000579565b602082019050919050565b60006020820190508181036000830152620005e481620005a2565b9050919050565b60805160a05160c051613c596200065360003960008181610b29015281816113c40152611ea2015260008181610614015281816116ef015281816117af015261186e015260008181610e8301528181610f43015281816110020152611e780152613c596000f3fe6080604052600436106101395760003560e01c80638d78735a116100ab578063bb09d9b71161006f578063bb09d9b7146103ed578063c7944ca114610418578063d8a3440514610443578063e086e5ec1461046e578063ef92539914610485578063f2fde38b146104c257610140565b80638d78735a146102e25780638da5cb5b1461030b578063aaf56ca514610336578063ac2ccd0714610373578063b842ec44146103b057610140565b8063715018a6116100fd578063715018a6146102105780637c9d5de91461022757806381abb055146102505780638438e7ea146102795780638456cb59146102a257806389476069146102b957610140565b8063022236f4146101455780630393ff74146101875780633f4ba83a146101b2578063492cc769146101c95780635c975abb146101e557610140565b3661014057005b600080fd5b34801561015157600080fd5b5061016c6004803603810190610167919061290c565b6104eb565b60405161017e96959493929190612aa5565b60405180910390f35b34801561019357600080fd5b5061019c610612565b6040516101a99190612b0d565b60405180910390f35b3480156101be57600080fd5b506101c7610636565b005b6101e360048036038101906101de919061290c565b610648565b005b3480156101f157600080fd5b506101fa6109fb565b6040516102079190612b43565b60405180910390f35b34801561021c57600080fd5b50610225610a12565b005b34801561023357600080fd5b5061024e6004803603810190610249919061290c565b610a26565b005b34801561025c57600080fd5b5061027760048036038101906102729190612b8a565b610e2e565b005b34801561028557600080fd5b506102a0600480360381019061029b919061290c565b6112c1565b005b3480156102ae57600080fd5b506102b7611535565b005b3480156102c557600080fd5b506102e060048036038101906102db9190612c12565b611547565b005b3480156102ee57600080fd5b5061030960048036038101906103049190612b8a565b61169a565b005b34801561031757600080fd5b50610320611b2d565b60405161032d9190612b0d565b60405180910390f35b34801561034257600080fd5b5061035d6004803603810190610358919061290c565b611b57565b60405161036a9190612b43565b60405180910390f35b34801561037f57600080fd5b5061039a6004803603810190610395919061290c565b611b8d565b6040516103a79190612d3f565b60405180910390f35b3480156103bc57600080fd5b506103d760048036038101906103d29190612d61565b611dbd565b6040516103e49190612da1565b60405180910390f35b3480156103f957600080fd5b50610402611e76565b60405161040f9190612b0d565b60405180910390f35b34801561042457600080fd5b5061042d611e9a565b60405161043a9190612dc3565b60405180910390f35b34801561044f57600080fd5b50610458611ea0565b6040516104659190612b0d565b60405180910390f35b34801561047a57600080fd5b50610483611ec4565b005b34801561049157600080fd5b506104ac60048036038101906104a79190612c12565b611f65565b6040516104b99190612ea0565b60405180910390f35b3480156104ce57600080fd5b506104e960048036038101906104e49190612c12565b61207d565b005b6003818051602081018201805184825260208301602085012081835280955050505050506000915090508060000160009054906101000a900473ffffffffffffffffffffffffffffffffffffffff16908060010160009054906101000a900473ffffffffffffffffffffffffffffffffffffffff16908060020154908060030154908060040160009054906101000a900460ff169080600501805461058f90612ef1565b80601f01602080910402602001604051908101604052809291908181526020018280546105bb90612ef1565b80156106085780601f106105dd57610100808354040283529160200191610608565b820191906000526020600020905b8154815290600101906020018083116105eb57829003601f168201915b5050505050905086565b7f000000000000000000000000000000000000000000000000000000000000000081565b61063e612103565b61064661218a565b565b6106506121ed565b610658612233565b6000341161069b576040517f08c379a000000000000000000000000000000000000000000000000000000000815260040161069290612f6e565b60405180910390fd5b600260008154809291906106ae90612fbd565b919050555060006106c53334600060025442612274565b90506004816040516106d79190613041565b908152602001604051809103902060009054906101000a900460ff1615610733576040517f08c379a000000000000000000000000000000000000000000000000000000000815260040161072a906130a4565b60405180910390fd5b6040518060c001604052803373ffffffffffffffffffffffffffffffffffffffff168152602001600073ffffffffffffffffffffffffffffffffffffffff16815260200134815260200142815260200160006002811115610797576107966129af565b5b81526020016040518060400160405280600381526020017f45544800000000000000000000000000000000000000000000000000000000008152508152506003826040516107e59190613041565b908152602001604051809103902060008201518160000160006101000a81548173ffffffffffffffffffffffffffffffffffffffff021916908373ffffffffffffffffffffffffffffffffffffffff16021790555060208201518160010160006101000a81548173ffffffffffffffffffffffffffffffffffffffff021916908373ffffffffffffffffffffffffffffffffffffffff160217905550604082015181600201556060820151816003015560808201518160040160006101000a81548160ff021916908360028111156108c0576108bf6129af565b5b021790555060a08201518160050190816108da9190613270565b5090505060016004826040516108f09190613041565b908152602001604051809103902060006101000a81548160ff021916908315150217905550600560003373ffffffffffffffffffffffffffffffffffffffff1673ffffffffffffffffffffffffffffffffffffffff168152602001908152602001600020819080600181540180825580915050600190039060005260206000200160009091909190915090816109869190613270565b503373ffffffffffffffffffffffffffffffffffffffff16816040516109ac9190613041565b60405180910390207fda763995cd9488d228fb8754201c4a20b28cd98aa7410caa3dcaddb3f3cc69d68434426040516109e79392919061338e565b60405180910390a3506109f86122d0565b50565b6000600160149054906101000a900460ff16905090565b610a1a612103565b610a2460006122da565b565b80600481604051610a379190613041565b908152602001604051809103902060009054906101000a900460ff16610a92576040517f08c379a0000000000000000000000000000000000000000000000000000000008152600401610a899061342b565b60405180910390fd5b60006002811115610aa657610aa56129af565b5b600382604051610ab69190613041565b908152602001604051809103902060040160009054906101000a900460ff166002811115610ae757610ae66129af565b5b14610b27576040517f08c379a0000000000000000000000000000000000000000000000000000000008152600401610b1e90613497565b60405180910390fd5b7f000000000000000000000000000000000000000000000000000000000000000073ffffffffffffffffffffffffffffffffffffffff163373ffffffffffffffffffffffffffffffffffffffff1614610bb5576040517f08c379a0000000000000000000000000000000000000000000000000000000008152600401610bac90613529565b60405180910390fd5b6000600383604051610bc79190613041565b9081526020016040518091039020905060028160040160006101000a81548160ff02191690836002811115610bff57610bfe6129af565b5b0217905550604051602001610c139061356c565b6040516020818303038152906040528051906020012081600501604051602001610c3d9190613604565b6040516020818303038152906040528051906020012003610ccc578060000160009054906101000a900473ffffffffffffffffffffffffffffffffffffffff1673ffffffffffffffffffffffffffffffffffffffff166108fc82600201549081150290604051600060405180830381858888f19350505050158015610cc6573d6000803e3d6000fd5b50610d98565b8060010160009054906101000a900473ffffffffffffffffffffffffffffffffffffffff1673ffffffffffffffffffffffffffffffffffffffff1663a9059cbb8260000160009054906101000a900473ffffffffffffffffffffffffffffffffffffffff1683600201546040518363ffffffff1660e01b8152600401610d5392919061361b565b6020604051808303816000875af1158015610d72573d6000803e3d6000fd5b505050506040513d601f19601f82011682018060405250810190610d969190613670565b505b8060000160009054906101000a900473ffffffffffffffffffffffffffffffffffffffff1673ffffffffffffffffffffffffffffffffffffffff1683604051610de19190613041565b60405180910390207f75d4445d8d0034d1f0518918f4264c187d618c1c974e9640f50dfb4d7f7a8414836002015484600501604051610e21929190613721565b60405180910390a3505050565b610e366121ed565b610e3e612233565b60008111610e81576040517f08c379a0000000000000000000000000000000000000000000000000000000008152600401610e789061379d565b60405180910390fd5b7f000000000000000000000000000000000000000000000000000000000000000073ffffffffffffffffffffffffffffffffffffffff166323b872dd3330846040518463ffffffff1660e01b8152600401610ede939291906137bd565b6020604051808303816000875af1158015610efd573d6000803e3d6000fd5b505050506040513d601f19601f82011682018060405250810190610f219190613670565b5060026000815480929190610f3590612fbd565b91905055506000610f6b33837f000000000000000000000000000000000000000000000000000000000000000060025442612274565b9050600481604051610f7d9190613041565b908152602001604051809103902060009054906101000a900460ff1615610fd9576040517f08c379a0000000000000000000000000000000000000000000000000000000008152600401610fd0906130a4565b60405180910390fd5b6040518060c001604052803373ffffffffffffffffffffffffffffffffffffffff1681526020017f000000000000000000000000000000000000000000000000000000000000000073ffffffffffffffffffffffffffffffffffffffff1681526020018381526020014281526020016000600281111561105c5761105b6129af565b5b81526020016040518060400160405280600481526020017f55534443000000000000000000000000000000000000000000000000000000008152508152506003826040516110aa9190613041565b908152602001604051809103902060008201518160000160006101000a81548173ffffffffffffffffffffffffffffffffffffffff021916908373ffffffffffffffffffffffffffffffffffffffff16021790555060208201518160010160006101000a81548173ffffffffffffffffffffffffffffffffffffffff021916908373ffffffffffffffffffffffffffffffffffffffff160217905550604082015181600201556060820151816003015560808201518160040160006101000a81548160ff02191690836002811115611185576111846129af565b5b021790555060a082015181600501908161119f9190613270565b5090505060016004826040516111b59190613041565b908152602001604051809103902060006101000a81548160ff021916908315150217905550600560003373ffffffffffffffffffffffffffffffffffffffff1673ffffffffffffffffffffffffffffffffffffffff1681526020019081526020016000208190806001815401808255809150506001900390600052602060002001600090919091909150908161124b9190613270565b503373ffffffffffffffffffffffffffffffffffffffff16816040516112719190613041565b60405180910390207fda763995cd9488d228fb8754201c4a20b28cd98aa7410caa3dcaddb3f3cc69d68585426040516112ac93929190613840565b60405180910390a3506112bd6122d0565b5050565b806004816040516112d29190613041565b908152602001604051809103902060009054906101000a900460ff1661132d576040517f08c379a00000000000000000000000000000000000000000000000000000000081526004016113249061342b565b60405180910390fd5b60006002811115611341576113406129af565b5b6003826040516113519190613041565b908152602001604051809103902060040160009054906101000a900460ff166002811115611382576113816129af565b5b146113c2576040517f08c379a00000000000000000000000000000000000000000000000000000000081526004016113b990613497565b60405180910390fd5b7f000000000000000000000000000000000000000000000000000000000000000073ffffffffffffffffffffffffffffffffffffffff163373ffffffffffffffffffffffffffffffffffffffff1614611450576040517f08c379a000000000000000000000000000000000000000000000000000000000815260040161144790613529565b60405180910390fd5b60006003836040516114629190613041565b9081526020016040518091039020905060018160040160006101000a81548160ff0219169083600281111561149a576114996129af565b5b02179055508060000160009054906101000a900473ffffffffffffffffffffffffffffffffffffffff1673ffffffffffffffffffffffffffffffffffffffff16836040516114e89190613041565b60405180910390207f03c7c8aedd70d2b58f7125cea577394e13ddbd238c5d7847e8d0b6e59dc82f3a836002015484600501604051611528929190613721565b60405180910390a3505050565b61153d612103565b6115456123a0565b565b61154f612103565b60008173ffffffffffffffffffffffffffffffffffffffff166370a08231306040518263ffffffff1660e01b815260040161158a9190612b0d565b602060405180830381865afa1580156115a7573d6000803e3d6000fd5b505050506040513d601f19601f820116820180604052508101906115cb91906138a6565b905060008111611610576040517f08c379a00000000000000000000000000000000000000000000000000000000081526004016116079061391f565b60405180910390fd5b8173ffffffffffffffffffffffffffffffffffffffff1663a9059cbb611634611b2d565b836040518363ffffffff1660e01b815260040161165292919061361b565b6020604051808303816000875af1158015611671573d6000803e3d6000fd5b505050506040513d601f19601f820116820180604052508101906116959190613670565b505050565b6116a26121ed565b6116aa612233565b600081116116ed576040517f08c379a00000000000000000000000000000000000000000000000000000000081526004016116e49061379d565b60405180910390fd5b7f000000000000000000000000000000000000000000000000000000000000000073ffffffffffffffffffffffffffffffffffffffff166323b872dd3330846040518463ffffffff1660e01b815260040161174a939291906137bd565b6020604051808303816000875af1158015611769573d6000803e3d6000fd5b505050506040513d601f19601f8201168201806040525081019061178d9190613670565b50600260008154809291906117a190612fbd565b919050555060006117d733837f000000000000000000000000000000000000000000000000000000000000000060025442612274565b90506004816040516117e99190613041565b908152602001604051809103902060009054906101000a900460ff1615611845576040517f08c379a000000000000000000000000000000000000000000000000000000000815260040161183c906130a4565b60405180910390fd5b6040518060c001604052803373ffffffffffffffffffffffffffffffffffffffff1681526020017f000000000000000000000000000000000000000000000000000000000000000073ffffffffffffffffffffffffffffffffffffffff168152602001838152602001428152602001600060028111156118c8576118c76129af565b5b81526020016040518060400160405280600481526020017f50455055000000000000000000000000000000000000000000000000000000008152508152506003826040516119169190613041565b908152602001604051809103902060008201518160000160006101000a81548173ffffffffffffffffffffffffffffffffffffffff021916908373ffffffffffffffffffffffffffffffffffffffff16021790555060208201518160010160006101000a81548173ffffffffffffffffffffffffffffffffffffffff021916908373ffffffffffffffffffffffffffffffffffffffff160217905550604082015181600201556060820151816003015560808201518160040160006101000a81548160ff021916908360028111156119f1576119f06129af565b5b021790555060a0820151816005019081611a0b9190613270565b509050506001600482604051611a219190613041565b908152602001604051809103902060006101000a81548160ff021916908315150217905550600560003373ffffffffffffffffffffffffffffffffffffffff1673ffffffffffffffffffffffffffffffffffffffff16815260200190815260200160002081908060018154018082558091505060019003906000526020600020016000909190919091509081611ab79190613270565b503373ffffffffffffffffffffffffffffffffffffffff1681604051611add9190613041565b60405180910390207fda763995cd9488d228fb8754201c4a20b28cd98aa7410caa3dcaddb3f3cc69d6858542604051611b189392919061398b565b60405180910390a350611b296122d0565b5050565b6000600160009054906101000a900473ffffffffffffffffffffffffffffffffffffffff16905090565b6004818051602081018201805184825260208301602085012081835280955050505050506000915054906101000a900460ff1681565b611b9561273e565b600482604051611ba59190613041565b908152602001604051809103902060009054906101000a900460ff16611c00576040517f08c379a0000000000000000000000000000000000000000000000000000000008152600401611bf79061342b565b60405180910390fd5b600382604051611c109190613041565b90815260200160405180910390206040518060c00160405290816000820160009054906101000a900473ffffffffffffffffffffffffffffffffffffffff1673ffffffffffffffffffffffffffffffffffffffff1673ffffffffffffffffffffffffffffffffffffffff1681526020016001820160009054906101000a900473ffffffffffffffffffffffffffffffffffffffff1673ffffffffffffffffffffffffffffffffffffffff1673ffffffffffffffffffffffffffffffffffffffff16815260200160028201548152602001600382015481526020016004820160009054906101000a900460ff166002811115611d0e57611d0d6129af565b5b6002811115611d2057611d1f6129af565b5b8152602001600582018054611d3490612ef1565b80601f0160208091040260200160405190810160405280929190818152602001828054611d6090612ef1565b8015611dad5780601f10611d8257610100808354040283529160200191611dad565b820191906000526020600020905b815481529060010190602001808311611d9057829003601f168201915b5050505050815250509050919050565b60056020528160005260406000208181548110611dd957600080fd5b90600052602060002001600091509150508054611df590612ef1565b80601f0160208091040260200160405190810160405280929190818152602001828054611e2190612ef1565b8015611e6e5780601f10611e4357610100808354040283529160200191611e6e565b820191906000526020600020905b815481529060010190602001808311611e5157829003601f168201915b505050505081565b7f000000000000000000000000000000000000000000000000000000000000000081565b60025481565b7f000000000000000000000000000000000000000000000000000000000000000081565b611ecc612103565b600047905060008111611f14576040517f08c379a0000000000000000000000000000000000000000000000000000000008152600401611f0b90613a28565b60405180910390fd5b611f1c611b2d565b73ffffffffffffffffffffffffffffffffffffffff166108fc829081150290604051600060405180830381858888f19350505050158015611f61573d6000803e3d6000fd5b5050565b6060600560008373ffffffffffffffffffffffffffffffffffffffff1673ffffffffffffffffffffffffffffffffffffffff168152602001908152602001600020805480602002602001604051908101604052809291908181526020016000905b82821015612072578382906000526020600020018054611fe590612ef1565b80601f016020809104026020016040519081016040528092919081815260200182805461201190612ef1565b801561205e5780601f106120335761010080835404028352916020019161205e565b820191906000526020600020905b81548152906001019060200180831161204157829003601f168201915b505050505081526020019060010190611fc6565b505050509050919050565b612085612103565b600073ffffffffffffffffffffffffffffffffffffffff168173ffffffffffffffffffffffffffffffffffffffff16036120f75760006040517f1e4fbdf70000000000000000000000000000000000000000000000000000000081526004016120ee9190612b0d565b60405180910390fd5b612100816122da565b50565b61210b612402565b73ffffffffffffffffffffffffffffffffffffffff16612129611b2d565b73ffffffffffffffffffffffffffffffffffffffff16146121885761214c612402565b6040517f118cdaa700000000000000000000000000000000000000000000000000000000815260040161217f9190612b0d565b60405180910390fd5b565b61219261240a565b6000600160146101000a81548160ff0219169083151502179055507f5db9ee0a495bf2e6ff9c91a7834c1ba4fdd244a5e8aa4e537bd38aeae4b073aa6121d6612402565b6040516121e39190612b0d565b60405180910390a1565b600260005403612229576040517f3ee5aeb500000000000000000000000000000000000000000000000000000000815260040160405180910390fd5b6002600081905550565b61223b6109fb565b15612272576040517fd93c066500000000000000000000000000000000000000000000000000000000815260040160405180910390fd5b565b60606122a68686868686604051602001612292959493929190613ab1565b60405160208183030381529060405261244a565b6040516020016122b69190613b5c565b604051602081830303815290604052905095945050505050565b6001600081905550565b6000600160009054906101000a900473ffffffffffffffffffffffffffffffffffffffff16905081600160006101000a81548173ffffffffffffffffffffffffffffffffffffffff021916908373ffffffffffffffffffffffffffffffffffffffff1602179055508173ffffffffffffffffffffffffffffffffffffffff168173ffffffffffffffffffffffffffffffffffffffff167f8be0079c531659141344cd1fd0a4f28419497f9722a3daafe3b4186f6b6457e060405160405180910390a35050565b6123a8612233565b60018060146101000a81548160ff0219169083151502179055507f62e78cea01bee320cd4e420270b5ea74000d11b0c9f74754ebdbfc544b05a2586123eb612402565b6040516123f89190612b0d565b60405180910390a1565b600033905090565b6124126109fb565b612448576040517f8dfc202b00000000000000000000000000000000000000000000000000000000815260040160405180910390fd5b565b606060006040518060400160405280601081526020017f303132333435363738396162636465660000000000000000000000000000000081525090506000600284516124969190613b7e565b60026124a29190613bc0565b67ffffffffffffffff8111156124bb576124ba6127e1565b5b6040519080825280601f01601f1916602001820160405280156124ed5781602001600182028036833780820191505090505b5090507f30000000000000000000000000000000000000000000000000000000000000008160008151811061252557612524613bf4565b5b60200101907effffffffffffffffffffffffffffffffffffffffffffffffffffffffffffff1916908160001a9053507f78000000000000000000000000000000000000000000000000000000000000008160018151811061258957612588613bf4565b5b60200101907effffffffffffffffffffffffffffffffffffffffffffffffffffffffffffff1916908160001a90535060005b8451811015612733578260048683815181106125da576125d9613bf4565b5b602001015160f81c60f81b7effffffffffffffffffffffffffffffffffffffffffffffffffffffffffffff1916901c60f81c60ff16815181106126205761261f613bf4565b5b602001015160f81c60f81b826002836126399190613b7e565b60026126459190613bc0565b8151811061265657612655613bf4565b5b60200101907effffffffffffffffffffffffffffffffffffffffffffffffffffffffffffff1916908160001a90535082600f60f81b86838151811061269e5761269d613bf4565b5b602001015160f81c60f81b1660f81c60ff16815181106126c1576126c0613bf4565b5b602001015160f81c60f81b826002836126da9190613b7e565b60016126e69190613bc0565b815181106126f7576126f6613bf4565b5b60200101907effffffffffffffffffffffffffffffffffffffffffffffffffffffffffffff1916908160001a90535080806001019150506125bb565b508092505050919050565b6040518060c00160405280600073ffffffffffffffffffffffffffffffffffffffff168152602001600073ffffffffffffffffffffffffffffffffffffffff1681526020016000815260200160008152602001600060028111156127a5576127a46129af565b5b8152602001606081525090565b6000604051905090565b600080fd5b600080fd5b600080fd5b600080fd5b6000601f19601f8301169050919050565b7f4e487b7100000000000000000000000000000000000000000000000000000000600052604160045260246000fd5b612819826127d0565b810181811067ffffffffffffffff82111715612838576128376127e1565b5b80604052505050565b600061284b6127b2565b90506128578282612810565b919050565b600067ffffffffffffffff821115612877576128766127e1565b5b612880826127d0565b9050602081019050919050565b82818337600083830152505050565b60006128af6128aa8461285c565b612841565b9050828152602081018484840111156128cb576128ca6127cb565b5b6128d684828561288d565b509392505050565b600082601f8301126128f3576128f26127c6565b5b813561290384826020860161289c565b91505092915050565b600060208284031215612922576129216127bc565b5b600082013567ffffffffffffffff8111156129405761293f6127c1565b5b61294c848285016128de565b91505092915050565b600073ffffffffffffffffffffffffffffffffffffffff82169050919050565b600061298082612955565b9050919050565b61299081612975565b82525050565b6000819050919050565b6129a981612996565b82525050565b7f4e487b7100000000000000000000000000000000000000000000000000000000600052602160045260246000fd5b600381106129ef576129ee6129af565b5b50565b6000819050612a00826129de565b919050565b6000612a10826129f2565b9050919050565b612a2081612a05565b82525050565b600081519050919050565b600082825260208201905092915050565b60005b83811015612a60578082015181840152602081019050612a45565b60008484015250505050565b6000612a7782612a26565b612a818185612a31565b9350612a91818560208601612a42565b612a9a816127d0565b840191505092915050565b600060c082019050612aba6000830189612987565b612ac76020830188612987565b612ad460408301876129a0565b612ae160608301866129a0565b612aee6080830185612a17565b81810360a0830152612b008184612a6c565b9050979650505050505050565b6000602082019050612b226000830184612987565b92915050565b60008115159050919050565b612b3d81612b28565b82525050565b6000602082019050612b586000830184612b34565b92915050565b612b6781612996565b8114612b7257600080fd5b50565b600081359050612b8481612b5e565b92915050565b60008060408385031215612ba157612ba06127bc565b5b600083013567ffffffffffffffff811115612bbf57612bbe6127c1565b5b612bcb858286016128de565b9250506020612bdc85828601612b75565b9150509250929050565b612bef81612975565b8114612bfa57600080fd5b50565b600081359050612c0c81612be6565b92915050565b600060208284031215612c2857612c276127bc565b5b6000612c3684828501612bfd565b91505092915050565b612c4881612975565b82525050565b612c5781612996565b82525050565b612c6681612a05565b82525050565b600082825260208201905092915050565b6000612c8882612a26565b612c928185612c6c565b9350612ca2818560208601612a42565b612cab816127d0565b840191505092915050565b600060c083016000830151612cce6000860182612c3f565b506020830151612ce16020860182612c3f565b506040830151612cf46040860182612c4e565b506060830151612d076060860182612c4e565b506080830151612d1a6080860182612c5d565b5060a083015184820360a0860152612d328282612c7d565b9150508091505092915050565b60006020820190508181036000830152612d598184612cb6565b905092915050565b60008060408385031215612d7857612d776127bc565b5b6000612d8685828601612bfd565b9250506020612d9785828601612b75565b9150509250929050565b60006020820190508181036000830152612dbb8184612a6c565b905092915050565b6000602082019050612dd860008301846129a0565b92915050565b600081519050919050565b600082825260208201905092915050565b6000819050602082019050919050565b6000612e168383612c7d565b905092915050565b6000602082019050919050565b6000612e3682612dde565b612e408185612de9565b935083602082028501612e5285612dfa565b8060005b85811015612e8e5784840389528151612e6f8582612e0a565b9450612e7a83612e1e565b925060208a01995050600181019050612e56565b50829750879550505050505092915050565b60006020820190508181036000830152612eba8184612e2b565b905092915050565b7f4e487b7100000000000000000000000000000000000000000000000000000000600052602260045260246000fd5b60006002820490506001821680612f0957607f821691505b602082108103612f1c57612f1b612ec2565b5b50919050565b7f4d7573742073656e642045544800000000000000000000000000000000000000600082015250565b6000612f58600d83612a31565b9150612f6382612f22565b602082019050919050565b60006020820190508181036000830152612f8781612f4b565b9050919050565b7f4e487b7100000000000000000000000000000000000000000000000000000000600052601160045260246000fd5b6000612fc882612996565b91507fffffffffffffffffffffffffffffffffffffffffffffffffffffffffffffffff8203612ffa57612ff9612f8e565b5b600182019050919050565b600081905092915050565b600061301b82612a26565b6130258185613005565b9350613035818560208601612a42565b80840191505092915050565b600061304d8284613010565b915081905092915050565b7f5472616e73616374696f6e20494420636f6c6c6973696f6e0000000000000000600082015250565b600061308e601883612a31565b915061309982613058565b602082019050919050565b600060208201905081810360008301526130bd81613081565b9050919050565b60008190508160005260206000209050919050565b60006020601f8301049050919050565b600082821b905092915050565b6000600883026131267fffffffffffffffffffffffffffffffffffffffffffffffffffffffffffffffff826130e9565b61313086836130e9565b95508019841693508086168417925050509392505050565b6000819050919050565b600061316d61316861316384612996565b613148565b612996565b9050919050565b6000819050919050565b61318783613152565b61319b61319382613174565b8484546130f6565b825550505050565b600090565b6131b06131a3565b6131bb81848461317e565b505050565b5b818110156131df576131d46000826131a8565b6001810190506131c1565b5050565b601f821115613224576131f5816130c4565b6131fe846130d9565b8101602085101561320d578190505b613221613219856130d9565b8301826131c0565b50505b505050565b600082821c905092915050565b600061324760001984600802613229565b1980831691505092915050565b60006132608383613236565b9150826002028217905092915050565b61327982612a26565b67ffffffffffffffff811115613292576132916127e1565b5b61329c8254612ef1565b6132a78282856131e3565b600060209050601f8311600181146132da57600084156132c8578287015190505b6132d28582613254565b86555061333a565b601f1984166132e8866130c4565b60005b82811015613310578489015182556001820191506020850194506020810190506132eb565b8683101561332d5784890151613329601f891682613236565b8355505b6001600288020188555050505b505050505050565b7f4554480000000000000000000000000000000000000000000000000000000000600082015250565b6000613378600383612a31565b915061338382613342565b602082019050919050565b600060808201905081810360008301526133a88186612a6c565b90506133b760208301856129a0565b81810360408301526133c88161336b565b90506133d760608301846129a0565b949350505050565b7f5472616e73616374696f6e20646f6573206e6f74206578697374000000000000600082015250565b6000613415601a83612a31565b9150613420826133df565b602082019050919050565b6000602082019050818103600083015261344481613408565b9050919050565b7f5472616e73616374696f6e206973206e6f742070656e64696e67000000000000600082015250565b6000613481601a83612a31565b915061348c8261344b565b602082019050919050565b600060208201905081810360008301526134b081613474565b9050919050565b7f4f6e6c792076657269666965722063616e20636f6d706c657465207472616e7360008201527f616374696f6e7300000000000000000000000000000000000000000000000000602082015250565b6000613513602783612a31565b915061351e826134b7565b604082019050919050565b6000602082019050818103600083015261354281613506565b9050919050565b6000613556600383613005565b915061356182613342565b600382019050919050565b600061357782613549565b9150819050919050565b6000815461358e81612ef1565b6135988186613005565b945060018216600081146135b357600181146135c8576135fb565b60ff19831686528115158202860193506135fb565b6135d1856130c4565b60005b838110156135f3578154818901526001820191506020810190506135d4565b838801955050505b50505092915050565b60006136108284613581565b915081905092915050565b60006040820190506136306000830185612987565b61363d60208301846129a0565b9392505050565b61364d81612b28565b811461365857600080fd5b50565b60008151905061366a81613644565b92915050565b600060208284031215613686576136856127bc565b5b60006136948482850161365b565b91505092915050565b600081546136aa81612ef1565b6136b48186612a31565b945060018216600081146136cf57600181146136e557613718565b60ff198316865281151560200286019350613718565b6136ee856130c4565b60005b83811015613710578154818901526001820191506020810190506136f1565b808801955050505b50505092915050565b600060408201905061373660008301856129a0565b8181036020830152613748818461369d565b90509392505050565b7f416d6f756e74206d7573742062652067726561746572207468616e2030000000600082015250565b6000613787601d83612a31565b915061379282613751565b602082019050919050565b600060208201905081810360008301526137b68161377a565b9050919050565b60006060820190506137d26000830186612987565b6137df6020830185612987565b6137ec60408301846129a0565b949350505050565b7f5553444300000000000000000000000000000000000000000000000000000000600082015250565b600061382a600483612a31565b9150613835826137f4565b602082019050919050565b6000608082019050818103600083015261385a8186612a6c565b905061386960208301856129a0565b818103604083015261387a8161381d565b905061388960608301846129a0565b949350505050565b6000815190506138a081612b5e565b92915050565b6000602082840312156138bc576138bb6127bc565b5b60006138ca84828501613891565b91505092915050565b7f4e6f20746f6b656e7320746f2077697468647261770000000000000000000000600082015250565b6000613909601583612a31565b9150613914826138d3565b602082019050919050565b60006020820190508181036000830152613938816138fc565b9050919050565b7f5045505500000000000000000000000000000000000000000000000000000000600082015250565b6000613975600483612a31565b91506139808261393f565b602082019050919050565b600060808201905081810360008301526139a58186612a6c565b90506139b460208301856129a0565b81810360408301526139c581613968565b90506139d460608301846129a0565b949350505050565b7f4e6f2045544820746f2077697468647261770000000000000000000000000000600082015250565b6000613a12601283612a31565b9150613a1d826139dc565b602082019050919050565b60006020820190508181036000830152613a4181613a05565b9050919050565b60008160601b9050919050565b6000613a6082613a48565b9050919050565b6000613a7282613a55565b9050919050565b613a8a613a8582612975565b613a67565b82525050565b6000819050919050565b613aab613aa682612996565b613a90565b82525050565b6000613abd8288613a79565b601482019150613acd8287613a9a565b602082019150613add8286613a79565b601482019150613aed8285613a9a565b602082019150613afd8284613a9a565b6020820191508190509695505050505050565b7f3078000000000000000000000000000000000000000000000000000000000000600082015250565b6000613b46600283613005565b9150613b5182613b10565b600282019050919050565b6000613b6782613b39565b9150613b738284613010565b915081905092915050565b6000613b8982612996565b9150613b9483612996565b9250828202613ba281612996565b91508282048414831517613bb957613bb8612f8e565b5b5092915050565b6000613bcb82612996565b9150613bd683612996565b9250828201905080821115613bee57613bed612f8e565b5b92915050565b7f4e487b7100000000000000000000000000000000000000000000000000000000600052603260045260246000fdfea2646970667358221220832770ebfa6b99bc1dae18597dab1793e0750ef8f27324b053fb10867cdd05a964736f6c63430008180033",
  "linkReferences": {},
  "deployedLinkReferences": {}
}